:20006B00D296D29522D296D295900000E4F5F012022CC296900000E4F5F002022CE5829044
:20008B000400F0E0FF7E00BE0800504FC295900000E4F5F0C007C00612022CD006D0078FE6
:2000AB00047D008EF005F08006EC2CFCED33FDD5F0F7EC30E704D2968002C296900000E411
:2000CB00F5F0C007C00612022CD295900000E4F5F012022CD006D0070E80ACC295D296902D
:2000EB000000E4F5F012022C2096FDD295900000E4F5F012022CC295900000E4F5F0120275
:20010B002CA29622900401E4F07F00BF0800504DD296C295900000E4F5F0C00712022CD013
:20012B0007D295A296E433FE8F057407C39DFD8DF005F0EE800225E0D5F0FBFD900401E074
:20014B004DF0900000E4F5F0C00712022CC295900000E4F5F012022CD0070F80AE9004015E
:20016B00E0F58222AF83E582900403F0EFA3F0120070900403E0FEA3E0FF540725E0FD4340
:20018B0005A08D82C007C006120088D006D0078E82120088900402E0F58212008802020097
:2001AB00AF83E582900405F0EFA3F0120070900405E0FEA3E0FF540725E0FD74A04DF582E0
:2001CB00C007C006C005120088D005D006D0078E82C005120088120070D0054305A18D82E8
:2001EB0012008812010FAF82C007120270120200D0078F8222C295900000E4F5F012022CAE
:20020B00C296900000E4F5F012022CD295900000E4F5F012022CD296900000E4F5F002021D
:20022B002CAF82AE83ADF0FC900407EFF0EEA3F0EDA3F0ECA3F0900407E0F518A3E0F51979
:20024B00A3E0F51AA3E0F51B7B008B0079007A007F00C3E89518E99519EA951AEF951B507F
:20026B00030B80E622C295900000E4F5F012022CD296900000E4F5F012022CD295900000F5
:20028B00E4F5F002022C12007075827112008812010FAF82C007120270120200120070752D
:2002AB008270120088D007EFF4F582120088120200D2A822C021C0E0C0F0C082C083C007AF
:2002CB00C006C005C004C003C002C001C000C0D075D000C2A8B290120291D0D0D000D00157
:1702EB00D002D003D004D005D006D007D083D082D0F0D0E0D02132C9
:060000000200090202BF2C
:030068000200068D
:03000600020610DF
:20030200438E0C90000022D2AFD2A82290040DE4F074CAC0E0741AC0E07480C0E0120A4AB4
:200322001581158115811208ABAE828E057F008D828F83C006120832D006BE0D028059BE85
:2003420030004019EE24C6401490040DE0C454F0F08E07EF24D0FFE0FD2FF080C9BE4100B2
:200362004019EE24B9401490040DE0C454F0F08E0774C92FFFE0FD2FF080ABBE610040A65E
:20038200EE249940A190040DE0C454F0F074A92EFEE0FF2EF002032890040DE0FFFD7E00E8
:2003A200C007C005C00674F0C0E0741AC0E07480C0E0120E20E58124FBF581D0078F8222DE
:2003C20090040EE4F0A3F0740DC0E0741BC0E07480C0E0120A4A1581158115811208ABAE93
:2003E200828E057F008D828F83C007C006C005120832D005D006D007BE0D0C901B4775F0F8
:20040200801208510204E4BE30004042EE24C6403D90040EE0FBA3E0C454F0CBC4CB6BCBA8
:2004220054F0CB6BFC90040EEBF0ECA3F0ED24D0FBEF34FFFC90040EE0F9A3E0FAEB29F949
:20044200EC3AFA90040EE9F0EAA3F00203DEBE41004042EE24B9403D90040EE0FBA3E0C412
:2004620054F0CBC4CB6BCB54F0CB6BFC90040EEBF0ECA3F074C92DFB74FF3FFC90040EE09F
:20048200F9A3E0FAEB29F9EC3AFA90040EE9F0EAA3F00203DEBE610050030203DEEE2499DC
:2004A20050030203DE90040EE0FCA3E0C454F0CCC4CC6CCC54F0CC6CFE90040EECF0EEA3DE
:2004C200F074A92DFD74FF3FFF90040EE0FCA3E0FEED2CFCEF3EFE90040EECF0EEA3F002F2
:2004E20003DE90040EE0FEA3E0FF8F0574F82D5028C007C006744AC0E0741BC0E07480C0A4
:20050200E0120E20158115811581D006D00790040C7401F08E828F8322C007C006C006C0EE
:2005220007746AC0E0741BC0E07480C0E0120E20E58124FBF581D006D0078E828F832290B5
:20054200040CE4F01208B91208ABAE8290040BEEF0EE3395E0FF8E828F83120832901B477B
:2005620075F08012085190040BE0FFBF57291203C2AD82AE8390040CE0600122C006C005A7
:2005820012030EAC82D005D006900402ECF08D828E8312016F80A8BF52401203C2AD82AE1C
:2005A2008390040CE070668D828E83C006C0051201ABAC82D005D0067B00C004C003C00557
:2005C200C0067485C0E0741BC0E07480C0E0120E20E58124F9F581020541BF4F1874B4C068
:2005E200E0741BC0E07480C0E0120E2015811581158102054174C8C0E0741BC0E07480C04D
:1E060200E0120E201581158115810205412212082412006B12030912073290000022B8
:201ACA00506C6561736520656E74657220746865206279746520746F20626520777269745F
:201AEA0074656E0D0A00456E746572656420646174612062797465206973203078253258B6
:201B0A000D0A00506C6561736520656E74657220616E20454550524F4D20616464726573A2
:201B2A0073206265747765656E20307830303020616E642030783746463A0D0A000D0A0080
:201B4A00496E76616C696420616464726573732C20706C656173652072657472790D0A007B
:201B6A00456E746572656420616464726573732069732030782533580D0A0042797465204F
:201B8A00726561642066726F6D20454550524F4D20616464726573732030782533582069DC
:201BAA00732030782532580D0A005072696E74696E67204F7074696F6E733A0D0A00496EBB
:201BCA0076616C6964206368617261637465722E20506C656173652072657472790D0A0009
:20062000E582900410F0120070758286120088900410E0F582120088120200120070758204
:200640008712008812010FAF82C295D296900000E4F5F0C00712022CD0072096FDD2959086
:200660000000E4F5F0C00712022CC295900000E4F5F012022C120200D0078F8222E58290A5
:200680000412F0120070758286120088900412E0F582120088900411E0F58212008802028A
:2006A000009004117401F075827202067D9004117401F075821302067DAFF0AE83E58290E2
:2006C0000413F0EEA3F0EFA3F0900416E4F0900413E0FDA3E0FEA3E0FF900416E0FCBC20A9
:2006E00000504EEC2DF9E43EFA8F0389828A838BF012185FF98C027B000ABA00010BEA2D97
:20070000FAEB3EF88F038A8288838BF012185F900411F08982C007C006C005C00412067DC6
:20072000D004D005D006D00790041674022CF080A822758201120620AF82BFAC02800F740C
:20074000EAC0E0741BC0E0120941158115817C007D007E007F00C3EC94AEED940FEE94005F
:20076000EF940040030207E0EC249EF509ED3404F50A850982850A83E0F50874012CF8E47E
:200780003DF9E43EE43FE8249EF582E93404F583E0900411F0850882C007C006C005C0048A
:2007A00012067DD004D005D006D007850982850A83E0FBBB101A90424075F00FE4C007C07B
:2007C00006C005C00412022CD004D005D006D00774022CFCE43DFDE43EFEE43FFF02075697
:2007E000900417E4F0900417E0FFBF1A005034EF244CF582E43414F583E0FEEF04FD339583
:20080000E0FCED244CF582EC3414F583E0900411F08E82C00712067DD00790041774022F74
:04082000F080C22280
:201BEA004552524F523A20535441303133206E6F7420696E697469616C697A65640A0D003D
:201DE9003A012A04280029002000210022002300240025002600270028012802218F2803D6
:201E09002100280428052806280728082809280A280B280C20802190280D20002100280EEB
:201E290020812191280F200021922810210028112193281221002813281428152082281607
:201E490020002817281828192194281A2195281B2196281C2100281D2083281E2000281FF8
:201E6900219728202100282128222823282428252826282728282829282A2084282B20001A
:201E8900282C282D282E282F28302831283220852833200028342835283628372198283829
:201EA90021002839283A283B283C283D283E283F28402841284228432844284528462847E0
:201EC90028482849284A284B284C284D284E284F2850285128522853285428552856285781
:201EE90028582859285A285B285C285D285E285F28602861286221992863210028642865A3
:201F09002866286728682869286A286B286C286D286E286F28702871287228732874287560
:201F29002876287728782879287A287B287C287D287E287F28802881288228832884288540
:201F49002886288728882889288A288B288C288D288E288F2890289120862892208728934C
:201F69002000289428952896289728982899289A289B289C289D289E289F219A28A0210082
:201F890028A128A228A328A428A528A628A728A828A928AA28AB28AC28AD28AE28AF28B030
:201FA90028B128B228B328B428B528B628B728B828B9208828BA200028BB208928BC200019
:201FC90028BD28BE28BF28C028C128C228C3219B28C4210028C528C628C728C828C928CA3A
:201FE90028CB28CC28CD28CE28CF28D028D128D228D328D428D528D628D728D828D928DA30
:2020090028DB28DC28DD28DE28DF28E028E1208A28E2208B28E3200028E428E528E628E7CD
:2020290028E828E928EA28EB28EC28ED28EE28EF28F028F128F228F328F428F528F628F71F
:2020490028F8208C28F92000219C28FA219D28FB208D219E28FC208E219F28FD2000210046
:2020690028FE28FF2A012800220123952489250726A42707280121C72200238026C4270C18
:2020890028022009211C220426AA270A280320002100220023A626A02707280428052005B7
:2020A900238426B427092806200022032300248125C026AB270A280721AE220023952489BF
:2020C900250726A42700280821482201238026C4270C280920092104220426AA270A280A86
:2020E90020002100220023A826A42707280B280C21402220238026C4270C280D222426C680
:20210900280E219E220026C8280F20092102221426AA270A2810200521002200238426B4D6
:2021290027092811200021012300240125C026AB270A281221C323952489250726202700A0
:202149002813200321C223832626270D281421B322082815200021C6220023952600270862
:202169002816210023002496250326AA270A2817204221B62380248925072818200021007C
:202189002394260E2819200F238426B42709281A2000239326A82703281B26282700281C1E
:2021A90021012300240125C026AB270A281D21C523952489250726202700281E210023947E
:2021C9002600270A281F260E282020032179220123832626270D28212132282220002104AB
:2021E90022002380240025FC26AA270A2823210023002500282421A3220D2380249E253B13
:20220900282520422157220124892507282620002143220D24002538282721082298239526
:2022290024892507262427002828204221932201238026AA270A28292003217E220423833F
:202249002626270D282A200021B02200239526A02707282B21002300240C250426AA270AF3
:20226900282C21022380248625C326AB282D2042219722012489250726AA282E2000210006
:202289002200241F2504282F21B22395248925072620270428302042218B2204238026AA7C
:2022A900270A2831200021B12200239526A02707283220032175220423832626270D283311
:2022C900200521002200238426B427092834200021602300240125C026AB270A283521082A
:2022E900229823952489250726242700283621BC2200283721A3220D2300240125C026AB6C
:20230900270A28382160220023802400253826AA2839210622982395248925072624270048
:20232900283A21BE2200283B20052100238426B42709283C200021602300240125C026ABD4
:20234900270A283D2142220123952489250726242700283E210C229826A42707283F210881
:202369002840216022002300240125C026AB270A2841210C229823952489250726242700C8
:202389002842200521002200238426B427092843200023802400251026AB270A2844212279
:2023A90022012395248925072624270028452100220023002404251226AA270A284620032B
:2023C90021D422052383248925072626270D28472000216022002300240125C026AB270A78
:2023E900284821B3239524892507260027082849210023002409250026AA270A284A21020D
:2024090023802486253B284B204221DD220524892507284C200021002200241F2500284D7F
:2024290021B323952489250726202700284E210023002497250326AA270A284F204221E247
:20244900220523802489250728502000211022002300248025CC26AB28512100224023B489
:202469002489250726AA27042852220023B0269227092853211422012395260027082854CC
:20248900214823A4262A270028552100220023002409250026AA270A285621082380248662
:2024A900253B2857204221112207248925072858200021002200241F25002859211422017A
:2024C90023952489250726202700285A211626022709285B2100220023002480254826AA1A
:2024E900270A285C23A02489250726142709285D2480255026A42704285E211622012395ED
:20250900248925072700285F210422002300249C257826AA270A28602143220D240125C43A
:2025290026AB2861210322002415286221002400250026AA2863215E239524892507261024
:202549002709286421032300241525C426AB270A2865210023802400250626AA2866248F9A
:2025690025E326AB2867204221CD22072489250726AA28682000216022002300240125C048
:2025890026AB286921002380248F250326AA286A204221DD220724892507286B2000214356
:2025A900220D2300240125C026AB286C210022002400250426AA286D2003217F22012383D0
:2025C900248925072626270D286E2162286F200521002200238426B42709287020002106F1
:2025E9002395260027082871210123002497253B26AA270A28722042210E22082380248926
:20260900250728732003213C220B23832626270D2874200021032200239526022708287569
:2026290021272300248125C426AB270A2876210023802409254826AA28772158223423A396
:2026490024892507262A270028782100220023A0260027092879210723802403253926AA64
:20266900270A287A21042300241C2538287B2107238024832539287C2103239524892507CD
:2026890026022708287D21272300248125C426AB270A287E210023802409254826AA287FBF
:2026A9002158223423A324892507262A27002880210622002300248125C026932701288104
:2026C900210023802489254826AA270A2882200221662208230024002566288320002100D7
:2026E90022002380241F2502288421062489250726DC270C2885210023AA26AA270A288677
:2027090023B626002708288723802486253B26AA270A288821052489250726DC270C288990
:20272900210023AA26AA270A288A23B626002708288B23802486253B26AA270A288C20424A
:20274900217B220824892507288D200021002200230024012582288E2105248125C226AB91
:20276900288F2003219322082383248925072626270D28902000210522002300248125C0CC
:20278900261327012891210023802489254826AA270A28922002217E2208230024002566C0
:2027A90028932000210022002380241F2502289421052489250726DC270C2895210023AA4A
:2027C90026AA270A289623B626002708289723802486253B26AA270A2898210524892507D7
:2027E90026DC270C2899210023AA26AA270A289A2380241F2502289B21012300248125C288
:2028090026AB289C2003219322082383248925072626270D289D20002104220023952612FE
:202829002708289E216023C426AA2704289F210023C02600270928A0204221CB2208238033
:2028490026AA270A28A12070215422B823952612270828A2200221CC2208238026AA270A00
:2028690028A3200321CA220F23832626270D28A42000210022002300248C250C26AA270AEB
:2028890028A521042482257828A621002380248925482612270428A7200321DE220F238323
:2028A90025072626270D28A82000210122002300249C257826AA270A28A921002380248174
:2028C900254028AA200321CF220F2383248925072626270D28AB2070210822B8239526A091
:2028E900270428AC200321D4220F23832626270D28AD2127220B28AE2070216322B823959B
:202909002612270828AF2000210122002380248625CB26AB270A28B0204221DD22082489BE
:20292900250726AA28B1200021182280239526A4270028B2200321D9220F23832626270DC7
:2029490028B32070210A22B8239526A0270028B4200221E02208238026AA270A28B520701F
:20296900210A22B8239526A0270028B621542602270828B720002118228026A4270028B84F
:202989002100220023802480254826AA270A28B92070215E22B82395248925072612270874
:2029A90028BA20002100220023802409254B26AA270A28BB2070215F22B82395248925072A
:2029C9002610270828BC2000210022002300241C258326AB270A28BD200321322209238309
:2029E900248925072626270D28BE20002100220023002482258C26AB270A28BF2003212560
:202A090022092383248925072626270D28C0204221BC238026AA270A28C12000210122006B
:202A29002300240125C026AB28C22070210F22B82395248925072620270028C3200321E3FB
:202A4900220F23832626270D28C4200521002200238426B4270928C52000210323952614EE
:202A6900270828C621A623A4262A270528C7210023A02644270928C82118226D2380249E9C
:202A8900257B26AA270A28C920422113220B2489250728CA200021AE2200239526242700D3
:202AA90028CB2100220323802487257B26AA270A28CC20422116220B2489250728CD20003D
:202AC90021AE220023952624270028CE20052100238426B4270928CF2003210D220B2383CB
:202AE9002626270D28D0200021002200230024802602270028D1238024092548261E28D268
:202B090021582234233324802507262A28D32100220023002680271028D421102363262A26
:202B2900270028D52100236026A8271228D621AF224C230026C8270C28D721002200268055
:202B4900270528D823802486253B261E270028D92042211C220E23002480250728DA200043
:202B69002135222926C4270C28DB2002211D220E261E270028DC2000217F223426C4270C59
:202B890028DD210022002390249F25042610270A28DE2300248425002680271028DF2106DD
:202BA900236324802507262A270028E021002380248926AA270A28E12005238426B42709E6
:202BC90028E22070216122B823952612270828E32000210122002380248625C326AB270A31
:202BE90028E4204221CE220F2489250726AA28E52070215022B823952612270828E620055B
:202C090021002200238426B4270928E72070216422B823952612270828E820002101220026
:202C29002380248625C326AB270A28E9204221D3220F2489250726AA28EA2070215122B825
:202C490023952612270828EB200521002200238426B4270928EC2070216522B8239526122C
:202C6900270828ED2000210122002380248625C326AB270A28EE204221D8220F24892507F1
:202C890026AA28EF2070215222B823952612270828F0200521002200238426B4270928F1FE
:202CA9002070216122B823952602270828F22000210122002380248625C326AB270A28F340
:202CC900204221DD220F2489250726AA28F42070215022B823952602270828F52005210048
:202CE9002200238426B4270928F6200021012380248625CB26AB270A28F7204221E1220FA5
:202D09002489250726AA28F82000210222002300248125C426AB28F92100238024892548FB
:202D290026AA28FA20052384250726B4270928FB2070214E22B823952610270828FC200039
:202D4900210022002380248625C326AB270A28FD204221E7220F2489250726AA28FE200041
:202D690021BB220023952620270028FF20052100238426B427092A0810013A00643A65BBCE
:202D8900083A09BB50105267517705A11804540155210700060C0B03501051005204610F18
:082DA9006455655505A11804ED
:20082400758920758DFD759850D28ED29922AF83E582900418F0EFA3F010990280FB9004DC
:2008440018E0FEA3E0FF8E998E828F8322AFF0AE83E58290041AF0EEA3F0EFA3F090041A2B
:20086400E0FDA3E0FEA3E0FF7B007C00EB2DF8EC3EF98F02888289838AF012185FFA602640
:200884008A017A0089828A83C007C006C005C004C003120832D003D004D005D006D0070BDE
:2008A400BB00C90C80C62210980280FBAE997F008E828F8322740AC0E0741CC0E012094163
:2008C40015811581744AC0E0741CC0E012094115811581740AC0E0741CC0E0120941158192
:2008E4001581748AC0E0741CC0E01209411581158174CAC0E0741CC0E01209411581158172
:20090400740AC0E0741DC0E012094115811581744AC0E0741DC0E012094115811581748AE7
:1D092400C0E0741DC0E01209411581158174CBC0E0741DC0E01209411581158122A3
:201C0A002D2D2D2D2D2D2D2D2D2D2D2D2D2D2D2D2D2D2D2D2D2D2D2D2D2D2D2D2D2D2D2D1A
:201C2A002D2D2D2D2D2D2D2D2D2D2D2D2D2D2D2D2D2D2D2D2D2D2D2D2D2D2D2D2D0D0A006A
:201C4A0020202020202020202020202020202020202020202020202020204D454E55204F96
:201C6A005054494F4E5320202020202020202020202020202020202020202020200D0A0086
:201C8A007C20202020202020202020202020202020202020202057202020202020202020A7
:201CAA0020202020202020207C202020205772697465204279746520202020207C0D0A002C
:201CCA007C202020202020202020202020202020202020202020522020202020202020206C
:201CEA0020202020202020207C202020205265616420427974652020202020207C0D0A005B
:201D0A007C2020202020202020202020202020202020202020204820202020202020202035
:201D2A0020202020202020207C2020202048657864756D7020202020202020207C0D0A002F
:201D4A007C20202020202020202020202020202020202020202045202020202020202020F8
:201D6A0020202020202020207C20202020526573657420454550524F4D2020207C0D0A007F
:201D8A007C2020202020202020202020202020202020202020204F202020202020202020AE
:201DAA0020202020202020207C202020205072696E74204F7074696F6E7320207C0D0A0A27
:141DCA000020456E74657220616E206F7074696F6E3A2000E5
:06003800E478FFF6D8FD9C
:2000160079C8E9440F601B7A10901DE9789E75A004E493F2A308B8000205A0D9F4DAF27502
:02003600A0FF29
:20094100C017858117E51724FDF8868318868218E493A324DB600C24256005120A2F80F05E
:20096100020A47D2D5E493A3C083C082B4731486F01886831886821812185F6054A3120AD7
:200981002F80F5B4630818E618120A2F8043B46417E630E74618E6F42401F608E6F43400DA
:2009A100F6742D120A2F8033B4782D868318868218E4120A20E583120A1FE583120A20E5BB
:2009C10082120A1FE582120A2030D5057430120A2FD082D083020951B475F6E6FA18E6F9C6
:2009E100187C107D27120A0AFF7CE87D03120A0AC4F5837C647D00120A0A4283E975F00AA3
:200A010084C445F0F582EF80A97B000BC3E99CF9EA9DFA50F61BE92CF9EA3DFAEB22C454CC
:200A21000F700320D51FC2D52490D43440D4C083C082C0F0F582E8C0E0120832D0E0F8D0C0
:090A4100F0D082D08322D01722EC
:20003E007800E84400600A790075A004E4F309D8FC789EE84400600C7901900400E4F0A31B
:04005E00D8FCD9FAF7
:06006200C200C201C2024F
:200A4A00C017E581F51724FBFFE51724FBF886040886050886068C828D838EF012185FFB41
:200A6A007003020C1FBB25028003020C04C202C201C200E51724FBF874012CF6E43D08F643
:200A8A0008A606E51724FBF886040886050886068C828D838EF012185FFABA68028017BA40
:200AAA006C26D200E51724FBF874012CF6E43D08F608A6068012D202E51724FBF874012C31
:200ACA00F6E43D08F608A606E51724FBF886040886050886068C828D838EF012185FFEBE9E
:200AEA0063028022BE64028013BE6F02801DBE73028005BE78188009D2018012750B0A8064
:200B0A000D750B108008750B008003750B0830014CEF24FDFEFF8E01870C09870D09870E34
:200B2A001919AC0CAD0DAE0E8C828D838EF012185F7003020C11AC0CAD0DAE0E8C828D8348
:200B4A008EF012185FFC050CE4B50C02050D7E008C828E83C007120832D00780C5300017AB
:200B6A00EF24FCFEFF8E01870F098710098711098712191919802F300213EF14F9FF870690
:200B8A008E0F7510007511007512008019EF24FEFEFF8E018705098706198D0FEEF51033E9
:200BAA0095E0F511F512E50B603F900446742CF0E4A3F07440A3F0900449E50BF0850F821F
:200BCA008510838511F0E512C007120D35D007792CE7FE60327D008E828D83C007C0011231
:200BEA000832D001D0070980E8AE0F7D008E828D83C007120832D007800D7E008B828E832B
:180C0A00C007120832D007E51724FBF806B600020806020A53D01722A1
:200C2200AF82AE83ADF0FC900421EFF0EEA3F0EDA3F0ECA3F0900420E0FF7E20900421E0DD
:200C4200FAA3E0FBA3E0FCA3E0FD8F13751400751500751600900487E513F0E514A3F0E567
:200C620015A3F0E516A3F08A828B838CF0EDC007C00612187BAA82D006D00774302AFD9053
:200C82000445F08D04EC24C6500790044574072DF01EEE2425FCE43404FD900445E08C82B9
:200CA2008D83F0900421E0FAA3E0FBA3E0FCA3E0FD900490E513F0E514A3F0E515A3F0E51C
:200CC20016A3F08A828B838CF0EDC007C0061219BBAA82AB83ACF0FDD006D007900421EA34
:200CE200F0EBA3F0ECA3F0EDA3F0900421E0F5F0A3E042F0A3E042F0A3E045F06003020C78
:200D02003E90041DE0FCA3E0FDA3E0FFEE2425F582E43404F583E08C828D838FF0121AAF6A
:200D2200A3AC82AD830EBE20E38C828D838FF0E4021AAFAF82AE83ADF0FC90044AEFF0EEEF
:200D4200A3F0EDA3F0ECA3F090044AE0FCA3E0FDA3E0FEA3E0FF30E73F900449E0FBBB0AEF
:200D620037900446E0F9A3E0FAA3E0FB89828A838BF0742D121AAF900446740129F0E43AF7
:200D8200A3F0EBA3F090044AC3E49CF0E49DA3F0E49EA3F0E49FA3F090044AE0FCA3E0FDB6
:200DA200A3E0FEA3E0FF900446E0F9A3E0FAA3E0FB900449E0F890041DE9F0EAA3F0EBA336
:100DC200F0900420E8F08C828D838EF0EF020C22EA
:200DD200C0178581177E008E83120832D01722AFF0AE83E58290044FF0EEA3F0EFA3F0908C
:200DF200044FE0FDA3E0FEA3E0FF90044EE0FC900463E4F0A3F0A3F0900466EDF0EEA3F0A7
:200E1200EFA3F0900469ECF0900DD2020F26C017E581F51724FBFF900463E4F0A3F0A3F067
:200E3200E51724FBF8900466E6F008E6A3F008E6A3F0900469EFF0900DD2120F26D0172220
:200E5200E58290045FF0E0FF900455E0C0E0A3E0C0E0A3E0C0E0120E6D800D900453E0C007
:200E7200E0A3E0C0E08F822215811581158190045DE02401F0A3E03400F022E5829004605E
:200E9200F0E02430FF24C6500D74072FFF900452E060034307208F82020E52E582900461CB
:200EB200F0E0FFC4540FF582C007120E8DD00753070F8F82020E8DE582900462F090045818
:200ED200E0FCA3E0FDA3E0FEA3E0FF90045CE0FB900462E0FA79208B00E828F518EF23545F
:200EF200014518FBEC2CFCED33FDEE33FEEF33FFC3EB9A4007EBC39AFB43040119E970D7B3
:200F1200900458ECF0EDA3F0EEA3F0EFA3F090045CEBF022AF83E58290046AF0EFA3F090EE
:200F3200046AE0FEA3E0FF900453EEF0EFA3F0900463E0FDA3E0FEA3E0FF900455EDF0EEFF
:200F5200A3F0EFA3F090045DE4F0A3F0900466E0FDA3E0FEA3E0FF8D828E838FF012185F10
:200F7200FC90046674012DF0E43EA3F0EFA3F0EC700302181BBC2502800302181390046C79
:200F9200E4F090046DF090046EF090046FF0900470F0900471F0900472F0900473F090042B
:200FB20075F0900476F0A3F090047814F0A3F0900466E0FDA3E0FEA3E0FF8D828E838FF011
:200FD20012185FFBA3AD82AE83900466EDF0EEA3F0EFA3F090047CEBF0BB25088B82120E9E
:200FF20052020F5EBB300050030210BFEB24C650030210BF900478E0F522A3E0F52374FF05
:20101200B52263B52360C005C006C007900476E0FAA3E0FF900485EAF0EFA3F090000AC0C5
:2010320005C00312183FAE82AF83D003D0058B027D00EA2EFEED3FFFEE24D0FEEF34FFFF17
:20105200900476EEF0EFA3F0D007D006D005900476E0F5F0A3E045F06003020FCC90046DCA
:201072007401F0020FCCC005C006C007900485E522F0E523A3F090000AC006C005C0031225
:20109200183FAA82AF83D003D005D0067E00EB2AFAEE3FFFEA24D0FAEF34FFFF900478EA63
:2010B200F0EFA3F0D007D006D005020FCC90047CE0FBBB2E2FC005C006C007900478E0FA12
:2010D200A3E0FFBAFF05BFFF028009D007D006D005020FCCD007D006D005900478E4F0A311
:2010F200F0020FCCBB61004014EB2485400F90047C74DF5BF09004527401F080059004525A
:20111200E4F090047CE0FBBB20028075BB2B028067BB2D028059BB4202806FBB4302807CB0
:20113200BB44030213B6BB46030213DCBB4803020FCCBB49030213B6BB4A03020FCCBB4C3A
:20115200028050BB4F030213C4BB5003021324BB53028077BB5403020FCCBB55030213CC94
:20117200BB58030213D4BB5A03020FCC0213E490046C7401F0020FCC90046E7401F0020FB6
:20119200CC90046F7401F0020FCC9004717401F0020FCC9004727401F0020FCC900471E0B8
:2011B200600E900469E014F9F090047CE7F0800F900469E024FEFFF08F0190047CE7F0906A
:2011D200047CE0F582120E520213F3900469E024FDFFF08F018705098706098707191990B4
:2011F2000458EDF0EEA3F0EFA3F08D828E838FF0121827858222858323900478E0FAA3E0F4
:20121200FDBAFF0DBDFF0A900478E522F0E523A3F090046CE0704B900476E0FAA3E0FDC3D3
:20123200E5229AE5239D503A900476EAC39522F0ED9523A3F0900476E0FAA3E0FD8A068DB5
:20125200071ABAFF011DEE4F6010758220C005C002120E52D002D00580E3900476EAF0EDEC
:20127200A3F0900478E0F525A3E0F526900458E0FAA3E0FDA3E0FF8A828D838FF012185F39
:20129200F524603CC3E4952574808526F063F08095F0502C152574FFB525021526852482D4
:2012B200120E52900458E0FAA3E0FDA3E0FF0ABA00010D900458EAF0EDA3F0EFA3F080AC1C
:2012D20090046CE070030213F3900476E0FEA3E0FFC3E5229EE5239F40030213F3900476D3
:2012F200EEC39522F0EF9523A3F0900476E0FEA3E0FF8E028F051EBEFF011FEA4D70030215
:2013120013EB758220C007C006120E52D006D00780E0900469E024FDFDF08D0187270987E3
:20133200280987291919900458E527F0E528A3F0E529A3F090045AE0FDBD8000400890047B
:201352007C7443F08020BD6000400890047C7450F08013BD4000400890047C7449F0800674
:2013720090047C7458F090047CE0FDF582C005120E5275823A120E52758230120E527582C1
:2013920078120E52D005BD4902800EBD50028009900459E0F582120EAD900458E0F58212E8
:2013B2000EAD803D9004707401F0900475740AF0802F9004757408F08027900475740AF081
:2013D200801F9004757410F080179004737401F0800F8B82120E528008900476EEF0EFA3CC
:2013F200F0900473E06071900469E024FCFFF08F0187030987050987060987071919199090
:201412000458EBF0EDA3F0EEA3F0EFA3F090045874DEF0741DA3F07480A3F0900458E0F566
:2014320027A3E0F528A3E0F52974012527FAE43528FBAF29900458EAF0EBA3F0EFA3F08518
:2014520027828528838529F012185FFF7003020F5E8F82120E5280C3900475E07003020F66
:201472005E900471E06047900469E014F9F087077E007D007B00900458EFF0EEA3F0EDA3B6
:20149200F0EBA3F0900470E06003021536900458E0FBA3E0A3E0A3E07D007E007F009004DA
:2014B20058EBF0EDA3F0EEA3F0EFA3F08076900472E06028900469E024FCFFF08F018703FA
:2014D200098705098706098707191919900458EBF0EDA3F0EEA3F0EFA3F08048900469E0FE
:2014F20024FEFFF08F01870609870719EF3395E0FDFB900458EEF0EFA3F0EDA3F0EBA3F023
:20151200900470E0701E900458E0FBA3E0FDA3E0A3E07E007F00900458EBF0EDA3F0EEA325
:20153200F0EFA3F0900470E06041900458E0FBA3E0FDA3E0FEA3E0FF30E72B900458E0FB4F
:20155200A3E0FDA3E0FEA3E0FFC3E49BFBE49DFDE49EFEE49FFF900458EBF0EDA3F0EEA361
:20157200F0EFA3F08005900470E4F09004747401F0900475E0F525752A82752B04E4F5225A
:20159200F52390045CE4F0852582120EC9900474E0702690045CE0C4F527852A82852B83B6
:2015B200E0FFE5274207852A82852B83EFF0152A74FFB52A02152B800C90045CE0FF852AC5
:2015D20082852B83F00522E4B522020523900474E0B40100E433F0900458E0FAA3E0FBA3BD
:2015F200E0FEA3E0FFEA4B4E4F7097900483E52AF0E52BA3F090047AE522F0E523A3F090B7
:201612000476E0F5F0A3E045F070099004767401F0E4A3F090046DE0FFE0704790046CE00B
:20163200704185222A85232B900476E0FAA3E0FBC007AF2A0F8F067F00C3EE9AEF9BD00772
:201652005019758220C007C003C002120E52D002D003D0071ABAFF011B80D5900476EAF096
:20167200EBA3F0900470E0602075822DC007120E52D007900476E024FFFDA3E034FFFE90F4
:201692000476EDF0EEA3F0805690047AE0F5F0A3E045F0604A90046EE0602075822BC0070A
:2016B200120E52D007900476E024FFFDA3E034FFFE900476EDF0EEA3F0802490046FE060C2
:2016D2001E758220C007120E52D007900476E024FFFDA3E034FFFE900476EDF0EEA3F090FD
:2016F200046CE0704890047AE0F52AA3E0F52B900476E0FAA3E0FBC0078A068B071ABAFF02
:20171200011BC3E52A9EE52B9FD0075053EF60067D307E0080047D207E008D82C007C0034A
:20173200C002120E52D002D003D00780CA900476E0FEA3E0FF90047AE0F52AA3E0F52BC3C0
:20175200E52A9EE52B9F500F900476EEC3952AF0EF952BA3F08011900476E4F0A3F0800886
:20177200900476EAF0EBA3F0900483E0FEA3E0FF90047AE0F52AA3E0F52BAA2AAD2B152AE3
:2017920074FFB52A02152BEA4D6045900474E0B40100E433F0900474E070140EBE00010FDB
:2017B2008E828F83E0C4540FFD90045CF0800E8E828F83E0FD53050F90045CEDF090045C60
:2017D200E0F582C007C006120E8DD006D00780AA90046CE07003020F5E900476E0FEA3E062
:2017F200FF8E038F051EBEFF011FEB4D7003020F5E758220C007C006120E52D006D007805B
:15181200E08C82120E52020F5E90045DE0FEA3E08E82F58322F6
:0B1DDE003C4E4F20464C4F41543E004D
:18182700AA82AB8312185F6003A380F8C3E5829AF582E5839BF5832270
:20183F00AA83AB828BF0900485E0A4F8A9F08AF0E0A429F98BF0A3E0A429F58388822222D5
:0D000900758137120302E5826003020006D4
:1C185F0020F71430F6148883A88220F507E6A88375830022E280F7E49322E02298
:20187B00AF82AE83ADF0FC90048BEFF0EEA3F0EDA3F0ECA3F090048FE4F090048BE0FCA33F
:20189B00E0FDA3E0FEA3E0FF7B00900487E0F518A3E0F519A3E0F51AA3E0F51B235401FAA2
:2018BB007074C003E5182518F8E51933F9E51A33FAE51B33FB900487E8F0E9A3F0EAA3F0C4
:2018DB00EBA3F0900487E0F518A3E0F519A3E0F51AA3E0F51BC3EC9518ED9519EE951AEF2E
:2018FB00951BD0035027E51BC313F51BE51A13F51AE51913F519E51813F518900487F0E5A0
:20191B0019A3F0E51AA3F0E51BA3F080090B90048FEBF00218A590048FE0FF90048BE0FB8E
:20193B00A3E0FCA3E0FDA3E0FE900487E0F518A3E0F519A3E0F51AA3E0F51BC3EB9518EC07
:20195B009519ED951AEE951B401790048BEBC39518F0EC9519A3F0ED951AA3F0EE951BA326
:20197B00F0900487E0FBA3E0FCA3E0FDA3E0C313FEED13FDEC13FCEB13900487F0ECA3F090
:20199B00EDA3F0EEA3F08F061FEE708F90048BE0FCA3E0FDA3E0FEA3E08C828D838EF0224D
:2019BB00AF82AE83ADF0FC900494EFF0EEA3F0EDA3F0ECA3F0900498E4F0A3F0A3F0A3F0D1
:2019DB00900490E0FCA3E0FDA3E0FEA3E0FF7B20C003900494E0F8A3E0F9A3E0FAA3E0FB94
:2019FB0090049C235401F0E828F8E933F9EA33FAEB33FB900494E8F0E9A3F0EAA3F0EBA360
:201A1B00F0900498E0F8A3E0F9A3E0FAA3E0FBE828F8E933F9EA33FAEB33FB900498E8F0EF
:201A3B00E9A3F0EAA3F0EBA3F0D00390049CE06008900498E043E001F0900498E0F518A3ED
:201A5B00E0F519A3E0F51AA3E0F51BC3E5189CE5199DE51A9EE51B9F401F900498E518C3DA
:201A7B009CF0E5199DA3F0E51A9EA3F0E51B9FA3F0900494E043E001F01BEB60030219EBA4
:141A9B00900494E0FCA3E0FDA3E0FEA3E08C828D838EF022F1
:1B1AAF0020F71130F6138883A88220F509F6A8837583002280FEF280F5F02236
:00000001FF
