:10006D000000000000000000000022D292D2930098
:10007D00000000000000000000C293C29222C29353
:10008D00D29200000000000000000000D293C29246
:10009D0022C292C293D29200000000000000000024
:1000AD0000C292D293000000000000000000002268
:1000BD00C293D29200000000000000000000C29226
:1000CD00D29300000000000000000000227F007DA0
:1000DD00077E00EE20E72BD292A293E433FC8D0332
:1000ED008BF005F0EC800225E0D5F0FBFC4207C259
:1000FD0092000000000000000000001DBDFF011E69
:10010D0080D18F8222AF827D077E00EE20E728C24C
:10011D00928DF005F0EF8002C313D5F0FB5401FC76
:10012D0024FF9293D2920000000000000000000016
:10013D001DBDFF011E80D4C2920000000000000012
:10014D000000002093FDD29200000000000000008E
:10015D000000C29222AF82C00712028CD007C29457
:10016D00C295900030E0FDA3E0FE7C008D828E8371
:10017D00EFF0ECA3F022C294D29512028CD294D25D
:10018D0095900030E0FEA3E0FF8E828F83E0FEA30A
:10019D00E08E8222AD82AE83AFF0C294D2959000F4
:1001AD0030E0FBA3E0FC8B828C83E0FBA3E08D822F
:1001BD008E838FF0EB12385902028CAF82D294C22B
:1001CD0095900030E0FDA3E0FE7C008D828E83EFE4
:1001DD00F0ECA3F002028CAF82C294C29590003075
:1001ED00E0FDA3E0FE7C008D828E83EFF0ECA3F0AA
:1001FD0002028CC294C295900030E0FEA3E0FF7C19
:10020D00307D008E828F83ECF0EDA3F012028CC254
:10021D0094C295900030E0FEA3E0FF7C387D008E07
:10022D00828F83ECF0EDA3F012028CC294C29590F4
:10023D000030E0FEA3E0FF7C0F7D008E828F83EC0B
:10024D00F0EDA3F012028CC294C295900030E0FE46
:10025D00A3E0FF7C017D008E828F83ECF0EDA3F097
:10026D0012028CC294C295900030E0FEA3E0FF7C98
:10027D00807D008E828F83ECF0EDA3F002028CC2A4
:10028D0094D295900030E0FEA3E0FF8E828F83E044
:10029D00FEA3E0EE20E7EC22AF82430780C294C2BA
:1002AD0095900030E0FDA3E0FE7C008D828E83EF03
:1002BD00F0ECA3F002028CC008858108E582FF24D2
:1002CD00FC404BEF2F9002D67380068010801F806C
:1002DD002EE50824FDF886821202A58031E508245A
:1002ED00FDF8860774402FF5821202A58020E508DF
:1002FD0024FDF8860774102FF5821202A5800FE5F4
:10030D000824FDF8860774502FF5821202A5D00837
:10031D0022AF82D294C295900030E0FDA3E0FE7C26
:10032D00008D828E83EFF0ECA3F002028CAD82AED5
:10033D0083AFF08D828E838FF0123AA5700122C0AB
:10034D0007C006C00512041FAC82D005D006D00729
:10035D00BC0F028012BC1F028052BC4F02802BBC0E
:10036D005F02806A0203FD8D828E838FF0123AA5A3
:10037D00F582C007C006C00512031E758240120229
:10038D00A5D005D006D0070204178D828E838FF07D
:10039D00123AA5F582C007C006C00512031E75826C
:1003AD00101202A5D005D006D007805E8D828E83F7
:1003BD008FF0123AA5F582C007C006C00512031EC4
:1003CD0075821F1202A5D005D006D007803C8D8204
:1003DD008E838FF0123AA5F582C007C006C00512B4
:1003ED00031E7582001202A5D005D006D007801A13
:1003FD008D828E838FF0123AA5F582C007C006C09C
:10040D000512031ED005D006D0070DBD00010E024A
:10041D000340C0088581080581AF080F7E007D402F
:10042D00C294D295900030E0FBA3E0FC8B828C83CC
:10043D00E0FBA3E08F828E838DF0EB123859120210
:10044D008CA8080886821581D00822C294C2959086
:10045D000030E0FEA3E0FF7C017D008E828F83ECF7
:10046D00F0EDA3F002028CC008858108AF827E00FA
:10047D008F05530507EDC40354F8FD43054074077C
:10048D005EFCED42048C82C007C006120162D006EC
:10049D00E50824FBF8EE26FBE40836FC0886058B00
:1004AD00828C838DF0123AA5FB53031FD294C29513
:1004BD00900030E0FCA3E0FD7A008C828D83EBF0A0
:1004CD00EAA3F0C00612028CD006D0070EBE0800BB
:1004DD00409ED00822C008858108AF82E50824FD22
:1004ED00F8860653067F4306808E82C0071201628E
:1004FD00D007D294C295900030E0FDA3E0FE7C00C1
:0F050D008D828E83EFF0ECA3F012028CD00822C7
:023F910000F03E
:0400000002001132B7
:03000B000236C4F6
:03006A0002000E83
:03000E000207A145
:10051C00438E0C538EEF1231A990000022AD82AEA7
:10052C0083AFF07B007C00C3EB9440EC6480948040
:10053C0040012274012BF9E43CC4C9C4540F69C9AD
:10054C00540FC969C930E30244F0497023C007C095
:10055C0006C005C004C0037445C0E0743EC0E01280
:10056C00387415811581D003D004D005D006D0077E
:10057C00EB2DF8EC3EF98F02888289838AF0123ACF
:10058C00A5F87A00C007C006C005C004C003C000AF
:10059C00C0027448C0E0743EC0E0123874E5812497
:1005AC00FCF581D003D004D005D006D0070BBB00DE
:1005BC00010C020533C008E581F508246DF581E5D1
:1005CC0008241DFFFC7D007E40C007744CC0E07405
:1005DC003EC0E07480C0E08C828D838EF0122B2C98
:1005EC00AE82158115811581D007EE600302079B41
:1005FC00E508242EFEE5082405FDA80808A6078EAC
:10060C0004C004A8080808A605087600087640A8C7
:10061C00080886037C007F40C006C005C004A808FB
:10062C000808E6C0E008E6C0E008E6C0E08B828C73
:10063C00838FF0122C3DAF82158115811581D0046A
:10064C00D005D006D004EF700774092DF9E77012AD
:10065C00744EC0E0743EC0E01238741581158102EE
:10066C00079BC00474092DFFFA7B007C40C007C0B7
:10067C0006C005C004C002C003C0047464C0E074AA
:10068C003EC0E0123874E58124FBF581D004D0051E
:10069C00D006D0078F047B007A408C828B838AF043
:1006AC00C007C006C005122448AC82D005D006D0C5
:1006BC0007ECD00460208F037F007E40C003C0078E
:1006CC00C006747BC0E0743EC0E0123874E581242F
:1006DC00FBF58102079BC004E508241BFBA8080856
:1006EC0008A6030876000876408E027B007C40C08A
:1006FC0007C006C005A8080808E6C0E008E6C0E088
:10070C0008E6C0E0ECC0E0E4C0E08A828B838CF0A9
:10071C001225F4AC82E58124FBF581D005D006D0FE
:10072C0007ECD0046032C0048F038B027B007C404A
:10073C00C006C005C004C002C003C0047496C0E06B
:10074C00743EC0E0123874E58124FBF581D004D0EE
:10075C0005D006D00402060DC0068C027B007E403C
:10076C008A828B838EF0C007C006C005C0041205B8
:10077C0029D004D005D006D007E508241BF8B640D4
:10078C000908B60005D0060206E2D00602060D8561
:10079C000881D00822123392120200123350120830
:1007AC006E9000001208AB90000175F000121E94C0
:1007BC00E582601174B1C0E0743EC0E0123874156B
:1007CC0081158180FE74CBC0E0743EC0E012387499
:1007DC001581158112097CE58230E063122D29AE5A
:1007EC0082AF83BE0005BF00028010BE0105BF00B2
:1007FC00028019BE0238BF0035802274DDC0E0745F
:10080C003EC0E012387415811581803174F5C0E05A
:10081C00743EC0E0123874158115818020741EC09E
:10082C00E0743FC0E012387415811581800F744557
:10083C00C0E0743FC0E01238741581158180FE74DD
:10084C0062C0E0743FC0E012387415811581747871
:10085C00C0E0743FC0E0123874158115811205C1D7
:02086C0080FE0C
:103E45000D0A00257820002F004E6F206D6F7265DA
:103E55002066696C657320666F756E640D0A007265
:103E6500656164696E672066696C65202F2573201E
:103E75002E2E2E0D0A004572726F723A2066616908
:103E85006C656420746F206F70656E2025730D0A54
:103E9500004572726F723A206661696C65642074C0
:103EA5006F20726561642025730D0A00436F756C80
:103EB500646E2774206D6F756E7420647269766503
:103EC5002E2E2E0D0A0053442063617264206D6FFF
:103ED500756E7465640D0A00436F756C646E2774A6
:103EE5002066696E6420534420636172640D0A0084
:103EF500436172642074797065206973204D4D4368
:103F0500202D2043616E27742075736520746869C0
:103F15007320747970650D0A00436F756C646E27A4
:103F25007420696E697469616C697A6520534420EF
:103F3500436172642064726976652E2E2E0D0A0027
:103F4500556E6B6E6F776E20436172642054797085
:103F550065206572726F722E2E2E0D0A0053442055
:103F65006361726420696E697469616C697A6564FC
:103F75000D0A0046696E697368656420726561643F
:0C3F8500696E672066696C65730D0A00A8
:10086E0012007875820012011275820612011202B0
:10087E00008BAE82AF838F0553050FC007C006C035
:10088E00051200787582C0120112D0058D821201F8
:10089E0012D006D0078E8212011202008BAE82AFEA
:1008AE0083C007C0061200787582C01201127582CD
:1008BE0060120112D006D0078E04EFC4CCC4540FC0
:1008CE006CCC540FCC6CCC8C82C007C006120112BB
:1008DE00D006D00753060FEEC454F0F58212011263
:1008EE0002008BC008858108C082C083C0F0E50875
:1008FE0024FCF8C3E6940408E69400500590000129
:10090E0080661200787582C11201127B007C008B0A
:10091E00028C07E50824FCF8C3EA96EF08965042CD
:10092E00A80808EB26FAEC0836FE088607C007C0B2
:10093E0006C004C003C0021200DAAD82D002D0039A
:10094E00D004D006D0078A828E838FF0ED123859EC
:10095E00C004C00312009ED003D0040BBB00B00C29
:10096E0080AD12008B900000850881D00822122DD8
:10097E0035E5828583F045F07008900032E053E053
:10098E00FEF0900032E0F58222C008858108C08218
:10099E00C083C0F0E50824F6F8B6000608B60202D9
:1009AE0080057582038051900032E030E00575823B
:1009BE00028045E50824F8F88603088604E5082435
:1009CE00FAF88602088607EB2AFAEC3FFFA8080819
:1009DE00E6C0E008E6C0E008E6C0E08A828F831237
:1009EE002EDAAE82AF83158115811581EE4F60052B
:1009FE007582018003758200850881D00822C008A7
:100A0E00858108AD82AE83AFF0900032E030E00514
:100A1E00758202802DE50824FAF88603088604C044
:100A2E0005C006C0078B828C83122FA0AE82AF83C7
:100A3E00158115811581EE4F600575820180037554
:050A4E008200D0082227
:013F9300012C
:100A5300AD82AE83AFF074012DFAE43EFB8F048ABE
:100A6300828B838CF0123AA5FC7A008D828E838F61
:100A7300F0123AA57F004202EF42048A828C83225D
:100A8300C008858108C082C083C0F0E5812404F5D5
:100A930081A80808740326FAE40836FB0886048A4A
:100AA300828B838CF0123AA5FAE4FBFCE50824045C
:100AB300F8080808A60418A60318A602187600A8C2
:100AC3000808740226FDE40836FE0886078D828E28
:100AD300838FF0123AA5FDE4FFFEFCE5082404F839
:100AE300E6420508E6420708E6420608E64204E550
:100AF300082404F8080808A60618A60718A6051867
:100B03007600A80808740126FAE40836FB0886076D
:100B13008A828B838FF0123AA5FAE4FFFEFDE50883
:100B23002404F8E6420208E6420708E6420608E61D
:100B33004205E5082404F8080808A60618A60718BD
:100B4300A602187600A8080886820886830886F01D
:100B5300123AA5FBE4FCFEFFE5082404F8E6420391
:100B630008E6420408E6420608E642078B828C83C5
:100B73008EF0EF850881D00822C0088581080581A1
:100B83000581AD82AE83AFF0E50824FAF8A9080920
:100B9300E6F708E609F7A808088602088604A80805
:100BA3000816B6FF020816EA4C6018E50824FCF89C
:100BB30086048D828E838FF0EC123859A3AD82AEFA
:100BC3008380D3850881D00822C008E581F50824F5
:100BD30009F581AD82AE83AFF0E50824FBF8E508A3
:100BE3002407F9E6F708E609F708E609F7E5082414
:100BF30005F8E4F608F6E50824F9F8A90809E6F784
:100C030008E609F7A808088603088604A808081652
:100C1300B6FF020816EB4C604F8D828E838FF01265
:100C23003AA5FCA3AD82AE83E5082403F8A6040825
:100C33007600E5082407F886820886830886F01282
:100C43003AA5FAA31818A68208A6837C00E508240F
:100C530003F8E6C39AFA08E69CFCE5082405F8A61F
:100C63000208A604EA4C609CE5082405F88682087D
:100C73008683850881D00822C008858108C082C088
:100C830083C0F0C0E0E581240DF58190002BE0FFE7
:100C9300A3E0FEA3E0FDE508240FF8A60708A606D7
:100CA30008A605A80808C3E6940208E6940008E627
:100CB300940008E69400403AE508240FF8740626E9
:100CC300FAE40836FB0886078A828B838FF0123A90
:100CD300A5FAA3123AA5FBA3123AA5FFA3123AA5BC
:100CE300FEA80808C3E69A08E69B08E69F08E69E66
:100CF3004009900001E4F5F0020E0DE508240FF819
:100D030086820886830886F0123AA5FFBF03028015
:100D130003020E07A8080886040853047F7D00E534
:100D2300082409F8EC2CF6ED3308F618E626F60845
:100D3300E633F6E508240FF8740A26FBE40836FECA
:100D43000886078B828E838FF0E5082405F8123A14
:100D5300A5F6A3123AA508F6A3123AA508F6A3121C
:100D63003AA508F6A80808860408E6A2E7CC33CC1F
:100D730033CC5401FD08E6264DFD860608E6A2E7BE
:100D8300CE33CE33CE5401FFE5082405F8EC26F626
:100D9300ED0836F6EE0836F6EF0836F6E508240BCE
:100DA300FBFA7E007F40C0037404C0E0E4C0E0E5CA
:100DB300082409F8E6C0E008E6C0E0E5082405F8E1
:100DC300E6C0E008E6C0E008E6C0E008E6C0E08A66
:100DD300828E838FF0120997AF82E58124F8F58123
:100DE300D003EF701FFF7E408B828F838EF0120A39
:100DF30083AC82AD83AEF0FF53070F8C828D838E5D
:100E0300F0EF8006900001E4F5F0850881D0082218
:100E1300C008858108C8E581240BF581E508240510
:100E2300C8A68208A68308A6F008F690002BE0FA6D
:100E3300A3E0FBA3E0FFE5082409F8A60208A60344
:100E430008A607E5082405F8A90809E624FEF7081B
:100E5300E634FF09F708E634FF09F708E634FF092B
:100E6300F7E5082409F8740626FAE40836FB088631
:100E7300048A828B838CF0123AA5FAA3123AA5FB5B
:100E8300A3123AA5FCA3123AA5FFEA24FEFAEB3417
:100E9300FFFBEC34FFFCEF34FFFFA80808C3E69A1E
:100EA30008E69B08E69C08E69F4009900000E4F5ED
:100EB300F0020F48E5082409F8740226FDE4083619
:100EC300FE0886078D828E838FF0123AA5FD7F0080
:100ED3007E007C00C005C007C006C004A8080886C1
:100EE300820886830886F008E6123B2FC8E50824AB
:100EF30005C8A68208A68308A6F008F6E58124FCA7
:100F0300F581E5082409F8741226FAE40836FB088B
:100F130086078A828B838FF0123AA5FAA3123AA529
:100F2300FBA3123AA5FFA3123AA5FEE5082405F890
:100F3300EA26FAEB0836FBEF0836FFEE0836FE8AA0
:100F4300828B838FF0850881D00822C008858108B1
:100F5300C082C083C0F0E5812404F581A808087429
:100F63001426FAE40836FB0886048A828B838CF005
:100F7300120A53AB82AC838C02E4E5082404F8081C
:100F83000808A60218A60318187600087600A80811
:100F930008741A26FDE40836FE0886078D828E83C0
:100FA3008FF0120A53AE82AF83E4FDFCE5082404FC
:100FB300F8E6420608E6420708E6420508E6420468
:100FC3008E828F838DF0EC850881D00822C008853E
:100FD3008108C082C083C0F0E581240AF5819000B6
:100FE3002BE0FAA3E0FBA3E0FCE508240BF8A60240
:100FF30008A60308A604A80808868208868308862C
:10100300F0E4123859A3123859A80808740526FACF
:10101300E40836FB0886048A828B838CF0E5082477
:1010230007F8123AA5F6A3123AA508F6A3123AA5B1
:1010330008F6A3123AA508F6E5082407F8B6010E48
:1010430008B6000A08B6000608B60002803CE508A8
:10105300240BF8740626FDE40836FE0886078D8205
:101063008E838FF0123AA5FDA3123AA5FEA3123A7E
:10107300A5FFA3123AA5FCE5082407F8C3E69D08DB
:10108300E69E08E69F08E69C40067582010211521F
:10109300E5082407F8E60846084608467031E508DF
:1010A300240BF8740E26FDE40836FE0886078D82AD
:1010B3008E838FF0E5082407F8123AA5F6A3123AB7
:1010C300A508F6A3123AA508F6A3123AA508F6A8AE
:1010D3000808740926FDE40836FE0886078D828E0B
:1010E300838FF0E5082407F8E6123859A308E612BF
:1010F3003859A308E6123859A308E6123859A80844
:1011030008E5082404F9740D26F7E4083609F708FE
:10111300E609F7E5082407F886820886830886F03F
:1011230008E6120E13AA82AB83ACF0FFE508240491
:10113300F886820886830886F0EA123859A3EB12F0
:101143003859A3EC123859A3EF1238597582008528
:101153000881D00822C008858108C082C083C0F0FE
:10116300E5812413F58190002BE0FAA3E0FBA3E0D3
:10117300FCE5082414F8A60208A60308A604A80898
:101183000886820886830886F0123AA5FBA3123AE2
:10119300A5FC0BBB00010CE508240EF8A60308A66A
:1011A30004E508240EF8E60846603BA80808E508AD
:1011B3002404F9740D26F7E4083609F708E609F75D
:1011C300E5082404F886820886830886F0123AA587
:1011D300FEA3123AA5FDA3123AA5FCA3123AA5FF5A
:1011E300EE4D4C4F70067582030213EDE508240E95
:1011F300F88603088602EB540F60030213D00EBE79
:1012030000090DBD00050CBC00010FE5082404F81E
:1012130086820886830886F0EE123859A3ED1238C9
:1012230059A3EC123859A3EF123859A80808E50856
:101233002407F9740926F7E4083609F708E609F7DD
:10124300E5082407F886820886830886F0E50824E3
:101253000AF9123AA5F7A3123AA509F7A3123AA578
:1012630009F7A3123AA509F7E508240AF8E60846A0
:10127300084608467035E5082414F8740426FAE491
:101283000836FB0886048A828B838CF0123AA5FA0F
:10129300A3123AA5FBE508240EF8C3E69A08E69BD9
:1012A30050030213D07582030213EDEAC4CBC45476
:1012B3000F6BCB540FCB6BCBFCE5082414F87402F3
:1012C30026FAE40836FE0886078A828E838FF01298
:1012D3003AA5FA7F001ABAFF011FEA5203EF52043C
:1012E300EB4C60030213D0E508240AF886820886D3
:1012F300830886F008E6120C7BAD82AE83ACF0FF68
:10130300E5082410F8A60508A60608A60408A607FB
:10131300E5082410F8C3740196E40896E40896E4FB
:10132300089640067582010213EDE5082414F8744B
:101333000626FDE40836FE0886078D828E838FF02D
:10134300123AA5FDA3123AA5FEA3123AA5FFA312D2
:101353003AA5FCE5082410F8C3E69D08E69E08E6D6
:101363009F08E69C40067582030213EDE5082407F7
:10137300F886820886830886F0E5082410F9E712C8
:101383003859A309E7123859A309E7123859A309B1
:10139300E7123859E5082410F88682088683088600
:1013A300F008E6120E13AE82AD83ACF0FFE508241D
:1013B30004F886820886830886F0EE123859A3ED76
:1013C300123859A3EC123859A3EF123859A8080858
:1013D30086820886830886F0E508240EF9E712382A
:1013E30059A309E7123859758200850881D008226C
:1013F300C008858108C082C083C0F0E5812406F55A
:1014030081A8080886820886830886F0120FD0E533
:1014130082FC60058C820215C0A80808740226FAB3
:10142300E40836FB088604A80808E5082404F974D0
:101433000D26F7E4083609F708E609F7C002C003EA
:10144300C004A8080886820886830886F0123AA595
:10145300FBA3123AA553030FE4C42354E0CBC423E4
:10146300CB6BCB54E0CB6BFCE5082404F8868208F5
:1014730086830886F0123AA5FAA3123AA5FDA312B1
:101483003AA5FEA3123AA5FFC004C003C00274200C
:10149300C0E0E4C0E0C003C004C002C005C006C091
:1014A30007E50824FBF886820886830886F012097C
:1014B30097AF82E58124F8F581D002D003D004D020
:1014C30004D003D002EF60067E017F0080047E001B
:1014D3007F00EE60030215BEE50824FBF8E508244F
:1014E30007F9E6F708E609F708E609F7E508240728
:1014F300F886820886830886F0123AA570057E0373
:101503000215BEC002C003C004E5082407F8740B2B
:1015130026FCE40836FD0886078C828D838FF01243
:101523003AA5D004D003D00220E36CC0068A828B94
:10153300838CF0123AA5FDA3123AA5FEA3123AA595
:10154300FFE5082407F8A60508A60608A607E50888
:1015530024FBF88605088606088607C004C003C076
:1015630002740BC0E0E4C0E0E5082407F8E6C0E03D
:1015730008E6C0E008E6C0E08D828E838FF0120B90
:10158300CCAE82AF83E58124FBF581D002D003D0BA
:1015930004EE4FD0066024A80808868208868308D4
:1015A30086F0C004C003C002121158AF82D002D02B
:1015B30003D0048F06EE700302143F8E82850881E8
:1015C300D00822C008858108C082C083C0F0E581AD
:1015D3002405F581E5082408F87603A80808740DA6
:1015E30026FAE40836FB0886048A828B838CF0E5AE
:1015F300082404F8123AA5F6A3123AA508F6A31292
:101603003AA508F6A3123AA508F6E5082404F8E675
:10161300084608460846700302174AC002C003C0C2
:1016230004A8080886820886830886F0123AA5FB78
:10163300A3123AA553030FE4C42354E0CBC423CB32
:101643006BCB54E0CB6BFCC003C0027420C0E0E45E
:10165300C0E0C003C004E5082404F8E6C0E008E6DF
:10166300C0E008E6C0E008E6C0E0E50824FBF88631
:10167300820886830886F0120997AC82E58124F8F4
:10168300F581D002D003ECD004D003D00260067FF2
:10169300017E0080047F007E00E5082408F8A60789
:1016A300E5082408F8E6600302174AE50824FBF876
:1016B300E5082404F9E6F708E609F708E609F7E57B
:1016C300082404F886820886830886F0123AA5FF68
:1016D3007009E5082408F87603806CC002C003C0D3
:1016E30004E5082404F8740B26FCE40836FD088698
:1016F300068C828D838EF0123AA5FC743F5CFEBF8C
:10170300E508D004D003D002800FD004D003D00268
:10171300BF2E028004EE30E32EA8080886820886D6
:10172300830886F0C004C003C002121158AF82D0F0
:1017330002D003D004E5082408F8A607E508240826
:10174300F8E670030215ECE5082408F8E66024A81F
:101753000808740D26FDE40836FE0886078D828E80
:10176300838FF0E4123859A3123859A3123859A3BE
:10177300123859E5082408F88682850881D00822A2
:10178300C008E581F5082409F581AD82AE83AFF089
:1017930074022DFDE43EFE8D828E838FF0E50824D6
:1017A30004F8123AA5F6A3123AA508F6A3123AA52D
:1017B30008F6E5082404F8860208860308860474FC
:1017C3000BC0E0E4C0E07420C0E0E4C0E08A828B98
:1017D300838CF0120B7CE58124FCF581E50824035E
:1017E300F87600A80808087608E50824FBF88602BE
:1017F3000886060886078A828E838FF0E508240709
:10180300F8123AA5F6A3123AA508F6A3123AA508C8
:10181300F67D00C002C006C007E5082407F8ED26E0
:10182300FBE40836FC0886070D8B828C838FF0A8B7
:101833000808123AA5F6A80808E624DF9200D007A4
:10184300D006D0022000030218BFA80808B62F0252
:10185300806AA80808B62E02800EE5082403F8A9BA
:10186300080909C3E697401CA8080808B6084DA84C
:101873000808B62E47E5082403F87608A8080808E0
:10188300760B808FC002C006C007E5082403F886E4
:1018930004E5082403F806E5082404F8EC26FBE431
:1018A3000836FC0886078B828C838FF0A80808E62D
:1018B300123859D007D006D002021816E5082407BB
:1018C300F8ED26FDE40836FC0886038A828E838FB2
:1018D300F0ED123859A3EC123859A3EB123859E53D
:1018E300082404F8740B26FDE40836FE0886072056
:1018F30000067B017C0080047B007C008D828E834C
:101903008FF0EB123859758200850881D00822C008
:1019130008E581F5082406F581AF82AD83AEF0E5D5
:101923000824F8F8E5082404F9E6F708E609F708B7
:10193300E609F7E5082404F8A90809740926F7E479
:10194300083609F708E609F7740D2FFFE43DFD8F0C
:10195300828D838EF0123AA5FCA3123AA5FDA31241
:101963003AA5FEA3123AA5FFEC4D4E4F7003021B9E
:1019730059A8080886050886060886077C00C0055E
:10198300C006C007E50824FBF8EC26FAE40836FB9A
:101993000886078A828B838FF0123AA5FBBB200847
:1019A300D007D006D0058020D007D006D005BB05D0
:1019B300027BE58D828E838FF0EB123859A3AD82C3
:1019C300AE830CBC080040B6A80808A60508A60606
:1019D30008A607E50824FBF8740826FAE40836FB92
:1019E3000886048A828B838CF0123AA5FABA200205
:1019F30080628D828E838FF0742E1238590DBD0054
:101A0300010E7C08C005C006C007E50824FBF8ECFE
:101A130026FAE40836FB0886078A828B838FF01246
:101A23003AA5FBBB2008D007D006D005801BD00702
:101A3300D006D0058D828E838FF0EB123859A3AD7B
:101A430082AE830CBC0B0040BBA80808A60508A601
:101A53000608A607E5082404F8740826FDE40836FA
:101A6300FE088607E50824FBF8740B26FAE408361B
:101A7300FB0886048A828B838CF0123AA58D828EB2
:101A8300838FF0123859E50824FBF8741C26FDE413
:101A93000836FE0886078D828E838FF0120A83AE86
:101AA30082AD83ACF0FFE5082404F88682088683C0
:101AB3000886F0EE123859A3ED123859A3EC123808
:101AC30059A3EF123859E5082404F8740426FDE4F9
:101AD3000836FE088607E50824FBF8741826FAE49E
:101AE3000836FB0886048A828B838CF0C007C00605
:101AF300C005120A53AB82AC83D005D006D0078D44
:101B0300828E838FF0EB123859A3EC123859E50813
:101B13002404F8740626FDE40836FE088607E50863
:101B230024FBF8741626FAE40836FB0886048A8236
:101B33008B838CF0C007C006C005120A53AB82AC7E
:101B430083D005D006D0078D828E838FF0EB1238B9
:101B530059A3EC123859A808088682088683088698
:101B6300F0E4123859850881D00822C0088581081D
:101B7300C082C083C0F0E5812407F581E50824F81D
:101B8300F886020886030886048A828B838CF01207
:101B93003AA5FFBF20140ABA00010BE50824F8F8A0
:101BA300A60208A60308A60480DFE50824F8F8A621
:101BB3000208A60308A604BF2F10E50824F8F8744A
:101BC300012AF6E43B08F608A604A80808740526CB
:101BD300FAE40836FB0886048A828B838CF0E412CD
:101BE3003859A3123859A3123859A3123859E508A2
:101BF30024F8F886020886030886048A828B838C7D
:101C0300F0123AA5FABA20005031A80808868208D3
:101C130086830886F0120FD0AC82E508240AF8A662
:101C230004E50824FBF886020886030886048A82F2
:101C33008B838CF0E4123859021DAEA80808740295
:101C430026FAE40836FB088604E50824FBF8E508D1
:101C53002404F9740B26F7E4083609F708E609F7B4
:101C6300C002C003C004E50824F8FC7B007A40C02E
:101C730003C002C004C003C002A808088682088605
:101C8300830886F0121783AC82158115811581D0E4
:101C930002D003E508240AF8A604E508240AF8E6B6
:101CA300D004D003D0026003021DAEC002C003C043
:101CB30004C003C002E50824FBF8E6C0E008E6C060
:101CC300E008E6C0E0A8080886820886830886F054
:101CD3001213F3AC82158115811581D002D003E56F
:101CE30008240AF8A604E508240AF8E6D004D00379
:101CF300D0026003021DAE8A828B838CF0123AA558
:101D0300FDA3123AA5FEA3123AA5FF740B2DFDE421
:101D13003EFE8D828E838FF0123AA56003021DAEC4
:101D2300C002C003C004E5082404F8868208868341
:101D33000886F0123AA5D004D003D00220E409E5C6
:101D430008240AF876038063C002C003C004A8080D
:101D530008E5082407F9740526F7E4083609F708A7
:101D6300E609F7E50824FBF886820886830886F0EF
:101D7300C003C002120F4EAE82AD83ACF0FFD0029F
:101D8300D003E5082407F886820886830886F0EEE8
:101D9300123859A3ED123859A3EC123859A3EF1294
:101DA3003859D004D003D002021C63E508240AF892
:101DB3008682850881D00822C008858108AD82AE5D
:101DC30083AFF0C007C006C0057402C0E0E4C0E002
:101DD30074FEC0E0F4C0E0E50824FAF8E6C0E008C9
:101DE300E6C0E008E6C0E008E6C0E08D828E838F9F
:101DF300F0120997AC82E58124F8F581D005D0066D
:101E0300D007EC6006758203021E918D828E838F4C
:101E1300F0C007C006C005120A53AB82AC83D005DD
:101E2300D006D007BB5505BCAA0280057582028087
:101E33005DC007C006C0057402C0E0E4C0E0745290
:101E4300C0E0E4C0E0E50824FAF8E6C0E008E6C034
:101E5300E008E6C0E008E6C0E08D828E838FF012D2
:101E63000997AC82E58124F8F581D005D006D00727
:101E7300EC70188D828E838FF0120A53AE82AF837B
:101E8300BE4608BF41057582008003758201D008F4
:101E930022C008858108C082C083C0F0E581243F49
:101EA300F58190002BE4F0A3F0A3F012097CE58206
:101EB30030E006758202022442E508243BF8E4F68A
:101EC30008F608F608F6E5082417F9FA7B007C40C3
:101ED300C001E4C0E0C0E0C0E0C0E08A828B838C34
:101EE300F0121DBBAC82E58124FCF581D001BC015D
:101EF300028003021F9BC00489038B027B007C408A
:101F0300C0017410C0E0E4C0E074BEC0E07401C05E
:101F1300E0E4C0E0C0E0C0E0C0E08A828B838CF0E4
:101F2300120997AC82E58124F8F581D001ECD00445
:101F330060047C038062740429F8E6605B740829FA
:101F4300FA7B007F408A828B838FF0C001120A8361
:101F5300AB82AD83AEF0FFD001E508243BF8A603C6
:101F630008A60508A60608A60789077E007D40C0C7
:101F730001E508243BF8E6C0E008E6C0E008E6C057
:101F8300E008E6C0E08F828E838DF0121DBBAC8229
:101F9300E58124FCF581D001BC030675820102248E
:101FA30042EC600675820602244289047B007A4073
:101FB300C0017424C0E0E4C0E0740DC0E0E4C0E0FC
:101FC300E508243BF8E6C0E008E6C0E008E6C0E028
:101FD30008E6C0E08C828B838AF0120997AC82E515
:101FE3008124F8F581D001EC600675820102244258
:101FF300740929FC7B007A408C828B838AF0C001B0
:10200300120A53AB82AC83D001E5082405F8A6037A
:1020130008A604087600087600E5082405F8E60813
:1020230046084608467025741729FC7B007A408CC5
:10203300828B838AF0C001120A83C8E5082405C88D
:10204300A68208A68308A6F008F6D001740329F82F
:1020530086048C027B007C007F00C001C002C003A9
:10206300C004C007E5082405F8868208868308862D
:10207300F008E6123B2FAC82AD83AEF0FFE581247E
:10208300FCF581E5082413F8A60408A60508A606AE
:1020930008A607A80808E5082405F9740A26F7E442
:1020A300083609F708E609F7D001E5082404F8E93A
:1020B30004F6E5082404F886027E007F408A828EB7
:1020C300838FF0C001120A53AE82AF83E4FDFCE5B7
:1020D30008243BF8EE26FEEF0836FFED0836FDEC4C
:1020E3000836FCE5082405F886820886830886F00E
:1020F300EE123859A3EF123859A3ED123859A3EC55
:10210300123859A80808E508240CF9740226F7E4E4
:10211300083609F708E609F7D0018704E508240C17
:10212300F886820886830886F0EC123859A80808D6
:10213300C001E5082409F9740426F7E4083609F711
:1021430008E609F7D001740429FA7B007C408A82EF
:102153008B838CF0C001120A53AB82AC83D001E5B0
:10216300082409F886820886830886F0EB1238591A
:10217300A3EC123859740629FC7B007A408C828BBD
:10218300838AF0C001120A53AB82AC83D0018C0264
:10219300E4FCFFE508240FF8A60308A60208A6043A
:1021A30008A607EB4A4C4F702C741329FF7E007D61
:1021B300408F828E838DF0C001120A83AC82AD837F
:1021C300AEF0FFD001E508240FF8A60408A6050821
:1021D300A60608A607C001E5082404F886077E00C2
:1021E3007D408F828E838DF0C001120A53AE82AF81
:1021F30083E4FDFCE508240FF8E6C39EFE08E69F92
:10220300FF08E69DFD08E69CFCE5082413F8E508B5
:10221300240FF9EEC396F7EF089609F7ED08960930
:10222300F7EC089609F7E5082409F88682088683FF
:102233000886F0123AA5FAA3123AA5C4CAC4540FE9
:102243006ACA540FCA6ACAFBE4FEFFE508240FF802
:10225300E6C39AF608E69BF608E69EF608E69FF6BE
:10226300E508240CF886820886830886F0123AA5CE
:10227300FC7D007E007F00C004C005C006C007E5EA
:1022830008240FF886820886830886F008E6123A47
:102293001BAC82AD83AEF0FFE58124FCF581D00158
:1022A300E508243FF874022CF6E43D08F6E43E0802
:1022B300F6E43F08F6A80808740626FAE40836FB95
:1022C3000886078A828B838FF0E508243FF8E6129D
:1022D3003859A308E6123859A308E6123859A30857
:1022E300E61238597F00E508243FF8C3E694F7085F
:1022F300E694FF08E6940008E69400D00140027FCC
:1023030003EF7006758206022442A8080886820835
:1023130086830886F0EF123859A80808C001E5083B
:10232300240FF9740E26F7E4083609F708E609F7CF
:10233300D001741F29FC7B007A408C828B838AF046
:10234300120A83AA82AB83ACF0FFE508240FF88658
:10235300820886830886F0EA123859A3EB123859AB
:10236300A3EC123859A3EF123859A80808E508243A
:102373000FF9741226F7E4083609F708E609F7E5BA
:10238300082405F886820886830886F0123AA5FA9F
:10239300A3123AA5FBA3123AA5FCA3123AA5FFE5A3
:1023A300082413F8E5082405F9E62AF708E63B09AB
:1023B300F708E63C09F708E63F09F7E5082409F8BA
:1023C30086820886830886F0123AA5FDA3123AA5F1
:1023D300C4CDC4540F6DCD540FCD6DCDFEE4FCFFC1
:1023E300E5082405F8ED26FDEE0836FEEC0836FC7C
:1023F300EF0836FFE508240FF886820886830886EF
:10240300F0ED123859A3EE123859A3EC123859A340
:10241300EF123859A80808740126FDE40836FE08AF
:1024230086078D828E838FF0E4123859A8080890AE
:10243300002BE6F008E6A3F008E6A3F0758200851A
:102443000881D00822C008858108C082C083C0F0FB
:10245300E5812443F58190002BE0FAA3E0FBA3E0A0
:10246300FCE5082444F8A60208A60308A604E50828
:102473002444F8E6084670067582050225EEE50851
:102483002444F8740126FDE40836FE0886078D828D
:102493008E838FF0E4123859E5082407FF2402F9EC
:1024A300E5082438FC7D007E40A70409A70509A799
:1024B30006E5082418F8FC7D007E407B007A40C0C6
:1024C30000A90809E7C0E009E7C0E009E7C0E0C0E8
:1024D30004C005C0068F828B838AF0121B6EAF8205
:1024E300E58124FAF581D000EFFE60058E82022596
:1024F300EEE66009740B28F9E7FF30E40675820302
:102503000225EEE5082444F9C000E5082404F87424
:102513001E27F6E4093708F609E708F6D000880411
:102523007B007A408C828B838AF0C000120F4EAA04
:1025330082AB83ACF0FFE5082404F9878209878323
:102543000987F0EA123859A3EB123859A3EC123871
:1025530059A3EF123859E5082444F9E5082404F88F
:10256300741A27F6E4093708F609E708F6D0007469
:102573001C28FC7B007A408C828B838AF0120A83AE
:10258300AA82AB83ACF0FFE5082404F886820886B0
:10259300830886F0EA123859A3EB123859A3EC12D8
:1025A3003859A3EF123859E5082444F8741626FD68
:1025B300E40836FE0886078D828E838FF0E4123896
:1025C30059A3123859A3123859A3123859E50824CC
:1025D30044F8740126FDE40836FE0886078D828ED2
:1025E300838FF07401123859758200850881D008F1
:1025F30022C008E581F508242AF581AD82AE83AFB8
:10260300F0E508241BF8A60508A60608A60790000F
:102613002BE0FAA3E0FBA3E0FCE5082424F8A602E0
:1026230008A60308A604E50824F9F8E508240EF92A
:10263300E6F708E609F708E609F7E508240EF88641
:10264300820886830886F0E4123859A3123859E5C4
:10265300082424F8E608467006758205022B26E551
:10266300082424F8A90809740126F7E4083609F7B1
:1026730008E609F7A8080886820886830886F01208
:102683003AA5FC20E006758204022B26E5082424E3
:10269300F8741A26FAE40836FB0886048A828B83C8
:1026A3008CF0E508240AF8123AA5F6A3123AA50815
:1026B300F6A3123AA508F6A3123AA508F6E50824EC
:1026C30024F8E5082407F9741626F7E4083609F711
:1026D30008E609F7E5082407F88682088683088652
:1026E300F0123AA5FCA3123AA5FDA3123AA5FEA344
:1026F300123AA5FFE508240AF8E6C39CFC08E69D08
:10270300FD08E69EFE08E69FFFE5082420F8A604E0
:1027130008A60508A60608A607E50824FCF886040B
:10272300088605E4FEFFE5082420F8C3E69C08E6D6
:102733009D08E69E08E69F5010E5082420F8E5086A
:1027430024FCF9E6F708E609F7E5082424F8E50888
:102753002415F9742226F7E4083609F708E609F781
:10276300E5082424F8E508240AF9741E26F7E4088A
:102773003609F708E609F7E5082424F8E5082404F0
:10278300F9740226F7E4083609F708E609F7E508BD
:102793002424F8E5082418F9742626F7E4083609F2
:1027A300F708E609F7E50824FCF8E6084670030293
:1027B3002B23E5082407F886820886830886F0E53C
:1027C300082411F9123AA5F7A3123AA509F7A3129F
:1027D3003AA509F7A3123AA509F7E5082411F8E683
:1027E300700508E630E003022982E5082411F808A1
:1027F3000808E67F00C313FC18E61318E613FAE58E
:10280300082404F886820886830886F0123AA5FE17
:102813001EEA5206EEFB60030228EAE5082411F8DB
:10282300E6084608460846702AE508240AF8868220
:102833000886830886F0E5082427F9123AA5F7A34A
:10284300123AA509F7A3123AA509F7A3123AA50963
:10285300F78043E5082415F886820886830886F006
:10286300123AA5FCA3123AA5FDA3123AA5FEA312A0
:102873003AA58C828D838EF0C003120C7BAC82ADA3
:1028830083AEF0FFD003E5082427F8A60408A605C5
:1028930008A60608A607E5082427F8C3740196E4EA
:1028A3000896E40896E408964015A8080886820866
:1028B30086830886F0E4123859758201022B26E5D7
:1028C300082415F886820886830886F0E5082427FD
:1028D300F9E7123859A309E7123859A309E712385F
:1028E30059A309E7123859E5082415F886820886A2
:1028F300830886F0123AA5FCA3123AA5FDA3123A67
:10290300A5FEA3123AA58C828D838EF0C003120E0E
:1029130013AC82AD83AEF0FFD003E5082411F8A613
:102923000408A60508A60608A607EC4D4E4F701529
:10293300A8080886820886830886F0E41238597549
:102943008201022B268B04E4FDFEFFE5082411F827
:10295300EC26FCED0836FDEE0836FEEF0836FFE503
:10296300082418F886820886830886F0EC12385902
:10297300A3ED123859A3EE123859A3EF123859E5D3
:10298300082407F886820886830886F0123AA5FE93
:10299300A3123AA5FF530701E508241EF8E4C39EDA
:1029A300F674029F08F6E508241EF8E50824FCF9EE
:1029B300C3E79609E708965010E50824FCF8E508F4
:1029C300241EF9E6F708E609F7E5082407F88682E6
:1029D3000886830886F0123AA5FCA3123AA5FD5394
:1029E3000501E5082418F886820886830886F01214
:1029F3003AA5FAA3123AA5FBA3123AA5FEA3123AEB
:102A0300A5FFE508241EF8E6C0E008E6C0E0C00420
:102A1300C005C002C003C006C007E508241BF88632
:102A2300820886830886F0120997AF82E58124F82D
:102A3300F581EF6015A8080886820886830886F06A
:102A4300E4123859758201022B26E5082407F8861B
:102A5300820886830886F0E5082411F9123AA5F75F
:102A6300A3123AA509F7A3123AA509F7A3123AA5A7
:102A730009F7E508241EF88602088603E4FEFFE54D
:102A8300082411F8EA26FAEB0836FBEE0836FEEFC7
:102A93000836FFE5082407F886820886830886F04F
:102AA300EA123859A3EB123859A3EE123859A3EF9F
:102AB300123859E50824FCF8E508241EF9E6C39703
:102AC300F608E60997F6E508240EF8868208868359
:102AD3000886F0123AA5FEA3123AA5FFE508241EC4
:102AE300F8E62EFE08E63FFFE508240EF886820886
:102AF30086830886F0EE123859A3EF123859E50899
:102B0300241BF8E6084670030227A8E508241BF8EF
:102B1300E508241EF9E726F609E70836F60227A892
:102B2300758200850881D00822C008858108C0828B
:102B3300C083C0F0E581242FF58190002BE0F5F0F0
:102B4300A3E045F070057C05022C35A80808740243
:102B530026FCE40836FB088602E5082407FD7E0010
:102B63007F408C828B838AF0ED123859A3EE1238A2
:102B730059A3EF123859E5082413F9FD7E007F406D
:102B8300C001E50824FBF8E6C0E008E6C0E008E67B
:102B9300C0E0C005C006C007A8080886820886836F
:102BA3000886F0121B6EAF82E58124FAF581D0010D
:102BB3008F04EC6003022C35E76062740B29F8E69E
:102BC300FF30E457C004A80808C001E5082404F94D
:102BD300740526F7E4083609F708E609F7D00189F2
:102BE300038B027B007C408A828B838CF0120F4E16
:102BF300AA82AB83ACF0FFE5082404F8868208863A
:102C0300830886F0EA123859A3EB123859A3EC1261
:102C13003859A3EF123859D00480027C03EC7012A8
:102C2300A8080886820886830886F0120FD0AF8230
:102C33008F048C82850881D00822C008858108C052
:102C430082C083C0F0E581242CF58190002BE0F550
:102C5300F0A3E045F070057C05022D21A808087457
:102C63000226FCE40836FB088602E5082404FD7E00
:102C7300007F408C828B838AF0ED123859A3EE12C9
:102C83003859A3EF123859E50824FBF8E6084670D3
:102C930015A8080886820886830886F0120FD0AF2D
:102CA300828F04022D21E5082410FFFB7D007E4066
:102CB300C007C003C005C006A8080886820886832B
:102CC3000886F01215C6AE82158115811581D007CD
:102CD3008E04BC03027C00EC7044FE7D40E50824B6
:102CE300FBF8E6C0E008E6C0E008E6C0E0C007C0C5
:102CF30006C005A8080886820886830886F012198C
:102D030012E58124FAF581A80808868208868308DB
:102D130086F0121158AF828F04BC03027C008C82B0
:102D2300850881D0082290002EE0FEA3E08E82F574
:102D330083221233497E007F007582FFC007C006DD
:102D4300123371D006D0070EBE00010FC3EE940AF2
:102D5300EF6480948040E212334690002EE4F0A3A7
:102D6300F07EE87F03758201C007C00612316AE472
:102D7300C0E0C0E0C0E0C0E07582001230DBE58156
:102D830024FCF581123082AD82D006D007BD01024A
:102D930080091EBEFF011FEE4F70CAEE4F700490F4
:102DA300000222E4C0E0C0E0C0E0C0E07582371258
:102DB30030DBE58124FCF581E4C0E0C0E0C0E0C085
:102DC300E07582291230DBE58124FCF58112308223
:102DD300E58224FE400B90002E7402F0E4A3F08001
:102DE3000990002E7401F0E4A3F07ED07F07758272
:102DF30001C007C00612316AD006D00790002EE04A
:102E0300FCA3E0FDBC0237BD0034C007C006E4C02C
:102E1300E0C0E0C0E0C0E07582371230DBE581241A
:102E2300FCF581E4C0E0C0E0C0E0C0E07582291297
:102E330030DBE58124FCF581D006D007801DC00777
:102E4300C006E4C0E0C0E0C0E0C0E075820112301B
:102E5300DBE58124FCF581D006D007C007C006124C
:102E63003082E582D006D007600C1EBEFF011FEE44
:102E73004F6003022DF1EE4F700490000222E4C074
:102E8300E0C0E0C0E0C0E075820D1230DBE58124D4
:102E9300FCF5811230B7E5828583F045F06004903C
:102EA300000122E4C0E07402C0E0E4C0E0C0E075C9
:102EB30082101230DBE58124FCF581123082E58239
:102EC300600B90002EE4F0A3F09000012212334C2B
:102ED30012334990000022C00885810805810581CD
:102EE300AE82AF83EE2ECF7E007D007C00C006C095
:102EF30007C005C0047582111230DBE58124FCF59F
:102F030081123082E5826006900001022F9A7EFFD3
:102F13007FFFC007C006123082AD82D006D007BD46
:102F2300FF091EBEFF011FEE4F70E7EE4F700590C5
:102F330000018063E50824FBF886050886060886F9
:102F430007A80808E4F608F67582FFC007C006C0A4
:102F530005123371AA82D005D006D0078D828E83E5
:102F63008FF0EA123859A3AD82AE83A8080806B6DB
:102F730000020806A8080808860474FF2C50C975C7
:102F830082FF1233717582FF1233711233497582D6
:102F9300FF123371900000850881D00822C0088594
:102FA3008108AE82AF83EE2ECF7E007D007C00C011
:102FB30006C007C005C0047582181230DBE5812402
:102FC300FCF581123082E582600690000102304AEE
:102FD3007582FE123371E50824FBF8860508860620
:102FE3000886077B007C00C3EC64809482502F8D9D
:102FF300828E838FF0123AA5FAA3AD82AE838A82C2
:10300300C007C006C005C004C003123371D003D08B
:1030130004D005D006D0070BBB00CC0C80C9758249
:10302300FF1233717582FF1233717582FF12337190
:10303300AF82BFFFF57582FF123371123349758278
:10304300FF123371900000D008227582FF12337192
:103053007EF47F017582FFC007C006123371AD8213
:10306300758201C00512316AD005D006D007BDFFB5
:103073000280091EBEFF011FEE4F70D88D82227F92
:10308300007D007E00C3ED9408EE6480948050219F
:103093007582FFC006C005123371AC82D005D0061D
:1030A3008C07BFFF0280038F82220DBD00D70E80E5
:1030B300D48F8222123082AE827F007582FFC007D6
:1030C300C006123371AD82D006D0077C00EF4205F3
:1030D300EE42048D828C8322C008858108AF82C0B2
:1030E300071233467582FF123371D00774404FF5D0
:1030F30082C007123371D0077D037E00EE20E74ABA
:10310300C0078D04ECC40354F8FC8CF005F0E5080B
:1031130024FAF88602088603088604088607800DC9
:10312300C3EF13FFEC13FCEB13FBEA13FAD5F0F038
:103133008A82C007C006C005123371D005D006D0FD
:10314300071DBDFF011ED00780B2EF70057E95FFFE
:1031530080047EFF7F008E821233717582FF1233EB
:1031630071900000D00822AF827D007E008F037C27
:1031730000C007C006C005C003C0049003E81239AD
:103183007DAB82AC8315811581D005D006D007C3F2
:10319300ED9BEE64808CF063F08095F050070DBDDD
:1031A30000CB0E80C822758780759850438920D242
:1031B30099758DFFD28E22AE823099FD8E99C29978
:1031C30090000122AD82AE83AFF07B007C008D8244
:1031D3008E838FF0123AA5FA602B0DBD00010E8A83
:1031E300017A0089828A83C007C006C005C004C073
:1031F300031231BAD003D004D005D006D0070BBBDD
:1032030000CC0C80C90BBB00010C8B828C83221079
:10321300980280FBAE997F008E828F8322C008853F
:103223008108C082C083C0F005817B007C007E00E2
:103233007D00C006C005C004C003123212AA82D0AA
:1032430003D004D005D006E5082404F8A602E50857
:103253002404F8B6082E1BBBFF011C8B068C0590BB
:103263000008C006C005C004C0031231BA90002094
:103273001231BA9000081231BAD003D004D005D06D
:1032830006023331E5082404F886027F008A828F20
:1032930083C006C005C004C0031231BAD003D004F2
:1032A300D005D006E5082404F8E50824FDF986F0E6
:1032B300E7B5F02FC003C004A80808EE26FAED080E
:1032C30036FB0886048A828B838CF0E4123859908B
:1032D300000DC004C0031231BAD003D004D004D00F
:1032E300038056E50824FBF8C3EB96EC648008865C
:1032F300F063F08095F040110BBB00010CE508244E
:10330300FBF886060886058025A80808EB26FAEC54
:103313000836FE0886078A828E838FF0E508240428
:10332300F8E61238590BBB00010C8B068C05E50837
:103333002404F8E660030232358B828C838508818E
:10334300D00822C2B422D2B42253C37F2275C30051
:10335300123349C2B543C38053C3FD53C3FE43C3B2
:103363002043C31053C3F753C3FB43C34022AF826D
:10337300C2B58FC5E5C430E7FB85C582229000370F
:10338300E4F0900034F0900035F0900036F0221213
:103393003380438901758C4C758A0043A882D28C93
:1033A30022D28C22C28C22C008858108C082C083AD
:1033B300E581240EF581E5082406F97730E904F860
:1033C3007631740229F87632740329F8763374045B
:1033D30029F87634740529F87635740629F8763693
:1033E300740729F87637740829F87638740929F8A8
:1033F3007639740A29F87600E50824FBF886030871
:103403008604088605A8080808E630E71B8B828C2B
:10341300838DF0742D123859A3AB82AC83A80808AE
:10342300C3E496F608E496F6A80808860208860719
:10343300E5082403F8A60308A60408A605E508245E
:1034430003F806B600020806C001740AC0E0E4C02F
:10345300E08A828F83123D83AB82AE83158115810F
:10346300D0018B028E07EB4E70D3E5082403F88658
:10347300820886830886F0E4123859E5082403F8A5
:1034830086050886060886071DBDFF011EC007C006
:1034930006C005C001740AC0E0E4C0E0A8080886BD
:1034A30082088683123AC1AB8215811581D001D07F
:1034B30005D006D007EB29F886048D828E838FF022
:1034C300EC123859C007C006C005C001740AC0E039
:1034D300E4C0E0A808088682088683123D83A80812
:1034E30008A68208A68315811581D001D005D006D0
:1034F300D007A80808E60846708E850881D0082200
:10350300C008E581F508240FF581900036E0240119
:10351300F0E0FFBF0A00400C900036E4F090003565
:10352300E02401F0900035E0FFBF3C00400C900028
:1035330034E02401F0900035E4F0900034E0FFBF64
:103543003C00400C900033E02401F0900034E4F0A0
:10355300E5082408FFFC7D007E40900034E0FB7A00
:1035630000C007C004C005C0068B828A831233AA39
:10357300158115811581E5082404FEA80808A6060F
:10358300087600087640900035E0FA7D00C006A872
:103593000808E6C0E008E6C0E008E6C0E08A828DDD
:1035A300831233AA158115811581E508240CFDA822
:1035B3000808A605087600087640900036E0FC7BF4
:1035C30000C005A80808E6C0E008E6C0E008E6C0B9
:1035D300E08C828B831233AA158115811581740ABD
:1035E300C0E07582031202C41581D005D006D0074E
:1035F3007C007B408F828C838BF0C006C005120356
:103603003A75823A12031ED005D0067F007C408EA5
:10361300828F838CF0C00512033A75822E12031E2B
:10362300D0057F007E408D828F838EF012033A8512
:103633000881D00822900033E0FFE4FDCDC4035499
:10364300F8CDC403CD6DCD54F8CD6DFCEFC4035458
:10365300074DFDEFC40354F8FE7F00430585430483
:1036630055900034E0F8E4F9FAC42354E0CAC423C3
:10367300CA6ACA54E0CA6AFBE9C423541F4AFAE976
:10368300C42354E0C8C423C868C854E0C868F9E830
:103693004207E94206EA4205EB4204900035E0F8AE
:1036A300E4F9FAC313FBEA13FAE913F9E81342073F
:1036B300E94206EA4205EB42048F828E838DF0ECE9
:1036C30022C020C0E0C0F0C082C083C007C006C0D3
:1036D30005C004C003C002C001C000C0D075D00043
:1036E300C008E581F508240FF581900037E0240137
:1036F300F0E030E003023837900037E4F012041FA3
:10370300E582900038F0900036E02401F0E0FFBF3E
:103713000A00400C900036E4F0900035E02401F0FC
:10372300900035E0FFBF3C00400C900034E02401E2
:10373300F0900035E4F0900034E0FFBF3C00400C13
:10374300900033E02401F0900034E4F0E50824080D
:10375300FFFC7D007E40900034E0FB7A00C007C090
:1037630004C005C0068B828A831233AA1581158192
:103773001581E5082404FEA80808A60608760008B3
:103783007640900035E0FA7D00C006A80808E6C040
:10379300E008E6C0E008E6C0E08A828D831233AA1F
:1037A300158115811581E508240CFDA80808A605D7
:1037B300087600087640900036E0FC7B00C005A840
:1037C3000808E6C0E008E6C0E008E6C0E08C828BAB
:1037D300831233AA158115811581740AC0E075829D
:1037E300031202C41581D005D006D0077C007B40AC
:1037F3008F828C838BF0C006C00512033A75823A20
:1038030012031ED005D0067F007C408E828F838CEE
:10381300F0C00512033A75822E12031ED0057F00F5
:103823007E408D828F838EF012033A900038E0F54C
:10383300821202A5850881D008D0D0D000D001D053
:1038430002D003D004D005D006D007D083D082D0D5
:06385300F0D0E0D02032AD
:063F940000000000000027
:06004000E478FFF6D8FD94
:10001E007909E94400601B7A01903F91783075A010
:10002E0000E493F2A308B8000205A0D9F4DAF27541
:02003E00A0FF21
:1038590020F71130F6138883A88220F509F6A8838A
:103869007583002280FEF280F5F022C00885810868
:10387900E50824FDF8868318868218E493A324DBDF
:10388900600C2425600512396280F002397AD2D59C
:10389900E493A3C083C082B4731486F01886831896
:1038A900868218123AA56054A312396280F5B4636E
:1038B9000818E6181239628043B46417E630E746FF
:1038C90018E6F42401F608E6F43400F6742D1239EA
:1038D900628033B4782D868318868218E4123953AE
:1038E900E583123952E583123953E582123952E5DB
:1038F9008212395330D5057430123962D082D0839F
:10390900023884B475F6E6FA18E6F9187C107D27B2
:1039190012393DFF7CE87D0312393DC4F5837C648F
:103929007D0012393D4283E975F00A84C445F0F5FA
:1039390082EF80A97B000BC3E99CF9EA9DFA50F656
:103949001BE92CF9EA3DFAEB22C4540F700320D588
:103959001FC2D52490D43440D4C083C082C0F0F5AE
:1039690082E8C0E01231BAD0E0F8D0F0D082D0833A
:1039790022D00822C008858108C082C083E581243D
:1039890005F581AF080FE5082403F8A607087600B6
:10399900087640E50824FCFD7E007F40E508240602
:1039A900F9A808088604E50824FCF886038CF0EBDE
:1039B900A4F709A7F0E508240604F98704A808086C
:1039C900860374012DFAE43EFE8A828E838FF012FB
:1039D9003AA58BF0A4FBE5082403F8740126FDE45D
:1039E9000836FE0886078D828E838FF0123AA5FD70
:1039F900E50824FCF886078DF0EFA42B2CF7E508E1
:103A09002406F987060987078E828F83850881D066
:023A1900082281
:100046007800E84400600A790175A000E4F309D855
:10005600FC782FE84400600C7901900001E4F0A3DD
:04006600D8FCD9FAEF
:103A1B00C008858108C082C083C0F0C0E07A007BFB
:103A2B00007E007F007D20A80808080808E62354C4
:103A3B0001FCA80808E626F608E633F608E633F696
:103A4B0008E633F6EA2AFAEB33FBEE33FEEF33FFED
:103A5B00EC6003430201E50824FAF8C3EA96EB088D
:103A6B0096EE0896EF0896401CE50824FAF8EAC390
:103A7B0096FAEB0896FBEE0896FEEF0896FFA80861
:103A8B0008E64401F6DDA0A80808868208868308AC
:0A3A9B0086F008E6850881D00822B5
:0D00110075812012051CE582600302000EBF
:103AA50020F71430F6148883A88220F507E6A8834A
:103AB50075830022E280F7E49322E022C008858125
:103AC50008AE82E583FF33E433FD6009C3E49EFB62
:103AD500E49FFC80048E038F04E50824FCF808E6C7
:103AE50030E70FE50824FCF8C3E496FE08E496FFEA
:103AF500800AE50824FCF88606088607C005C00686
:103B0500C0078B828C83123D04AE82AF831581156D
:103B150081D005ED600DC3E49EFCE49FFD8C828D94
:103B25008380048E828F83D00822C008858108C0D7
:103B350082C083C0F0C0E0E5812408F581E5082452
:103B450009F92402F8AF080F8F06C000A8068606FB
:103B5500E50824FAFDFC0C0CA8048604D0008EF0C0
:103B6500ECA4FEABF0A60608A6038F068E0086061B
:103B75008D048C0086048EF0ECA4FEABF0A706093C
:103B8500A703E50824092403F987068F0474032C89
:103B9500F886048D038B0086038CF0EBA42EFEF7CC
:103BA5008F0474022CF886048D03EB04F886038CCD
:103BB500F0EBA42EF7E50824092402F98704098708
:103BC50006198F0374022BF886038D028A0086027C
:103BD5008BF0EAA4ABF02CFCEB3EFEA70409A7068C
:103BE500198F03EB04F886038D02EA04F886028B2D
:103BF500F0EAA4ABF02CFCEB3EFEA70409A7068F68
:103C05000674032EF98F06EE04F886068D047402F9
:103C15002CF886048EF0ECA4F78F06EE04F98F06D7
:103C2500EE04F886068D048C0086048EF0ECA4FE66
:103C3500ABF0A70609A7038D0674032EF98F068E30
:103C45000086068D0474032CF886048EF0ECA4F728
:103C55008D06EE04F98F068E0086068D04EC04F8B9
:103C650086048EF0ECA4FEABF0A70609A7038D0130
:103C750077008F017700E5082409F9E5082405F8A0
:103C8500E7F609E708F609E708F609E708F6191956
:103C950019A808088602088603088606088607E527
:103CA500082405F8EA26F6EB0836F6EE0836F6EFB0
:103CB5000836F6E5082405F8E6F70908E6F70908E1
:103CC500E6F70908E6F7191919E709E709E709E722
:103CD500E50824FAF8860408860508860608860796
:103CE500E5082405F8EC26FCED0836FDEE0836FE61
:103CF500EF08368C828D838EF0850881D00822C02E
:103D050008858108AE82AF837D007C00E50824FC30
:103D1500F808E6235401FB702FE50824FCF8E62695
:103D2500F608E633F6E50824FCF8C3EE96EF0896A8
:103D35005011E50824FCF808E618C313C613C60895
:103D4500F680050C8C0580C4E50824FCF8C3EE96C6
:103D5500EF0896400DE50824FCF8EEC396FEEF0843
:103D650096FFE50824FCF808E618C313C613C60831
:103D7500F68D041DEC70D18E828F83D00822C00889
:103D8500858108AE82E583FF33E433FD6009C3E432
:103D95009EFBE49FFC80048E038F04E50824FCF859
:103DA50008E633E433FF600FE50824FCF8C3E49626
:103DB500FA08E496FE800AE50824FCF886020886DF
:103DC50006C007C005C002C0068B828C83123DF970
:103DD500AC82AE8315811581D005D007EF6D600DDE
:103DE500C3E49CFDE49EFF8D828F8380048C828ECC
:103DF50083D00822C008858108AE82AF837C007D10
:103E0500007B10EF235401FAEE2EFEEF33FFEC2C6E
:103E1500FCED33FDEA6003430401E50824FCF8C327
:103E2500EC96ED08964010E50824FCF8ECC396FCEA
:103E3500ED0896FD430601DBCA8E828F83D00822EA
:00000001FF
