:20006D00E582900001F01201C3C294C295900136E0FEA3E0FF900001E0FD7C008E828F83D5
:20008D00EDF0ECA3F022C294D2951201C3D294D295900136E0FEA3E0FF8E828F83E0FEA3AB
:2000AD00E08E8222AFF0AE83E582900002F0EEA3F0EFA3F0C294D295900002E0FDA3E0FEB8
:2000CD00A3E0FF900136E0FBA3E0FC8B828C83E0FBA3E08D828E838FF0EB12350C0201C353
:2000ED00E582900005F0D294C295900136E0FEA3E0FF900005E0FD7C008E828F83EDF0EC4A
:20010D00A3F00201C3E582900006F0C294C295900136E0FEA3E0FF900006E0FD7C008E82B9
:20012D008F83EDF0ECA3F00201C3C294C295900136E0FEA3E0FF7C307D008E828F83ECF083
:20014D00EDA3F01201C3C294C295900136E0FEA3E0FF7C387D008E828F83ECF0EDA3F012A7
:20016D0001C3C294C295900136E0FEA3E0FF7C0F7D008E828F83ECF0EDA3F01201C3C29428
:20018D00C295900136E0FEA3E0FF7C017D008E828F83ECF0EDA3F01201C3C294C295900148
:2001AD0036E0FEA3E0FF7C807D008E828F83ECF0EDA3F00201C3C294D295900136E0FEA3DA
:2001CD00E0FF8E828F83E0FEA3E0EE20E7EC22E58290000CF0E04480FFC294C295900136A3
:2001ED00E0FDA3E0FE7C008D828E83EFF0ECA3F00201C3E58290000FF0E0FF24FC4038EF78
:20020D002F900212738006800D8016801F90000EE0F5820201DC90000EE02440F582020113
:20022D00DC90000EE02410F5820201DC90000EE02450F5820201DC22E582900010F0E0FF8D
:20024D00D294C295900136E0FDA3E0FE7C008D828E83EFF0ECA3F00201C3AFF0AE83E582B8
:20026D00900012F0EEA3F0EFA3F0900012E0FDA3E0FEA3E0FF8D828E838FF01239577003A6
:20028D0002036EC007C006C00512037AAC82D005D006D007BC0F028012BC1F028052BC4F34
:2002AD0002802BBC5F02806A0203418D828E838FF0123957F582C007C006C005120245755F
:2002CD0082401201DCD005D006D00702035B8D828E838FF0123957F582C007C006C0051262
:2002ED0002457582101201DCD005D006D007805E8D828E838FF0123957F582C007C006C04F
:20030D000512024575821F1201DCD005D006D007803C8D828E838FF0123957F582C007C0F0
:20032D0006C0051202457582001201DCD005D006D007801A8D828E838FF0123957F582C012
:20034D0007C006C005120245D005D006D0070DBD00010E900012EDF0EEA3F0EFA3F00202C4
:20036D0082900012EDF0EEA3F0EFA3F022C294D295900136E0FEA3E0FF8E828F83E0FEA3C3
:20038D00E0900015EEF01201C3900015E0F58222C294C295900136E0FEA3E0FF7C017D002B
:2003AD008E828F83ECF0EDA3F00201C3E58290001DF0E0FF90001AE0FCA3E0FDA3E0FE7B07
:2003CD00008F02530207EAC40354F8FA43024074075BF9EA42018982C007C006C005C0048A
:2003ED00C00312006DD003D004D005D006EB2CF8E43DF98E02888289838AF0123957F85326
:20040D00001FD294C295900136E0F9A3E0FA7F0089828A83E8F0EFA3F0C007C006C005C0D3
:20042D0004C0031201C3D003D004D005D006D0070BBB0800D007408922E582900020F090C2
:20044D00001FE0547F4480F58212006D900020E0FFD294C295900136E0FDA3E0FE7C008D89
:0B046D00828E83EFF0ECA3F00201C3CD
:023B2B0000F0A8
:0400000002001132B7
:03000B000233E1DC
:03006A0002000E83
:03000E00020623C4
:20047800438E0C538EEF122F1190000022AFF0AE83E58290004CF0EEA3F0EFA3F090004CD1
:20049800E0FDA3E0FEA3E0FF7B007C00C3EB9440EC6480948040012274012BF9E43CC4C95E
:2004B800C4540F69C9540FC969C930E30244F0497023C007C006C005C004C00374DFC0E07C
:2004D8007439C0E012352715811581D003D004D005D006D007EB2DF8EC3EF98F028882899D
:2004F800838AF0123957F87A00C007C006C005C004C003C000C00274E2C0E07439C0E01223
:200518003527E58124FCF581D003D004D005D006D0070BBB00010C0204A490000074E6F0EB
:200538007439A3F07480A3F090006575F0001228B0E582600122900000744FF07400A3F064
:20055800E4A3F090006575F0001229C1E5827006900058E0701074E8C0E07439C0E0123501
:200578002715811581227458C0E07400C0E0E4C0E074FEC0E07439C0E0123527E58124FB98
:20059800F58190005875F0001221CCE582601D7458C0E07400C0E0E4C0E07415C0E0743AC2
:2005B800C0E0123527E58124FBF581229000007440F0E4A3F090000074B6F07400A3F0E4B8
:2005D800A3F090007675F000122378E582601F7458C0E07400C0E0E4C0E07430C0E0743A7C
:2005F800C0E0123527E58124FBF58102054E90007675F0001204859000B6E0FEA3E0FFBE1B
:200618004005BF000280A502054E221231021201371230B812000090000012000090002231
:2006380075F000121C18E5826011744BC0E0743AC0E01235271581158180FE7465C0E0746D
:200658003AC0E0123527158115811206F0E58230E063122AADAE82AF83BE0005BF000280DD
:2006780010BE0105BF00028019BE0238BF003580227477C0E0743AC0E01235271581158133
:200698008031748FC0E0743AC0E012352715811581802074B8C0E0743AC0E0123527158148
:2006B8001581800F74DFC0E0743AC0E01235271581158180FE74FCC0E0743AC0E0123527D8
:1806D800158115817412C0E0743BC0E01235271581158112053280FE08
:2039DF000D0A00257820002F004E6F206D6F72652066696C657320666F756E640D0A00723D
:2039FF00656164696E672066696C65202F2573202E2E2E0D0A004572726F723A2066616944
:203A1F006C656420746F206F70656E2025730D0A004572726F723A206661696C6564207451
:203A3F006F20726561642025730D0A00436F756C646E2774206D6F756E74206472697665E0
:203A5F002E2E2E0D0A0053442063617264206D6F756E7465640D0A00436F756C646E277422
:203A7F002066696E6420534420636172640D0A00436172642074797065206973204D4D4389
:203A9F00202D2043616E277420757365207468697320747970650D0A00436F756C646E2723
:203ABF007420696E697469616C697A6520534420436172642064726976652E2E2E0D0A00F5
:203ADF00556E6B6E6F776E20436172642054797065206572726F722E2E2E0D0A00534420D9
:203AFF006361726420696E697469616C697A65640D0A0046696E697368656420726561645A
:0C3B1F00696E672066696C65730D0A0012
:2006F000122AB9E5828583F045F07008900138E053E0FEF0900138E0F58222AFF0AE83E528
:20071000829000C0F0EEA3F0EFA3F09000BEE0FEA3E0FFBE0005BF020280047582032290A0
:200730000138E030E004758202229000BCE0FEA3E0FF9000B8E0FAA3E0FBA3E0A3E0EE2AF7
:20075000FAEF3BFB9000C0E0FDA3E0FEA3E0FF9000CFEDF0EEA3F0EFA3F08A828B83122CA3
:200770003BE5828583F045F060047582012275820022AFF0AE83E5829000C7F0EEA3F0EF15
:20079000A3F0900138E030E004758202229000C3E0FCA3E0FDA3E0A3E09000C7E0FBA3E074
:2007B000FEA3E0FF9000D4EBF0EEA3F0EFA3F08C828D83122CF5E5828583F045F0600475A9
:0707D0008201227582002264
:013B2D000196
:2007D700AD82AE83AFF074012DFAE43EFB8F048A828B838CF0123957FC7A008D828E838F5A
:2007F700F01239577F004202EF42048A828C8322C00C85810CC082C083C0F0E5812404F585
:2008170081A80C08740326FAE40836FB0886048A828B838CF0123957FAE4FBFCE50C240418
:20083700F8080808A60418A60318A602187600A80C08740226FDE40836FE0886078D828E31
:20085700838FF0123957FDE4FFFEFCE50C2404F8E6420508E6420708E6420608E64204E53F
:200877000C2404F8080808A60618A60718A605187600A80C08740126FAE40836FB08860758
:200897008A828B838FF0123957FAE4FFFEFDE50C2404F8E6420208E6420708E6420608E698
:2008B7004205E50C2404F8080808A60618A60718A602187600A80C0886820886830886F09F
:2008D700123957FBE4FCFEFFE50C2404F8E6420308E6420408E6420608E642078B828C838E
:2008F7008EF0EF850C81D00C22C00C85810C05810581AD82AE83AFF0E50C24FAF8A90C09B6
:20091700E6F708E609F7A80C088602088604A80C0816B6FF020816EA4C6018E50C24FCF8C1
:2009370086048D828E838FF0EC12350CA3AD82AE8380D3850C81D00C22C00CE581F50C247B
:2009570009F581AD82AE83AFF0E50C24FBF8E50C2407F9E6F708E609F708E609F7E50C2417
:2009770005F8E4F608F6E50C24F9F8A90C09E6F708E609F7A80C088603088604A80C081653
:20099700B6FF020816EB4C604F8D828E838FF0123957FCA3AD82AE83E50C2403F8A6040883
:2009B7007600E50C2407F886820886830886F0123957FAA31818A68208A6837C00E50C24A6
:2009D70003F8E6C39AFA08E69CFCE50C2405F8A60208A604EA4C609CE50C2405F886820882
:2009F7008683850C81D00C22C00C85810CC082C083C0F0C0E0E581240DF5819000CAE0FFCE
:200A1700A3E0FEA3E0FDE50C240FF8A60708A60608A605A80C08C3E6940208E6940008E623
:200A3700940008E69400403AE50C240FF8740626FAE40836FB0886078A828B838FF01239C3
:200A570057FAA3123957FBA3123957FFA3123957FEA80C08C3E69A08E69B08E69F08E69EC6
:200A77004009900001E4F5F0020B91E50C240FF886820886830886F0123957FFBF03028086
:200A970003020B8BA80C0886040853047F7D00E50C2409F8EC2CF6ED3308F618E626F6089F
:200AB700E633F6E50C240FF8740A26FBE40836FE0886078B828E838FF0E50C2405F81239A6
:200AD70057F6A312395708F6A312395708F6A312395708F6A80C08860408E6A2E7CC33CC61
:200AF70033CC5401FD08E6264DFD860608E6A2E7CE33CE33CE5401FFE50C2405F8EC26F6EF
:200B1700ED0836F6EE0836F6EF0836F6E50C240BFBFA7E007F40C0037404C0E0E4C0E0E5C2
:200B37000C2409F8E6C0E008E6C0E0E50C2405F8E6C0E008E6C0E008E6C0E008E6C0E08A8D
:200B5700828E838FF012070BAF82E58124F8F581D003EF701FFF7E408B828F838EF012085A
:200B770007AC82AD83AEF0FF53070F8C828D838EF0EF8006900001E4F5F0850C81D00C2278
:200B9700C00C85810CC8E581240BF581E50C2405C8A68208A68308A6F008F69000CAE0FA82
:200BB700A3E0FBA3E0FFE50C2409F8A60208A60308A607E50C2405F8A90C09E624FEF70823
:200BD700E634FF09F708E634FF09F708E634FF09F7E50C2409F8740626FAE40836FB088648
:200BF700048A828B838CF0123957FAA3123957FBA3123957FCA3123957FFEA24FEFAEB34BE
:200C1700FFFBEC34FFFCEF34FFFFA80C08C3E69A08E69B08E69C08E69F4009900000E4F536
:200C3700F0020CCCE50C2409F8740226FDE40836FE0886078D828E838FF0123957FD7F00B2
:200C57007E007C00C005C007C006C004A80C0886820886830886F008E6123973C8E50C2491
:200C770005C8A68208A68308A6F008F6E58124FCF581E50C2409F8741226FAE40836FB08BE
:200C970086078A828B838FF0123957FAA3123957FBA3123957FFA3123957FEE50C2405F8A2
:200CB700EA26FAEB0836FBEF0836FFEE0836FE8A828B838FF0850C81D00C22C00C85810C12
:200CD700C082C083C0F0E5812404F581A80C08741426FAE40836FB0886048A828B838CF01B
:200CF7001207D7AB82AC838C02E4E50C2404F8080808A60218A60318187600087600A80CB5
:200D170008741A26FDE40836FE0886078D828E838FF01207D7AE82AF83E4FDFCE50C240467
:200D3700F8E6420608E6420708E6420508E642048E828F838DF0EC850C81D00C22C00C85EA
:200D5700810CC082C083C0F0E581240AF5819000CAE0FAA3E0FBA3E0FCE50C240BF8A602BF
:200D770008A60308A604A80C0886820886830886F0E412350CA312350CA80C08740526FA24
:200D9700E40836FB0886048A828B838CF0E50C2407F8123957F6A312395708F6A3123957C3
:200DB70008F6A312395708F6E50C2407F8B6010E08B6000A08B6000608B60002803CE50C09
:200DD700240BF8740626FDE40836FE0886078D828E838FF0123957FDA3123957FEA3123914
:200DF70057FFA3123957FCE50C2407F8C3E69D08E69E08E69F08E69C4006758201020ED624
:200E1700E50C2407F8E60846084608467031E50C240BF8740E26FDE40836FE0886078D82B5
:200E37008E838FF0E50C2407F8123957F6A312395708F6A312395708F6A312395708F6A8EE
:200E57000C08740926FDE40836FE0886078D828E838FF0E50C2407F8E612350CA308E61283
:200E7700350CA308E612350CA308E612350CA80C08E50C2404F9740D26F7E4083609F708BC
:200E9700E609F7E50C2407F886820886830886F008E6120B97AA82AB83ACF0FFE50C2404FA
:200EB700F886820886830886F0EA12350CA3EB12350CA3EC12350CA3EF12350C758200852B
:200ED7000C81D00C22C00C85810CC082C083C0F0E5812413F5819000CAE0FAA3E0FBA3E015
:200EF700FCE50C2414F8A60208A60308A604A80C0886820886830886F0123957FBA31239D5
:200F170057FC0BBB00010CE50C240EF8A60308A604E50C240EF8E60846603BA80C08E50C87
:200F37002404F9740D26F7E4083609F708E609F7E50C2404F886820886830886F012395781
:200F5700FEA3123957FDA3123957FCA3123957FFEE4D4C4F7006758203021171E50C240EC8
:200F7700F88603088602EB540F60030211540EBE00090DBD00050CBC00010FE50C2404F8A4
:200F970086820886830886F0EE12350CA3ED12350CA3EC12350CA3EF12350CA80C08E50C0B
:200FB7002407F9740926F7E4083609F708E609F7E50C2407F886820886830886F0E50C248C
:200FD7000AF9123957F7A312395709F7A312395709F7A312395709F7E50C240AF8E6084644
:200FF700084608467035E50C2414F8740426FAE40836FB0886048A828B838CF0123957FAFF
:20101700A3123957FBE50C240EF8C3E69A08E69B5003021154758203021171EAC4CBC454C9
:201037000F6BCB540FCB6BCBFCE50C2414F8740226FAE40836FE0886078A828E838FF012DA
:201057003957FA7F001ABAFF011FEA5203EF5204EB4C6003021154E50C240AF8868208864B
:20107700830886F008E61209FFAD82AE83ACF0FFE50C2410F8A60508A60608A60408A60772
:20109700E50C2410F8C3740196E40896E40896E408964006758201021171E50C2414F87471
:2010B7000626FDE40836FE0886078D828E838FF0123957FDA3123957FEA3123957FFA312C1
:2010D7003957FCE50C2410F8C3E69D08E69E08E69F08E69C4006758203021171E50C240787
:2010F700F886820886830886F0E50C2410F9E712350CA309E712350CA309E712350CA3097A
:20111700E712350CE50C2410F886820886830886F008E6120B97AE82AD83ACF0FFE50C2418
:2011370004F886820886830886F0EE12350CA3ED12350CA3EC12350CA3EF12350CA80C085E
:2011570086820886830886F0E50C240EF9E712350CA309E712350C758200850C81D00C229E
:20117700C00C85810CC082C083C0F0E5812406F581A80C0886820886830886F0120D54E594
:2011970082FC60058C82021344A80C08740226FAE40836FB088604A80C08E50C2404F974AB
:2011B7000D26F7E4083609F708E609F7C002C003C004A80C0886820886830886F0123957A0
:2011D700FBA312395753030FE4C42354E0CBC423CB6BCB54E0CB6BFCE50C2404F88682081A
:2011F70086830886F0123957FAA3123957FDA3123957FEA3123957FFC004C003C00274200F
:20121700C0E0E4C0E0C003C004C002C005C006C007E50C24FBF886820886830886F0120740
:201237000BAF82E58124F8F581D002D003D004D004D003D002EF60067E017F0080047E001C
:201257007F00EE6003021342E50C24FBF8E50C2407F9E6F708E609F708E609F7E50C24075E
:20127700F886820886830886F012395770057E03021342C002C003C004E50C2407F8740BFD
:2012970026FCE40836FD0886078C828D838FF0123957D004D003D00220E36CC0068A828BDD
:2012B700838CF0123957FDA3123957FEA3123957FFE50C2407F8A60508A60608A607E50CD9
:2012D70024FBF88605088606088607C004C003C002740BC0E0E4C0E0E50C2407F8E6C0E0A6
:2012F70008E6C0E008E6C0E08D828E838FF0120950AE82AF83E58124FBF581D002D003D0DF
:2013170004EE4FD0066024A80C0886820886830886F0C004C003C002120EDCAF82D002D0B0
:2013370003D0048F06EE70030211C38E82850C81D00C22C00C85810CC082C083C0F0E5815A
:201357002405F581E50C2408F87603A80C08740D26FAE40836FB0886048A828B838CF0E5C2
:201377000C2404F8123957F6A312395708F6A312395708F6A312395708F6E50C2404F8E6D2
:2013970008460846084670030214CEC002C003C004A80C0886820886830886F0123957FBBC
:2013B700A312395753030FE4C42354E0CBC423CB6BCB54E0CB6BFCC003C0027420C0E0E4B7
:2013D700C0E0C003C004E50C2404F8E6C0E008E6C0E008E6C0E008E6C0E0E50C24FBF88600
:2013F700820886830886F012070BAC82E58124F8F581D002D003ECD004D003D00260067F8C
:20141700017E0080047F007E00E50C2408F8A607E50C2408F8E660030214CEE50C24FBF8A9
:20143700E50C2404F9E6F708E609F708E609F7E50C2404F886820886830886F0123957FF81
:201457007009E50C2408F87603806CC002C003C004E50C2404F8740B26FCE40836FD0886DA
:20147700068C828D838EF0123957FC743F5CFEBFE508D004D003D002800FD004D003D002DB
:20149700BF2E028004EE30E32EA80C0886820886830886F0C004C003C002120EDCAF82D0FA
:2014B70002D003D004E50C2408F8A607E50C2408F8E67003021370E50C2408F8E66024A890
:2014D7000C08740D26FDE40836FE0886078D828E838FF0E412350CA312350CA312350CA323
:2014F70012350CE50C2408F88682850C81D00C22C00CE581F50C2409F581AD82AE83AFF080
:2015170074022DFDE43EFE8D828E838FF0E50C2404F8123957F6A312395708F6A312395724
:2015370008F6E50C2404F88602088603088604740BC0E0E4C0E07420C0E0E4C0E08A828BE8
:20155700838CF0120900E58124FCF581E50C2403F87600A80C08087608E50C24FBF8860206
:201577000886060886078A828E838FF0E50C2407F8123957F6A312395708F6A31239570853
:20159700F67D00C002C006C007E50C2407F8ED26FBE40836FC0886070D8B828C838FF0A84D
:2015B7000C08123957F6A80C08E624DF9200D007D006D002200003021643A80C08B62F0291
:2015D700806AA80C08B62E02800EE50C2403F8A90C0909C3E697401CA80C0808B6084DA8F0
:2015F7000C08B62E47E50C2403F87608A80C0808760B808FC002C006C007E50C2403F886CE
:2016170004E50C2403F806E50C2404F8EC26FBE40836FC0886078B828C838FF0A80C08E68B
:2016370012350CD007D006D00202159AE50C2407F8ED26FDE40836FC0886038A828E838F91
:20165700F0ED12350CA3EC12350CA3EB12350CE50C2404F8740B26FDE40836FE08860720F8
:2016770000067B017C0080047B007C008D828E838FF0EB12350C758200850C81D00C22C036
:201697000CE581F50C2406F581AF82AD83AEF0E50C24F8F8E50C2404F9E6F708E609F70837
:2016B700E609F7E50C2404F8A90C09740926F7E4083609F708E609F7740D2FFFE43DFD8F58
:2016D700828D838EF0123957FCA3123957FDA3123957FEA3123957FFEC4D4E4F7003021819
:2016F700DDA80C0886050886060886077C00C005C006C007E50C24FBF8EC26FAE40836FB87
:201717000886078A828B838FF0123957FBBB2008D007D006D0058020D007D006D005BB05A0
:20173700027BE58D828E838FF0EB12350CA3AD82AE830CBC080040B6A80C08A60508A6066F
:2017570008A607E50C24FBF8740826FAE40836FB0886048A828B838CF0123957FABA20025C
:2017770080628D828E838FF0742E12350C0DBD00010E7C08C005C006C007E50C24FBF8EC39
:2017970026FAE40836FB0886078A828B838FF0123957FBBB2008D007D006D005801BD00753
:2017B700D006D0058D828E838FF0EB12350CA3AD82AE830CBC0B0040BBA80C08A60508A6A4
:2017D7000608A607E50C2404F8740826FDE40836FE088607E50C24FBF8740B26FAE4083609
:2017F700FB0886048A828B838CF01239578D828E838FF012350CE50C24FBF8741C26FDE47C
:201817000836FE0886078D828E838FF0120807AE82AD83ACF0FFE50C2404F88682088683FB
:201837000886F0EE12350CA3ED12350CA3EC12350CA3EF12350CE50C2404F8740426FDE498
:201857000836FE088607E50C24FBF8741826FAE40836FB0886048A828B838CF0C007C0061A
:20187700C0051207D7AB82AC83D005D006D0078D828E838FF0EB12350CA3EC12350CE50C0E
:201897002404F8740626FDE40836FE088607E50C24FBF8741626FAE40836FB0886048A8252
:2018B7008B838CF0C007C006C0051207D7AB82AC83D005D006D0078D828E838FF0EB123596
:2018D7000CA3EC12350CA80C0886820886830886F0E412350C850C81D00C22C00C85810C8B
:2018F700C082C083C0F0E5812407F581E50C24F8F886020886030886048A828B838CF0123D
:201917003957FFBF20140ABA00010BE50C24F8F8A60208A60308A60480DFE50C24F8F8A644
:201937000208A60308A604BF2F10E50C24F8F874012AF6E43B08F608A604A80C0874052669
:20195700FAE40836FB0886048A828B838CF0E412350CA312350CA312350CA312350CE50C27
:2019770024F8F886020886030886048A828B838CF0123957FABA20005031A80C0886820838
:2019970086830886F0120D54AC82E50C240AF8A604E50C24FBF886020886030886048A8288
:2019B7008B838CF0E412350C021B32A80C08740226FAE40836FB088604E50C24FBF8E50C06
:2019D7002404F9740B26F7E4083609F708E609F7C002C003C004E50C24F8FC7B007A40C0DC
:2019F70003C002C004C003C002A80C0886820886830886F0121507AC82158115811581D081
:201A170002D003E50C240AF8A604E50C240AF8E6D004D003D0026003021B32C002C003C0AC
:201A370004C003C002E50C24FBF8E6C0E008E6C0E008E6C0E0A80C0886820886830886F009
:201A5700121177AC82158115811581D002D003E50C240AF8A604E50C240AF8E6D004D003DB
:201A7700D0026003021B328A828B838CF0123957FDA3123957FEA3123957FF740B2DFDE482
:201A97003EFE8D828E838FF01239576003021B32C002C003C004E50C2404F886820886838D
:201AB7000886F0123957D004D003D00220E409E50C240AF876038063C002C003C004A80CF9
:201AD70008E50C2407F9740526F7E4083609F708E609F7E50C24FBF886820886830886F08D
:201AF700C003C002120CD2AE82AD83ACF0FFD002D003E50C2407F886820886830886F0EE21
:201B170012350CA3ED12350CA3EC12350CA3EF12350CD004D003D0020219E7E50C240AF81F
:201B37008682850C81D00C22C00C85810CAD82AE83AFF0C007C006C0057402C0E0E4C0E0AD
:201B570074FEC0E0F4C0E0E50C24FAF8E6C0E008E6C0E008E6C0E008E6C0E08D828E838FE2
:201B7700F012070BAC82E58124F8F581D005D006D007EC6006758203021C158D828E838F64
:201B9700F0C007C006C0051207D7AB82AC83D005D006D007BB5505BCAA02800575820280A3
:201BB7005DC007C006C0057402C0E0E4C0E07452C0E0E4C0E0E50C24FAF8E6C0E008E6C0A0
:201BD700E008E6C0E008E6C0E08D828E838FF012070BAC82E58124F8F581D005D006D00787
:201BF700EC70188D828E838FF01207D7AE82AF83BE4608BF41057582008003758201D00C0A
:201C170022C00C85810CC082C083C0F0E581243FF5819000CAE4F0A3F0A3F01206F0E58276
:201C370030E0067582020221C6E50C243BF8E4F608F608F608F6E50C2417F9FA7B007C4023
:201C5700C001E4C0E0C0E0C0E0C0E08A828B838CF0121B3FAC82E58124FCF581D001BC018E
:201C7700028003021D1FC00489038B027B007C40C0017410C0E0E4C0E074BEC0E07401C006
:201C9700E0E4C0E0C0E0C0E0C0E08A828B838CF012070BAC82E58124F8F581D001ECD00478
:201CB70060047C038062740429F8E6605B740829FA7B007F408A828B838FF0C001120807BA
:201CD700AB82AD83AEF0FFD001E50C243BF8A60308A60508A60608A60789077E007D40C08A
:201CF70001E50C243BF8E6C0E008E6C0E008E6C0E008E6C0E08F828E838DF0121B3FAC821B
:201D1700E58124FCF581D001BC03067582010221C6EC60067582060221C689047B007A403F
:201D3700C0017424C0E0E4C0E0740DC0E0E4C0E0E50C243BF8E6C0E008E6C0E008E6C0E080
:201D570008E6C0E08C828B838AF012070BAC82E58124F8F581D001EC60067582010221C6FA
:201D7700740929FC7B007A408C828B838AF0C0011207D7AB82AC83D001E50C2405F8A60346
:201D970008A604087600087600E50C2405F8E60846084608467025741729FC7B007A408C96
:201DB700828B838AF0C001120807C8E50C2405C8A68208A68308A6F008F6D001740329F818
:201DD70086048C027B007C007F00C001C002C003C004C007E50C2405F886820886830886D4
:201DF700F008E6123973AC82AD83AEF0FFE58124FCF581E50C2413F8A60408A60508A60608
:201E170008A607A80C08E50C2405F9740A26F7E4083609F708E609F7D001E50C2404F8E9B1
:201E370004F6E50C2404F886027E007F408A828E838FF0C0011207D7AE82AF83E4FDFCE54A
:201E57000C243BF8EE26FEEF0836FFED0836FDEC0836FCE50C2405F886820886830886F0D3
:201E7700EE12350CA3EF12350CA3ED12350CA3EC12350CA80C08E50C240CF9740226F7E413
:201E9700083609F708E609F7D0018704E50C240CF886820886830886F0EC12350CA80C08F8
:201EB700C001E50C2409F9740426F7E4083609F708E609F7D001740429FA7B007C408A82DF
:201ED7008B838CF0C0011207D7AB82AC83D001E50C2409F886820886830886F0EB12350C98
:201EF700A3EC12350C740629FC7B007A408C828B838AF0C0011207D7AB82AC83D0018C0213
:201F1700E4FCFFE50C240FF8A60308A60208A60408A607EB4A4C4F702C741329FF7E007DD9
:201F3700408F828E838DF0C001120807AC82AD83AEF0FFD001E50C240FF8A60408A605087C
:201F5700A60608A607C001E50C2404F886077E007D408F828E838DF0C0011207D7AE82AF40
:201F770083E4FDFCE50C240FF8E6C39EFE08E69FFF08E69DFD08E69CFCE50C2413F8E50CDE
:201F9700240FF9EEC396F7EF089609F7ED089609F7EC089609F7E50C2409F88682088683EF
:201FB7000886F0123957FAA3123957C4CAC4540F6ACA540FCA6ACAFBE4FEFFE50C240FF869
:201FD700E6C39AF608E69BF608E69EF608E69FF6E50C240CF886820886830886F0123957DB
:201FF700FC7D007E007F00C004C005C006C007E50C240FF886820886830886F008E6123853
:2020170063AC82AD83AEF0FFE58124FCF581D001E50C243FF874022CF6E43D08F6E43E0851
:20203700F6E43F08F6A80C08740626FAE40836FB0886078A828B838FF0E50C243FF8E6128D
:20205700350CA308E612350CA308E612350CA308E612350C7F00E50C243FF8C3E694F70875
:20207700E694FF08E6940008E69400D00140027F03EF70067582060221C6A80C0886820820
:2020970086830886F0EF12350CA80C08C001E50C240FF9740E26F7E4083609F708E609F717
:2020B700D001741F29FC7B007A408C828B838AF0120807AA82AB83ACF0FFE50C240FF886FD
:2020D700820886830886F0EA12350CA3EB12350CA3EC12350CA3EF12350CA80C08E50C2422
:2020F7000FF9741226F7E4083609F708E609F7E50C2405F886820886830886F0123957FAC9
:20211700A3123957FBA3123957FCA3123957FFE50C2413F8E50C2405F9E62AF708E63B0977
:20213700F708E63C09F708E63F09F7E50C2409F886820886830886F0123957FDA3123957A9
:20215700C4CDC4540F6DCD540FCD6DCDFEE4FCFFE50C2405F8ED26FDEE0836FEEC0836FCBD
:20217700EF0836FFE50C240FF886820886830886F0ED12350CA3EE12350CA3EC12350CA3C0
:20219700EF12350CA80C08740126FDE40836FE0886078D828E838FF0E412350CA80C0890BB
:2021B70000CAE6F008E6A3F008E6A3F0758200850C81D00C22C00C85810CC082C083C0F04C
:2021D700E5812443F5819000CAE0FAA3E0FBA3E0FCE50C2444F8A60208A60308A604E50C27
:2021F7002444F8E608467006758205022372E50C2444F8740126FDE40836FE0886078D827E
:202217008E838FF0E412350CE50C2407FF2402F9E50C2438FC7D007E40A70409A70509A712
:2022370006E50C2418F8FC7D007E407B007A40C000A90C09E7C0E009E7C0E009E7C0E0C00B
:2022570004C005C0068F828B838AF01218F2AF82E58124FAF581D000EFFE60058E820223A1
:2022770072E66009740B28F9E7FF30E406758203022372E50C2444F9C000E50C2404F874BE
:202297001E27F6E4093708F609E708F6D00088047B007A408C828B838AF0C000120CD2AA5B
:2022B70082AB83ACF0FFE50C2404F987820987830987F0EA12350CA3EB12350CA3EC12351A
:2022D7000CA3EF12350CE50C2444F9E50C2404F8741A27F6E4093708F609E708F6D0007494
:2022F7001C28FC7B007A408C828B838AF0120807AA82AB83ACF0FFE50C2404F886820886FF
:20231700830886F0EA12350CA3EB12350CA3EC12350CA3EF12350CE50C2444F8741626FDC2
:20233700E40836FE0886078D828E838FF0E412350CA312350CA312350CA312350CE50C2404
:2023570044F8740126FDE40836FE0886078D828E838FF0740112350C758200850C81D00C91
:2023770022C00CE581F50C242AF581AD82AE83AFF0E50C241BF8A60508A60608A607900062
:20239700CAE0FAA3E0FBA3E0FCE50C2424F8A60208A60308A604E50C24F9F8E50C240EF927
:2023B700E6F708E609F708E609F7E50C240EF886820886830886F0E412350CA312350CE589
:2023D7000C2424F8E6084670067582050228AAE50C2424F8A90C09740126F7E4083609F77D
:2023F70008E609F7A80C0886820886830886F0123957FC20E0067582040228AAE50C2424D9
:20241700F8741A26FAE40836FB0886048A828B838CF0E50C240AF8123957F6A312395708BE
:20243700F6A312395708F6A312395708F6E50C2424F8E50C2407F9741626F7E4083609F7FA
:2024570008E609F7E50C2407F886820886830886F0123957FCA3123957FDA3123957FEA306
:20247700123957FFE50C240AF8E6C39CFC08E69DFD08E69EFE08E69FFFE50C2420F8A604D7
:2024970008A60508A60608A607E50C24FCF88604088605E4FEFFE50C2420F8C3E69C08E6A2
:2024B7009D08E69E08E69F5010E50C2420F8E50C24FCF9E6F708E609F7E50C2424F8E50CCB
:2024D7002415F9742226F7E4083609F708E609F7E50C2424F8E50C240AF9741E26F7E4080C
:2024F7003609F708E609F7E50C2424F8E50C2404F9740226F7E4083609F708E609F7E50CCA
:202517002424F8E50C2418F9742626F7E4083609F708E609F7E50C24FCF8E60846700302C5
:2025370028A7E50C2407F886820886830886F0E50C2411F9123957F7A312395709F7A31258
:20255700395709F7A312395709F7E50C2411F8E6700508E630E003022706E50C2411F808C0
:202577000808E67F00C313FC18E61318E613FAE50C2404F886820886830886F0123957FE99
:202597001EEA5206EEFB600302266EE50C2411F8E6084608460846702AE50C240AF886823B
:2025B7000886830886F0E50C2427F9123957F7A312395709F7A312395709F7A312395709CF
:2025D700F78043E50C2415F886820886830886F0123957FCA3123957FDA3123957FEA31299
:2025F70039578C828D838EF0C0031209FFAC82AD83AEF0FFD003E50C2427F8A60408A6055C
:2026170008A60608A607E50C2427F8C3740196E40896E40896E408964015A80C0886820891
:2026370086830886F0E412350C7582010228AAE50C2415F886820886830886F0E50C242704
:20265700F9E712350CA309E712350CA309E712350CA309E712350CE50C2415F886820886C6
:20267700830886F0123957FCA3123957FDA3123957FEA31239578C828D838EF0C003120B5E
:2026970097AC82AD83AEF0FFD003E50C2411F8A60408A60508A60608A607EC4D4E4F70157F
:2026B700A80C0886820886830886F0E412350C7582010228AA8B04E4FDFEFFE50C2411F822
:2026D700EC26FCED0836FDEE0836FEEF0836FFE50C2418F886820886830886F0EC12350C5C
:2026F700A3ED12350CA3EE12350CA3EF12350CE50C2407F886820886830886F0123957FECC
:20271700A3123957FF530701E50C241EF8E4C39EF674029F08F6E50C241EF8E50C24FCF955
:20273700C3E79609E708965010E50C24FCF8E50C241EF9E6F708E609F7E50C2407F8868238
:202757000886830886F0123957FCA3123957FD530501E50C2418F886820886830886F012CC
:202777003957FAA3123957FBA3123957FEA3123957FFE50C241EF8E6C0E008E6C0E0C004EE
:20279700C005C002C003C006C007E50C241BF886820886830886F012070BAF82E58124F8B5
:2027B700F581EF6015A80C0886820886830886F0E412350C7582010228AAE50C2407F88638
:2027D700820886830886F0E50C2411F9123957F7A312395709F7A312395709F7A31239574A
:2027F70009F7E50C241EF88602088603E4FEFFE50C2411F8EA26FAEB0836FBEE0836FEEF38
:202817000836FFE50C2407F886820886830886F0EA12350CA3EB12350CA3EE12350CA3EF25
:2028370012350CE50C24FCF8E50C241EF9E6C397F608E60997F6E50C240EF886820886830B
:202857000886F0123957FEA3123957FFE50C241EF8E62EFE08E63FFFE50C240EF88682086B
:2028770086830886F0EE12350CA3EF12350CE50C241BF8E60846700302252CE50C241BF84A
:20289700E50C241EF9E726F609E70836F602252C758200850C81D00C22C00C85810CC08254
:2028B700C083C0F0E581242FF5819000CAE0F5F0A3E045F070057C050229B9A80C087402FC
:2028D70026FCE40836FB088602E50C2407FD7E007F408C828B838AF0ED12350CA3EE12350E
:2028F7000CA3EF12350CE50C2413F9FD7E007F40C001E50C24FBF8E6C0E008E6C0E008E6AA
:20291700C0E0C005C006C007A80C0886820886830886F01218F2AF82E58124FAF581D00143
:202937008F04EC60030229B9E76062740B29F8E6FF30E457C004A80C08C001E50C2404F9CE
:20295700740526F7E4083609F708E609F7D00189038B027B007C408A828B838CF0120CD213
:20297700AA82AB83ACF0FFE50C2404F886820886830886F0EA12350CA3EB12350CA3EC12E4
:20299700350CA3EF12350CD00480027C03EC7012A80C0886820886830886F0120D54AF82C0
:2029B7008F048C82850C81D00C22C00C85810CC082C083C0F0E581242CF5819000CAE0F5E1
:2029D700F0A3E045F070057C05022AA5A80C08740226FCE40836FB088602E50C2404FD7EDC
:2029F700007F408C828B838AF0ED12350CA3EE12350CA3EF12350CE50C24FBF8E6084670B6
:202A170015A80C0886820886830886F0120D54AF828F04022AA5E50C2410FFFB7D007E40D5
:202A3700C007C003C005C006A80C0886820886830886F012134AAE82158115811581D007DF
:202A57008E04BC03027C00EC7044FE7D40E50C24FBF8E6C0E008E6C0E008E6C0E0C007C004
:202A770006C005A80C0886820886830886F0121696E58124FAF581A80C088682088683088C
:162A970086F0120EDCAF828F04BC03027C008C82850C81D00C2298
:202AAD009000CDE0FEA3E08E82F583221230B17E007F007582FFC007C0061230D9D006D06D
:202ACD00070EBE00010FC3EE940AEF6480948040E21230AE9000CDE4F0A3F07EE87F03759D
:202AED008201C007C006122ED09000DAE4F0A3F0A3F0A3F0758200122E39122DD6AD82D02E
:202B0D0006D007BD010280091EBEFF011FEE4F70CEEE4F7004900002229000DAE4F0A3F0D6
:202B2D00A3F0A3F0758237122E399000DAE4F0A3F0A3F0A3F0758229122E39122DD6E582AF
:202B4D0024FE400B9000CD7402F0E4A3F080099000CD7401F0E4A3F07ED07F07758201C073
:202B6D0007C006122ED0D006D0079000CDE0FCA3E0FDBC022FBD002C9000DAE4F0A3F0A3BB
:202B8D00F0A3F0758237C007C006122E399000DAE4F0A3F0A3F0A3F0758229122E39D0060B
:202BAD00D00780199000DAE4F0A3F0A3F0A3F0758201C007C006122E39D006D007C007C06F
:202BCD0006122DD6E582D006D00760091EBEFF011FEE4F7087EE4F7004900002229000DA52
:202BED00E4F0A3F0A3F0A3F075820D122E39122E15E5828583F045F060049000012290002E
:202C0D00DAE4F07402A3F0E4A3F0A3F0758210122E39122DD6E582600B9000CDE4F0A3F0BB
:202C2D00900001221230B41230B190000022AF83E5829000D2F0EFA3F09000D2E0FEA3E009
:202C4D00FFEE2ECF7E009000DAEEF0EFA3F0E4A3F0A3F0758211122E39122DD6E5826004CA
:202C6D00900001227EFF7FFFC007C006122DD6AD82D006D007BDFF091EBEFF011FEE4F70AE
:202C8D00E7EE4F7004900001229000CFE0FDA3E0FEA3E0FF7B007C007582FFC007C006C063
:202CAD0005C004C0031230D9AA82D003D004D005D006D0078D828E838FF0EA12350CA3ADDF
:202CCD0082AE830BBB00010C8C0274FF2A50C97582FF1230D97582FF1230D91230B1758211
:202CED00FF1230D990000022AF83E5829000D7F0EFA3F09000D7E0FEA3E0FFEE2ECF7E0059
:202D0D009000DAEEF0EFA3F0E4A3F0A3F0758218122E39122DD6E5826004900001227582C0
:202D2D00FE1230D99000D4E0FDA3E0FEA3E0FF7B007C00C3EC64809482502F8D828E838F5B
:202D4D00F0123957FAA3AD82AE838A82C007C006C005C004C0031230D9D003D004D005D08B
:202D6D0006D0070BBB00CC0C80C97582FF1230D97582FF1230D97582FF1230D9AF82BFFF60
:202D8D00F57582FF1230D91230B17582FF1230D9900000227582FF1230D97EF47F01758270
:202DAD00FFC007C0061230D9AD82758201C005122ED0D005D006D007BDFF0280091EBEFFBF
:202DCD00011FEE4F70D88D82229000D9E4F07E007F00C3EE9408EF6480948050247582FF38
:202DED00C007C0061230D9AD82D006D0079000D9EDF0BDFF0280038D82220EBE00D40F805B
:202E0D00D19000D9E0F58222122DD6AE827F007582FFC007C0061230D9AD82D006D0077C38
:202E2D0000ED4207EC42068F828E8322E5829000DEF01230AE7582FF1230D99000DEE0FFC4
:202E4D0074404FF582C0071230D9D0079000DAE0F508A3E0F509A3E0F50AA3E0F50B7903E9
:202E6D007A00EA20E742C0078900E8C40354F8F888F005F0A808AD09AE0AAF0B800DC3EFD1
:202E8D0013FFEE13FEED13FDE813F8D5F0F08882C007C002C0011230D9D001D002D007196D
:202EAD00B9FF011AD00780BAEF70057E95FF80047EFF7F008E821230D97582FF1230D9905F
:202ECD00000022E5829000DFF0E0FF7D007E0090010FEFF0E4A3F09003E8C007C006C00560
:202EED00123630AB82AC83D005D006D007C3ED9BEE64808CF063F08095F050070DBD00CF8E
:042F0D000E80CC2244
:202F1100758780759850438920D299758DFFD28E22AE823099FD8E99C29990000122AD8293
:202F3100AE83AFF07B007C008D828E838FF0123957FA602B0DBD00010E8A017A0089828A80
:202F510083C007C006C005C004C003122F22D003D004D005D006D0070BBB00CC0C80C90B86
:202F7100BB00010C8B828C832210980280FBAE997F008E828F8322C00C85810CC082C083A8
:202F9100C0F005817B007C007E007D00C006C005C004C003122F7AAA82D003D004D005D0B3
:202FB10006E50C2404F8A602E50C2404F8B6082E1BBBFF011C8B068C05900008C006C0050D
:202FD100C004C003122F22900020122F22900008122F22D003D004D005D006023099E50CDA
:202FF1002404F886027F008A828F83C006C005C004C003122F22D003D004D005D006E50CC3
:203011002404F8E50C24FDF986F0E7B5F02FC003C004A80C08EE26FAED0836FB0886048AB0
:20303100828B838CF0E412350C90000DC004C003122F22D003D004D004D0038056E50C247C
:20305100FBF8C3EB96EC64800886F063F08095F040110BBB00010CE50C24FBF8860608863C
:20307100058025A80C08EB26FAEC0836FE0886078A828E838FF0E50C2404F8E612350C0B20
:1D309100BB00010C8B068C05E50C2404F8E66003022F9D8B828C83850C81D00C22E4
:2030AE00C2B422D2B42253C37F2275C3001230B1C2B543C38053C3FD53C3FE43C32043C390
:2030CE001053C3F753C3FB43C34022E5829000E0F0C2B59000E0E0F5C5E5C430E7FB85C5FF
:0230EE0082223C
:2030F00090013DE4F090013AF090013BF090013CF0221230F0438901758C4C758A0043A892
:2031100082D28C22D28C22C28C22AF83E5829000E4F0EFA3F09000E67430F09000E704F0B9
:203130009000E804F09000E904F09000EA04F09000EB04F09000EC04F09000ED04F0900058
:20315000EE04F09000EF04F09000F0E4F09000E1E0FDA3E0FEA3E0FF9000F1EDF0EEA3F086
:20317000EFA3F09000E4E0FBA3E0FC30E7248D828E838FF0742D12350C9000F174012DF00E
:20319000E43EA3F0EFA3F09000E4C3E49BF0E49CA3F09000E4E0FEA3E0FF9000F4EEF0EF0A
:2031B000A3F09000F1E0FDA3E0FEA3E0FF0DBD00010E9000F4E0FBA3E0FC90011A740AF03B
:2031D000E4A3F08B828C83C007C006C005123764E5828583F0D005D006D0079000F4F0E513
:2031F000F0A3F09000F4E0F5F0A3E045F070BE8D828E838FF0E412350C1DBDFF011E9000AF
:20321000E4E0FBA3E0FC900111740AF0E4A3F08B828C83C007C006C005C004C0031236504C
:20323000A982AA83D003D004D005D006D007E924E6F582EA3400F583E08D828E838FF0126C
:20325000350C90011A740AF0E4A3F08B828C83C007C006C005123764E5828583F0D005D06E
:2032700006D0079000E4F0E5F0A3F09000E4E0F5F0A3E045F060030232092290013CE02411
:2032900001F0E0FFBF0A00400C90013CE4F090013BE02401F090013BE0FFBF3C00400C9055
:2032B000013AE02401F090013BE4F090013AE0FFBF3C00400C900139E02401F090013AE4CF
:2032D000F090013AE0FF7E009000E174F6F07400A3F0E4A3F08F828E8312311A90013BE052
:2032F000FF7E009000E174FAF07400A3F0E4A3F08F828E8312311A90013CE0FF7E009000BB
:20331000E174FEF07400A3F0E4A3F08F828E8312311A90000E740AF07582031202009000B3
:20333000F675F00012026775823A1202459000FA75F00012026775822E1202459000FE7532
:20335000F000020267900139E0FFE4FDCDC40354F8CDC403CD6DCD54F8CD6DFCEFC4035471
:20337000074DFDEFC40354F8FE7F0043058543045590013AE0F8E4F9FAC42354E0CAC423BE
:20339000CA6ACA54E0CA6AFBE9C423541F4AFAE9C42354E0C8C423C868C854E0C868F9E845
:2033B0004207E94206EA4205EB420490013BE0F8E4F9FAC313FBEA13FAE913F9E8134207A5
:2033D000E94206EA4205EB42048F828E838DF0EC22C020C0E0C0F0C082C083C007C006C09B
:2033F00005C004C003C002C001C000C0D075D00090013DE02401F0E030E0030234EF9001AD
:203410003DE4F012037AE58290013EF090013CE02401F0E0FFBF0A00400C90013CE4F090EF
:20343000013BE02401F090013BE0FFBF3C00400C90013AE02401F090013BE4F090013AE04E
:20345000FFBF3C00400C900139E02401F090013AE4F090013AE0FF7E009000E17402F07445
:2034700001A3F0E4A3F08F828E8312311A90013BE0FF7E009000E17406F07401A3F0E4A31F
:20349000F08F828E8312311A90013CE0FF7E009000E1740AF07401A3F0E4A3F08F828E8303
:2034B00012311A90000E740AF075820312020090010275F00012026775823A1202459001F7
:2034D0000675F00012026775822E12024590010A75F00012026790013EE0F5821201DCD018
:1C34F000D0D000D001D002D003D004D005D006D007D083D082D0F0D0E0D020321D
:063B2E0000000000000091
:06004000E478FFF6D8FD94
:20001E007909E94400601B7A01903B2B783675A001E493F2A308B8000205A0D9F4DAF275E2
:02003E00A0FF21
:1B350C0020F71130F6138883A88220F509F6A8837583002280FEF280F5F022BE
:20352700C00C85810CE50C24FDF8868318868218E493A324DB600C2425600512361580F05B
:2035470002362DD2D5E493A3C083C082B4731486F0188683188682181239576054A312366E
:203567001580F5B4630818E6181236158043B46417E630E74618E6F42401F608E6F43400D0
:20358700F6742D1236158033B4782D868318868218E4123606E583123605E583123606E561
:2035A70082123605E58212360630D5057430123615D082D083023537B475F6E6FA18E6F96C
:2035C700187C107D271235F0FF7CE87D031235F0C4F5837C647D001235F04283E975F00A5E
:2035E70084C445F0F582EF80A97B000BC3E99CF9EA9DFA50F61BE92CF9EA3DFAEB22C454BB
:203607000F700320D51FC2D52490D43440D4C083C082C0F0F582E8C0E0122F22D0E0F8D097
:09362700F0D082D08322D00C22E5
:20363000AA83AB828BF090010FE0A4F8A9F08AF0E0A429F98BF0A3E0A429F583888222223F
:20365000AF83E582900113F0EFA3F0900113E0FEA3E0FF30E709C3E49EFCE49FFD80048EB4
:20367000048F05900111E0FEA3E0FF30E709C3E49EFAE49FFB80048E028F03900115EAF09D
:20369000EBA3F08C828D831236B8AE82AF83900113E0A3E030E70CC3E49EFCE49FFD8C8223
:0836B0008D83228E828F83229C
:2036B800AF83E582900117F0EFA3F0900119E4F0900117E0FEA3E0FF7D00900115E0FBA318
:2036D800E0FC235401FA7036EB2BFBEC33FC900115EBF0ECA3F0900115E0FBA3E0FCC3EE01
:2036F8009BEF9C5011ECC313CB13CBFC900115EBF0ECA3F080080D900119EDF080BC9001DB
:2037180019E0FF900117E0FDA3E0FE900115E0FBA3E0FCC3ED9BEE9C400B900117EDC39B80
:20373800F0EE9CA3F0900115E0FDA3E0C313CD13CDFE900115EDF0EEA3F08F061FEE70C304
:0C375800900117E0FEA3E08E82F58322B2
:20376400AF83E58290011CF0EFA3F090011CE0FEA3E0FF30E709C3E49EFCE49FFD80048E8D
:20378400048F0590011AE0FEA3E0FF33E433FB6009C3E49EF9E49FFA80048E018F029001E4
:2037A4001EE9F0EAA3F08C828D83C0031237D6AE82AF83D00390011CE0A3E033E4336B6037
:1237C4000CC3E49EFCE49FFD8C828D83228E828F8322A2
:200046007800E84400600A790175A000E4F309D8FC7835E84401600C7902900001E4F0A380
:04006600D8FCD9FAEF
:2037D600AF83E582900120F0EFA3F0900122E4F0A3F090011EE0FEA3E0FF7D10900120E0D0
:2037F600FBA3E0FC900124235401F0EB2BFBEC33FC900120EBF0ECA3F0900122E0FBA3E0D4
:20381600FCEB2BFBEC33FC900122EBF0ECA3F0900124E06008900122E043E001F090012206
:20383600E0FBA3E0FCC3EB9EEC9F4013900122EBC39EF0EC9FA3F0900120E043E001F0DD5F
:0D3856009B900120E0FEA3E08E82F583220E
:20386300AF82AE83ADF0FC900129EFF0EEA3F0EDA3F0ECA3F090012DE4F0A3F0A3F0A3F0E6
:20388300900125E0FCA3E0FDA3E0FEA3E0FF7B20C003900129E0F8A3E0F9A3E0FAA3E0FBA9
:2038A300900131235401F0E828F8E933F9EA33FAEB33FB900129E8F0E9A3F0EAA3F0EBA375
:2038C300F090012DE0F8A3E0F9A3E0FAA3E0FBE828F8E933F9EA33FAEB33FB90012DE8F005
:2038E300E9A3F0EAA3F0EBA3F0D003900131E0600890012DE043E001F090012DE0F50DA37C
:20390300E0F50EA3E0F50FA3E0F510C3E50D9CE50E9DE50F9EE5109F401F90012DE50DC3D9
:203923009CF0E50E9DA3F0E50F9EA3F0E5109FA3F0900129E043E001F01BEB6003023893A5
:14394300900129E0FCA3E0FDA3E0FEA3E08C828D838EF02298
:0D001100758120120478E582600302000E64
:1C39570020F71430F6148883A88220F507E6A88375830022E280F7E49322E0227F
:20397300A882A983AAF0FB88F0900132E0A4FCADF089F0E0A42DFDE435F0FE88F0A3E0A424
:203993002DFDE5F03EFEE433FF89F0E0A42EFEE5F03FFF88F0A3E0A42EFEE5F03FFF8AF02F
:2039B300900132E0A42EFEE5F03FFF8BF0E0A42FFF8AF0A3E0A42FFF89F0A3E0A42FFF881C
:0C39D300F0A3E0A42F8EF08D838C8222E4
:00000001FF
