:020000040800F2
:100000000000022001820008650A0008670A000853
:10001000690A00086B0A00086D0A00080000000069
:100020000000000000000000000000006F0A00084F
:10003000710A000800000000730A0008750A000831
:100040005182000851820008518200085182000844
:100050005182000851820008518200085182000834
:100060005182000851820008518200085182000824
:100070005182000851820008518200085182000814
:100080007D0A00085182000851820008000000002B
:100090000000000000000000000000005182000885
:1000A00051820008518200085182000851820008E4
:1000B00051820008518200085182000851820008D4
:1000C00051820008518200085182000851820008C4
:1000D000518200085182000851820008000000008F
:1000E000518200085182000851820008000000007F
:1000F0000000000000000000000000005182000825
:10010000000000005182000851820008518200085E
:1001100000000000000000000000000000000000DF
:100120005182000851820008518200085182000863
:1001300051820008000000000000000000000000E4
:100140000000000000000000000000008D0A000810
:100150005182000851820008518200085182000833
:1001600051820008518200080000000000000000D9
:10017000000000000000000000000000000000007F
:100180000000000051820008000000000000000094
:080190005182000851820008B1
:1001980010B5054C237833B9044B13B10448AFF3B9
:1001A80000800123237010BD900000200000000093
:1001B800F084000808B5034B1BB103490348AFF3AB
:1001C800008008BD0000000094000020F0840008B2
:1001D80053B94AB9002908BF00281CBF4FF0FF31A6
:1001E8004FF0FF3000F074B9ADF1080C6DE904CEA2
:1001F80000F006F8DDF804E0DDE9022304B07047FA
:100208002DE9F047089D04468E46002B4DD18A42C1
:10021800944669D9B2FA82F252B101FA02F3C2F1F4
:10022800200120FA01F10CFA02FC41EA030E944085
:100238004FEA1C48210CBEFBF8F61FFA8CF708FBA6
:1002480016E341EA034306FB07F199420AD91CEB7E
:10025800030306F1FF3080F01F81994240F21C81B0
:10026800023E63445B1AA4B2B3FBF8F008FB1033F8
:1002780044EA034400FB07F7A7420AD91CEB04042D
:1002880000F1FF3380F00A81A74240F207816444FD
:10029800023840EA0640E41B00261DB1D440002382
:1002A800C5E900433146BDE8F0878B4209D9002DE6
:1002B80000F0EF800026C5E9000130463146BDE870
:1002C800F087B3FA83F6002E4AD18B4202D38242DA
:1002D80000F2F980841A61EB030301209E46002D89
:1002E800E0D0C5E9004EDDE702B9FFDEB2FA82F2DE
:1002F800002A40F09280A1EB0C014FEA1C471FFA3C
:100308008CFE0126200CB1FBF7F307FB131140EA22
:1003180001410EFB03F0884208D91CEB010103F1EF
:10032800FF3802D2884200F2CB804346091AA4B2B1
:10033800B1FBF7F007FB101144EA01440EFB00FE85
:10034800A64508D91CEB040400F1FF3102D2A645EA
:1003580000F2BB800846A4EB0E0440EA03409CE789
:10036800C6F12007B34022FA07FC4CEA030C20FA36
:1003780007F401FA06F31C43F9404FEA1C4900FA56
:1003880006F3B1FBF9F8200C1FFA8CFE09FB1811D3
:1003980040EA014108FB0EF0884202FA06F20BD946
:1003A8001CEB010108F1FF3A80F08880884240F296
:1003B8008580A8F102086144091AA4B2B1FBF9F0DA
:1003C80009FB101144EA014100FB0EFE8E4508D9D5
:1003D8001CEB010100F1FF346CD28E456AD902385A
:1003E800614440EA0840A0FB0294A1EB0E01A1423F
:1003F800C846A64656D353D05DB1B3EB080261EBAD
:100408000E0101FA07F722FA06F3F1401F43C5E986
:10041800007100263146BDE8F087C2F12003D840BC
:100428000CFA02FC21FA03F3914001434FEA1C47FE
:100438001FFA8CFEB3FBF7F007FB10360B0C43EAF0
:10044800064300FB0EF69E4204FA02F408D91CEBA0
:10045800030300F1FF382FD29E422DD9023863449E
:100468009B1B89B2B3FBF7F607FB163341EA03413E
:1004780006FB0EF38B4208D91CEB010106F1FF388D
:1004880016D28B4214D9023E6144C91A46EA004684
:1004980038E72E46284605E70646E3E61846F8E616
:1004A8004B45A9D2B9EB020864EB0C0E0138A3E75F
:1004B8004646EAE7204694E74046D1E7D0467BE740
:1004C800023B614432E7304609E76444023842E7B8
:1004D800704700BFF0B58BB00024059406940794CC
:1004E8000894099400942D4B1A6B42F080021A6309
:1004F8001A6B02F080020092009A01941A6B42F083
:1005080004021A631A6B02F004020192019A02941F
:100518001A6B42F001021A631A6B02F0010202928E
:10052800029A03941A6B42F002021A631A6B02F0E1
:1005380002020392039A04941A6B42F008021A63A7
:100548001B6B03F008030493049B154F22460121FB
:10055800384600F0D2FE134E22464FF210013046C4
:1005680000F0CBFE0125059506950794089405A98A
:10057800384600F0DBFD05950694079405A90A485E
:1005880000F0D4FD4FF210030593069507940894E4
:1005980005A9304600F0CAFD0BB0F0BD0038024096
:1005A80000080240000C02400000024000B583B081
:1005B80000210191094B1A6B42F400121A631B6B5C
:1005C80003F400130193019B0A46102000F000FB7E
:1005D800102000F035FB03B05DF804FB0038024042
:1005E80072B6FEE708B50A480A4B03600A4B436037
:1005F80000238360C3604FF48042026143618361DA
:10060800C361036201F0A6FE00B908BDFFF7E8FF69
:10061800AC00002000540040A086010008B50B483B
:100628000B4B43654FF4007282650023C365036674
:1006380042664AF644428266C3660367436754309B
:1006480002F0C0F900B908BDFFF7CAFFAC000020EE
:10065800003C004000B595B03022002108A807F002
:100668003DFE002303930493059306930793019398
:100678001F4A116C41F080511164126C02F08052D3
:100688000192019A02931B4B1A6842F440421A6085
:100698001B6803F440430293029B012308934FF421
:1006A8008033099302220E924FF480030F930423A0
:1006B8001093602111911292139308A802F0D4FEAE
:1006C80088B90F23039302230493002305934FF45F
:1006D800805206920793032103A803F02BF920B94F
:1006E80015B05DF804FBFFF77BFFFFF779FF00BF4C
:1006F800003802400070004030B593B000F016FAA0
:10070800FFF7A8FFFFF7E6FEFFF750FFFFF76AFFC6
:10071800FFF784FF03F004FF07F0BAF8444D002404
:100728001194442205F11001684607F0C9FD95E8C7
:100738000F0007F03BFA962007F03BFB032007F079
:1007480003FB05F1540007F029FC254609E00022C7
:100758004FF48051374800F0D0FD374B1B78022BFF
:100768000ED007F0B5F8344B1B78012BEFD0032BD4
:10077800F3D101224FF480512E4800F0BEFDECE782
:1007880014B301212D4800F0B1FD0028E9D0012261
:100798004FF40051274800F0B0FD4FF4FA7000F014
:1007A800F1F9274807F05EFC07F07EFC07F00EFD24
:1007B80088B900224FF400511E4800F09EFD4FF406
:1007C8007A7000F0DFF9CCE700221E491E4806F0D7
:1007D8004FFC0124D5E707F08DFC0121174800F0F4
:1007E80085FD0028E2D095F001050BD001224FF4D9
:1007F8008041104800F081FD07F0E0FCC82000F0BF
:10080800C1F9D3E700224FF480410A4800F075FD92
:100818004FF47A7000F0B6F90121084800F066FD3F
:1008280010B107F0C1FCC1E707F0CCFCBEE700BF80
:10083800AC000020000C02405006002000000240DE
:100848003C860008B4010020EC03002082B000219F
:1008580000910B4B5A6C42F480425A645A6C02F471
:1008680080420092009A01911A6C42F080521A64F8
:100878001B6C03F080530193019B02B0704700BFCB
:100888000038024030B589B00023039304930593E0
:10089800069307930268144B9A4201D009B030BD01
:1008A80000250195114C236B43F002032363236B4E
:1008B80003F002030193019B4FF410730393122377
:1008C8000493032306930423079303A9084800F01D
:1008D8002DFC0295236C43F400132364236C03F46A
:1008E80000130293029BD9E70054004000380240ED
:1008F800000402402DE9F04790B000230B930C93BD
:100908000D930E930F9305930693079308930993FA
:100918000A9302684A4B9A4202D010B0BDE8F087A9
:10092800044601230593B42307930823069304235D
:10093800089305A803F0C4F800287AD1002501958A
:10094800404B1A6C42F400421A641A6C02F40042DA
:100958000192019A02951A6B42F001021A631A6B0E
:1009680002F001020292029A03951A6B42F0020207
:100978001A631A6B02F002020392039A04951A6B27
:1009880042F004021A631B6B03F004030493049BF4
:1009980010230B9302260C960D950E9506270F979C
:1009A8000BA9294800F0C2FB4FF48068CDF82C80D1
:1009B8000C960D950E950F97DFF89CA00BA9504645
:1009C80000F0B4FB4FF48059CDF82C900C960D959F
:1009D8000E9507230F930BA9504600F0A7FBCDF8FF
:1009E8002C900C960D950E950F970BA9174800F0B3
:1009F8009DFB1748174B0360456040238360C56023
:100A0800C0F810804FF4006343614FF400538361D2
:100A18004FF48073C3610562042343620323836236
:100A2800C562056300F0AEF930B9094BA3639C6356
:100A380073E7FFF7D5FD81E7FFF7D2FDF5E700BFC4
:100A4800003C00400038024000000240000802401C
:100A5800480100208860024000040240FEE7FEE7EB
:100A6800FEE7FEE7FEE770477047704708B500F0FD
:100A780077F808BD08B5024800F06AFA08BD00BF5B
:100A88004801002008B5024801F058F908BD00BF28
:100A98002C0A002008B503460B4A126842B10A4ADC
:100AA800106803446A46934206D8074A136008BD93
:100AB800054A06491160F2E707F0C8FB0C230360FA
:100AC8004FF0FF30F3E700BFA8010020E01F00202F
:100AD800034AD2F8883043F47003C2F8883070476C
:100AE80000ED00E010B504460E4B18784FF47A7309
:100AF800B3FBF0F30C4A1068B0FBF3F000F0AEF86B
:100B080068B90F2C01D901200AE0002221464FF0D4
:100B1800FF3000F05DF8034B5C60002000E001202E
:100B280010BD00BF040000200000002008B50B4BDA
:100B38001A6842F400721A601A6842F480621A60F5
:100B48001A6842F480721A60032000F02FF80F2010
:100B5800FFF7C8FFFFF77AFE002008BD003C0240FF
:100B6800034A1168034B1B780B441360704700BF9E
:100B7800B001002004000020014B1868704700BF36
:100B8800B001002038B50446FFF7F6FF0546B4F17A
:100B9800FF3F02D0044B1B781C44FFF7EDFF401BBE
:100BA800A042FAD338BD00BF04000020074AD3682A
:100BB80023F4E0631B041B0C000200F4E060034311
:100BC80043F0BF6343F40033D360704700ED00E0A7
:100BD80000B5194BDB68C3F30223C3F1070CBCF162
:100BE800040F28BF4FF0040C03F1040EBEF1060FEA
:100BF80018D9033B4FF0FF3E0EFA0CFC21EA0C011A
:100C080099400EFA03F322EA0303194300280BDB89
:100C18000901C9B200F1604000F5614080F8001395
:100C28005DF804FB0023E5E700F00F000901C9B2F5
:100C3800024B1954F4E700BF00ED00E014ED00E0AA
:100C4800002807DB00F01F02400901239340024AF5
:100C580042F82030704700BF00E100E00138B0F1F1
:100C6800807F0BD24FF0E0235861054AF02182F8CB
:100C780023100020986107221A61704701207047ED
:100C880000ED00E030B405682C6824F480242C6062
:100C9800046863608368402B05D003689960036823
:100CA800DA6030BC704703689A600368D960F8E777
:100CB80010B40368D9B210390C4AA2FB01421209D8
:100CC8000B4CA25CC2655F2909D923F47F7323F01A
:100CD800030304338365806D5DF8044B704723F488
:100CE8007F7323F003038365F5E700BFABAAAAAAC5
:100CF80020850008836A826992B9012B0AD0022BE9
:100D080002D00BB100207047C36A13F0807F28D14E
:100D180000207047C36AB3F1C07F24D00020704719
:100D2800B2F5005F09D0022B25D9032B25D1C36A60
:100D380013F0807F23D100207047032B03D8DFE80E
:100D480003F01404140A00207047C36A13F0807F6C
:100D58000DD100207047C36AB3F1C07F09D00020CD
:100D6800704701207047012070470120704701201B
:100D7800704701207047012070470020704701200C
:100D88007047000070B50446FFF7F6FE002C5BD0F4
:100D98000546022384F83530002384F8343022686D
:100DA800136823F00103136023681A6812F0010F17
:100DB8000AD0FFF7E1FE431B052BF5D92023636515
:100DC800032084F8350070BD1A6820481040616817
:100DD800A2680A43E1680A4321690A4361690A4330
:100DE800A1690A43E1690A43216A0A430243616A25
:100DF80004291ED01A602668756925F00705636AFC
:100E08001D43042B07D1A36A1D43E36A1BB1204687
:100E1800FFF770FF90B975612046FFF749FFE26D53
:100E28003F239340836000206065012384F83530B8
:100E3800C9E7E16A206B01430A43DBE740236365A6
:100E4800012084F83500BEE70120BCE73F8010F0A0
:100E580038B50446856D90F8340001282BD0012060
:100E680084F8340094F83500C0B2012804D0002377
:100E780084F83430022038BD022084F83500002080
:100E880060652046FFF7FEFEE26D3F239340AB60AE
:100E98002268136843F016031360236C23B1226899
:100EA800136843F0080313602268136843F00103D2
:100EB80013600020DFE70220DDE770B50446866D89
:100EC800FFF75AFE94F83530DBB2022B06D08023A8
:100ED8006365002384F83430012070BD054622681C
:100EE800136823F0160313602268536923F0800304
:100EF8005361236CE3B12268136823F0080313607D
:100F08002268136823F00103136023681B6813F039
:100F1800010F11D0FFF730FE431B052BF5D9202315
:100F28006365032084F83500002384F83430D4E75F
:100F3800A36C002BDFD1E3E7E26D3F239340B3605E
:100F4800012384F83530002084F83400C5E7000018
:100F5800F0B583B0044600230193724B1D68724BB1
:100F6800A3FB0535AD0A876D3E68C26D0823934023
:100F7800334210D003681A6812F0040F0BD01A68B5
:100F880022F004021A60C26D08239340BB60436DCF
:100F980043F001034365E26D01239340334209D0D6
:100FA8002268526912F0800F04D0BB60636D43F071
:100FB80002036365E26D04239340334209D022683B
:100FC800126812F0020F04D0BB60636D43F0040393
:100FD8006365E26D10239340334224D0226812687F
:100FE80012F0080F1FD0BB6023681A6812F4802F14
:100FF8000DD01B6813F4002F04D1236C9BB120463D
:10100800984710E0A36C73B1204698470BE01A6824
:1010180012F4807F03D11A6822F008021A60236C48
:101028000BB120469847E26D20239340334255D0B8
:101038002268126812F0100F50D0BB6094F8353057
:10104800DBB2052B0ED023681A6812F4802F33D038
:101058001B6813F4002F2AD1636C002B3ED0204666
:1010680098473BE02268136823F016031360226850
:10107800536923F080035361236CA3B1226813687A
:1010880023F008031360E26D3F239340BB60012304
:1010980084F83530002384F83430236D002B3FD09A
:1010A800204698473CE0A36C002BE7D1EBE7E36BC5
:1010B800A3B12046984711E01A6812F4807F09D13D
:1010C8001A6822F010021A60012384F835300023D0
:1010D80084F83430E36B0BB120469847636DFBB15D
:1010E800636D13F0010F17D0052384F8353022689B
:1010F800136823F001031360019B01330193AB4292
:1011080004D823681B6813F0010FF5D1012384F874
:101118003530002384F83430E36C0BB1204698470F
:1011280003B0F0BD00000020B5814E1B00230F2B3B
:1011380000F2D28070B582B060E085685E0003245A
:10114800B44025EA0405CC68B4402C438460456863
:1011580025EA02054C68C4F300129A402A4342600B
:101168005AE0DC08083450F8246003F007029500C0
:101178000F22AA4026EA020E0A69AA4042EA0E0293
:1011880040F824205CE0042200E0002202FA0EF27B
:101198002A430234514D45F82420514A14686FEA15
:1011A8000C0224EA0C054E6816F4803F01D04CEA84
:1011B80004054B4C2560646802EA04054E6816F481
:1011C800003F01D04CEA0405454C6560A46802EA7A
:1011D80004054E6816F4801F01D04CEA0405404C03
:1011E800A560E46822404D6815F4001F01D04CEA60
:1011F80004023B4CE26001330F2B6BD801229A406A
:101208000C6804EA020C32EA0404F4D14C6804F0D5
:101218000304013C012C90D94A6802F00302032A16
:1012280009D0C4685D000322AA4024EA02048A683F
:10123800AA402243C2604A6802F00302022A90D000
:1012480004684FEA430E032202FA0EF224EA02046B
:101258004A6802F0030202FA0EF2224302604A6868
:1012680012F4403FC7D0002201921E4A546C44F445
:1012780080445464526C02F480420192019A9C08A2
:10128800A51C164A52F8255003F003024FEA820EB5
:101298000F2202FA0EF225EA0205134A90423FF4A1
:1012A80074AF02F5806290420ED002F580629042DF
:1012B8000CD002F5806290420AD002F5806290421A
:1012C8003FF461AF072261E701225FE702225DE791
:1012D80003225BE702B070BD704700BF00380140D1
:1012E800003C0140003802400000024003691942F6
:1012F80001D001207047002070470AB18161704712
:10130800090481617047F8B50668346A04F00F076C
:10131800C4F34343C4F30A14022B00D0F8BD0546B6
:10132800002CFBD02C2303FB0703596C0029F5D0B4
:101338002C2303FB07031A6D2244DB6C9A4206D95F
:101348002C2000FB0755042385F86030E6E7224689
:10135800304602F08EFD2C2303FB07535A6C2244BF
:101368005A641A6D22441A6506EB4716D6F81025FA
:10137800C2F3C942B3F84030A342CFD1002ACDD03E
:10138800D6F8003523F0804343F00043C6F8003513
:101398002C2303FB075595F8543083F0010385F897
:1013A8005430BBE7F0B585B004469DF828509DF849
:1013B8002C60BDF8307090F8F802012837D0012071
:1013C80084F8F8022C2000FB01404FF0000C80F854
:1013D8003DC080F83830A0F8407080F8391080F8A7
:1013E8003F6002F07F0C80F83AC012F0800F16D1EF
:1013F8002C2000FB01404FF0000C80F83BC02C2053
:1014080000FB014080F83C50029701960095206847
:1014180002F079FE002384F8F83205B0F0BD2C20E4
:1014280000FB01404FF0010C80F83BC0E7E70220C9
:10143800F3E790F8F832012B0BD010B504460123DE
:1014480080F8F832006802F0F2FE002084F8F80212
:1014580010BD0220704700284DD070B58AB00446F0
:10146800056890F8F932002B40D0032384F8F9324C
:10147800EB6B13F4807F01D100232361206802F015
:10148800ACFCA4465CF8106BEE46BCE80F00AEE876
:101498000F00BCE80F00AEE80F009CE803008EE8E0
:1014A8000300251D95E80E00304602F04BFC012193
:1014B800206802F010FDA4465CF8106BEE46BCE80C
:1014C8000F00AEE80F00BCE80F00AEE80F009CE884
:1014D80003008EE8030095E80E00304602F02CFD6C
:1014E800012384F8F93200200AB070BD80F8F83280
:1014F80006F0F6F9B9E70120704770B59DF810506D
:10150800BDF818604FF02C0C0CFB010C8CF83B203C
:101518008CF83F307DB964464FF0030C84F842C024
:101528009DF81CC084F83DC0032B00F28180DFE8E1
:1015380003F00A7929512C2404FB01044FF0020C12
:1015480084F842C0F0E7012D72D1002A70D12EB97B
:101558002C2303FB0103012283F855202C2303FBD2
:10156800010393F8553033B92C2303FB0103002200
:1015780083F842205CE02C2303FB0103022283F85A
:10158800422055E092B92C2303FB010393F8553010
:101598002BB92C2303FB010383F8422048E02C23BA
:1015A80003FB0103022283F8422041E02C2303FBC2
:1015B800010393F8543033B92C2303FB01030022B1
:1015C80083F8422034E02C2303FB0103022283F832
:1015D80042202DE092B92C2303FB010393F85530E8
:1015E8002BB92C2303FB010383F8422020E02C2392
:1015F80003FB0103022283F8422019E02C2303FB9A
:10160800010393F8543033B92C2303FB0103002260
:1016180083F842200CE02C2303FB0103022283F809
:10162800422005E02C2303FB0103002283F842201B
:101638002C2301FB03F3C218059C5464D6640024D0
:1016480082F86040146582F8391082F8614003F12D
:101658003801027C0144006802F06EFE70BD30B5AE
:1016680083B004460568D5F840340193D5F8403472
:101678000093009B23F02E030093019B13F0020FAD
:1016880007D0019B13F0010F25D1009B43F0020303
:101698000093019B13F0080F10D0009B43F0080340
:1016A8000093019B13F0040F2DD0A369022B15D0D2
:1016B800E368012B22D0204606F071F9019B13F054
:1016C800200F03D0009B43F020030093009BC5F834
:1016D800403403B030BD06F055F9D6E7019B03F45A
:1016E800C023B3F5802F04D00121206802F09AFCB2
:1016F800E1E70221206802F095FCDCE74EF6602263
:10170800C5F80424D7E7204606F04FF9D6E7F8B520
:1017180005460E46076807EB411707F5A064A3685E
:1017280013F0040F40D00423A360E36843F00203DE
:10173800E360A36813F4007F40F09380A36813F07C
:10174800010F00F0D7802B6943B12C2303FB06530C
:101758009A6C2169C1F31201521A1A652C2303FBF2
:101768000653012283F861200021D965A26093F80D
:101778003F30002B00F08180022B7ED0032B00F03D
:101788009380012B40F083802C2303FB0653012216
:1017980083F8602093F85410514083F85410314670
:1017A800284606F0FBF872E0A36813F4807F06D1A0
:1017B800A36813F0200F13D02023A360B9E74FF4D8
:1017C8008073A3602C2303FB0103072283F86120A5
:1017D800E36843F00203E360006802F028FDA8E72D
:1017E800A36813F0080F17D1A36813F4806F25D1ED
:1017F800A36813F0800F9CD0E36843F00203E36012
:101808002C2303FB0103062283F86120006802F001
:101818000EFD8023A3608CE7E36843F00203E360D6
:101828002C2303FB0103052283F861201023A36006
:101838000823A360006802F0FAFC7AE7E36843F043
:101848000203E3602C2303FB0103082283F86120D1
:101858001023A3604FF48063A360006802F0E7FCE4
:1018680067E7E36843F00203E3603146286802F063
:10187800DEFC4FF40073A360F8BDE36843F0020395
:10188800E3603146286802F0D2FC1023A3602B697C
:10189800012B1AD02C2101FB065595F8543083F002
:1018A800010385F85430E7E7D7F8003543F00053D3
:1018B800C7F800352C2303FB0653012283F8602068
:1018C8003146284606F06AF8E1E72C2303FB065365
:1018D8009A6CB3F84030B2FBF3F313F0010FCBD09E
:1018E8002C2303FB065595F8543083F0010385F843
:1018F8005430C1E7A36813F0020F64D0E36823F003
:101908000203E3602C2303FB065393F86130012B99
:1019180013D0052B23D0062B28D0082B26D0032B39
:1019280042D0072B0FD12C2303FB0653DA6D01326B
:10193800DA65042283F8602005E02C2303FB0653B4
:10194800012283F860200223A3602C2303FB0653A3
:1019580093F860203146284606F020F88CE72C23BF
:1019680003FB0653052283F86020ECE72C2202FBD8
:101978000652D36D0133D365022B06D913460022D4
:10198800DA65042283F86020DDE72C2303FB065385
:10199800022283F86020D7F8003523F0804343F013
:1019A8000043C7F80035CEE72C2303FB0653022279
:1019B80083F86020D7F8003523F0804343F00043D4
:1019C800C7F80035BFE7A36813F0100F3FF454AF12
:1019D8002C2303FB065393F83F30032B0CD00BB199
:1019E800022B06D12C2303FB06530022DA652B6950
:1019F80083B11023A3603FE72C2303FB0653002287
:101A0800DA65E36843F00203E3603146286802F0D0
:101A18000EFCEEE72C2303FB0653032283F8612018
:101A2800E36843F00203E3603146286802F0FFFBF5
:101A3800DFE770B5036803EB411303F5A064A26800
:101A480012F0040F06D00423A360E36843F00203F6
:101A5800E36070BD05460E46A26812F0200F18D04C
:101A68002023A3602C2303FB010393F83D30012BB3
:101A7800EFD12C2303FB0103002283F83D2002222F
:101A880083F86020E3681343E360006802F0CFFB4B
:101A9800DFE7A26812F4007F24D1A26812F0010FD8
:101AA8002BD02C2303FB01030022DA65A36813F073
:101AB800400F07D02C2303FB0103012283F83D20AC
:101AC8004023A360E36843F00203E36031462868DB
:101AD80002F0ADFB0123A3602C2101FB065585F81C
:101AE8006130B6E7E36843F00203E360006802F0A0
:101AF8009EFB4FF40073A360ABE7A26812F0400F9F
:101B080029D1A26812F0080F3AD1A26812F0100F7A
:101B180046D02C2303FB01030022DA65032283F855
:101B2800612093F83D305BB92C2303FB010393F844
:101B38003C302BB92C2303FB0103012283F83D2001
:101B4800E36843F00203E3603146286802F06FFB64
:101B58001023A3607DE72C2303FB0103042283F8F1
:101B68006120012283F83D200022DA65E36843F012
:101B78000203E360006802F05AFB4023A36068E7B1
:101B88000823A360E36843F00203E360006802F0FF
:101B98004EFB2C2303FB0655052385F8613058E7D7
:101BA800A26812F0800F29D0036983B12C2202FBAE
:101BB8000102D36D0133D365022B16D82C2303FB06
:101BC8000105022385F860308023A36041E72C23B8
:101BD80003FB0103062283F86120E36843F0020354
:101BE800E360006802F023FBEEE713460022DA65A3
:101BF800042283F8602005F0D1FEE5E7A26812F41C
:101C0800806F27D1A26812F0020F3FF422AFE2687A
:101C180022F00202E2602C2202FB010292F861200B
:101C2800012A2AD0032A5BD0042A6BD0052A70D057
:101C3800062A01D0082A59D12C2101FB0651CA6D68
:101C48000132CA65022A6AD90022CA65042281F8CB
:101C580060204BE0E36843F00203E360006802F0B1
:101C6800E6FA1023A3604FF48063A3602C2303FBE0
:101C78000655082385F86130EBE62C2303FB0103A6
:101C880083F8602093F83F30023BDBB293422DD8B3
:101C9800016941B92C2303FB060393F8552082F010
:101CA800010283F85520012920D12C2303FB065378
:101CB800DB6CDBB12C2202FB0652B2F84020134445
:101CC800013BB3FBF2F313F0010F0FD02C2303FBFE
:101CD800065393F8552082F0010283F8552005E059
:101CE8002C2303FB0103022283F860200223A36054
:101CF8002C2303FB065393F860203146284605F051
:101D08004DFEA6E62C2303FB0103022283F8602084
:101D1800ECE72C2303FB010383F86020E6E72C2281
:101D280002FB0652022182F86010D3F8002522F047
:101D3800804242F00042C3F80025D7E7F8B50446D0
:101D48000568284602F0C3F8012800D0F8BD2068CD
:101D580002F0B9F80028F9D0206802F0B4F810F4BD
:101D6800001F03D023684FF400125A61206802F064
:101D7800AAF810F4801F03D023684FF480125A6128
:101D8800206802F0A0F810F0806F03D023684FF0AD
:101D980080625A61206802F096F810F0020F02D0B3
:101DA800236802225A61206802F08DF810F0005F63
:101DB80008D023684FF000525A61D5F8403413F028
:101DC800010F1DD0206802F07EF810F0807F26D128
:101DD800206802F078F810F0080F24D1206802F08B
:101DE80072F810F0100F25D1206802F06CF810F08E
:101DF800007FABD0206802F015FA074600262CE0D9
:101E08001021284601F0F0FF284602F005F80121CC
:101E1800206802F007F9204605F0BAFDD2E720460F
:101E2800FFF71DFCD4E7204605F0A6FD236808222D
:101E38005A61D3E72268936923F01003936120461F
:101E4800FFF761FA2268936943F010039361CBE7C7
:101E5800F1B22046FFF7EDFD0136A368B34212D96F
:101E680006F00F0327FA03F313F0010FF4D005EB84
:101E78004613D3F8003513F4004FE9D0F1B22046E9
:101E8800FFF745FCE8E723684FF000725A615DE709
:101E980090F8F832012B0ED010B50446012180F8D5
:101EA800F812006802F0FCF8206801F090FF0020AA
:101EB80084F8F80210BD0220704790F8F832012B20
:101EC8000BD010B50446012380F8F832006802F000
:101ED800E9FA002084F8F80210BD0220704708B51E
:101EE800006802F0BEF808BD2C2303FB010090F83F
:101EF800600070472C2303FB0100006D704708B594
:101F0800006802F0FBF808BD08B5006802F0EBF8BD
:101F180008BD03685A6912F4806F01D10020704728
:101F28006FF480625A6100230363202280F83D2009
:101F380080F83E30026C42F00402026480F83C30C3
:101F4800012070472DE9F04107460D4690461E4690
:101F580024E0FEF711FE069BC01AB04200D8EEB985
:101F680000233B63202287F83D2087F83E303A6CF7
:101F780042F020023A6487F83C3001201EE03B68BA
:101F88009C6925EA040C1FFA8CFCBCFA8CFC4FEA0D
:101F98005C1CE04511D1B6F1FF3FDAD1C5F3074328
:101FA800012BECD13B685B6925EA030C1FFA8CFC1A
:101FB800BCFA8CFC4FEA5C1CEBE70020BDE8F08122
:101FC8002DE9F04105460E46174698463DE01A6849
:101FD80042F400721A602B686FF480625A61002321
:101FE8002B63202285F83D2085F83E302A6C42F08C
:101FF80004022A6485F83C30012034E0FEF7BCFD79
:10200800A0EB0800B84200D8FFB900232B632022B8
:1020180085F83D2085F83E302A6C42F020022A647B
:1020280085F83C3001201EE02B689C6926EA0404F0
:10203800A4B2003C18BF0124A4B12B685A6912F459
:10204800806FC4D1B7F1FF3FD8D1C6F30743012B46
:10205800EAD12B685C6926EA0404A4B2003C18BFE4
:102068000124E9E70020BDE8F0810000F0B583B065
:1020780004460D4616461F46C36A082B0DD0012B91
:102088000BD013F5803F08D0036B122B0AD10268DE
:10209800136843F48073136004E02268136843F400
:1020A800807313600097334600224FF001112046D9
:1020B800FFF748FF80B92369B3F5804F16D123682D
:1020C80005F0FE051D613B46324613492046FFF7E1
:1020D80077FFF8B903B0F0BD23681B6813F4807F5D
:1020E80002D04FF4007323640320F3E7EB11226856
:1020F80003F0060343F0F00313613B4632460749F9
:102108002046FFF75DFF18B92368EDB21D61DAE7D5
:102118000120DFE70120DDE70200010008000100DF
:102128002DE9F04184B004460D4616461F46C26AA2
:1021380001680B6843F480630B60082A0DD0012AFC
:102148000BD012F5803F08D0036B112B0AD102681F
:10215800136843F48073136004E02268136843F43F
:10216800807313600097334600224FF00111204618
:10217800FFF7E8FE98B92369B3F5804F19D12368B2
:1021880045F00105EDB21D613B4632462A4920461D
:10219800FFF716FF00284CD104B0BDE8F081236892
:1021A8001B6813F4807F02D04FF40073236403206C
:1021B800F2E74FEAE51808F00608236848F0F0024D
:1021C8001A613B4632461D492046FFF7F9FE08B121
:1021D8000120E1E72368EDB21D613B46324616490E
:1021E8002046FFF7EDFE08B10120D5E70022039253
:1021F800236859690391996903910399196841F40E
:1022080080711960009733464FF001112046FFF79F
:1022180099FE20B9226848F0F1031361B4E72368F6
:102228001B6813F4807F02D04FF4007323640320EB
:10223800B2E70120B0E700BF02000100080001007A
:1022480070B504460D46164623685B6913F0800F87
:102258001CD12046FFF75DFED0B9B5F1FF3FF3D0A2
:10226800FEF78AFC801BA84201D8002DECD1002380
:102278002363202284F83D2084F83E30226C42F00B
:102288002002226484F83C30012000E0002070BD68
:102298000120FCE770B504460D46164623685B69C5
:1022A80013F0040F1CD12046FFF733FED0B9B5F167
:1022B800FF3FF3D0FEF760FC801BA84201D8002D39
:1022C800ECD100232363202284F83D2084F83E309B
:1022D800226C42F02002226484F83C30012000E0A5
:1022E800002070BD0120FCE770B505460C46164677
:1022F8002B68596911F0400F29D1596911F0100F55
:1023080015D1FEF739FC801BA04201D8002CEFD173
:1023180000232B63202285F83D2085F83E302A6C67
:1023280042F020022A6485F83C30012070BD6FF02D
:1023380010025A6100232B63202285F83D2085F87E
:102348003E302A6C2A6485F83C300120EEE70020F4
:10235800ECE70000002800F0CC8070B5044690F847
:102368003D30002B77D0242384F83D302268136851
:1023780023F0010313602268136843F400431360D9
:102388002268136823F40043136001F089FB626834
:102398005A4B9A4264D85A4B98428CBF0023012367
:1023A800002B40F0A8805749A1FB00318B0C256811
:1023B8006A6822F03F0242EA91426A6021680A6A2A
:1023C80022F03F0266684D4DAE424FD801331343A9
:1023D8000B622168CA6922F44F4222F0FF02666844
:1023E800464B9E424CD8431E7600B3FBF6F30133AE
:1023F80040F6FC70034278D0C3F30B031343CB6160
:1024080021680B6823F0C003E269206A0243134382
:102418000B6021688B6823F4034323F0FF032269D0
:10242800E068024313438B602168CB6823F0FF0305
:102438006269A06902431343CB602268136843F0C2
:102448000103136000202064202384F83D302063BA
:1024580084F83E0070BD80F83C30FEF713FA82E73E
:10246800294B98428CBF0023012399E74FF49675B6
:1024780005FB03F3254DA5FB03539B090133A6E791
:10248800A368BBB9451E06EB460CB5FBFCF5013548
:10249800C5F30B05B5FA85F56D0945BBC3B9013818
:1024A80006EB4603B0FBF3F30133C3F30B0343F42A
:1024B8000043A3E7451E06EB860C0CEB8C0CB5FB22
:1024C800FCF50135C5F30B05B5FA85F56D09E4E7AB
:1024D800013806EB860303EB8303B0FBF3F3013308
:1024E800C3F30B0343F4404388E7042386E701233F
:1024F80084E7012070470120ACE700BFA0860100F7
:102508007F841E0083DE1B43FF083D00D34D62100D
:102518002DE9F04385B004460F46914698460C9E37
:10252800FEF72AFB054694F83D00C0B2202804D0E7
:102538000227384605B0BDE8F0830095192301222B
:102548004F492046FFF7FEFC002840F0928094F89F
:102558003C30012B00F08F80012384F83C30236845
:102568001A6812F0010F03D11A6842F001021A60CA
:102578002268136823F400631360212384F83D3034
:10258800102384F83E3000232364C4F82490A4F870
:102598002A80638D23853B4BE3622B4632463946BE
:1025A8002046FFF763FD0746002866D10023039302
:1025B80023685A6903929B690393039B11E0236C78
:1025C800042B01D00127B4E72268136843F4007391
:1025D8001360F7E72A4631462046FFF75BFE0028DE
:1025E8002ED1238D002B36D02A4631462046FFF7C0
:1025F80027FE0028E3D1626A236812781A61606AAC
:10260800431C6362618D89B2013989B26185238D6A
:10261800013B9BB223852268516911F0040FD9D080
:10262800002BD7D043781361636A01336362638DEB
:102638009BB2013B9BB26385238D013B2385C9E790
:10264800236C042B01D0012773E72268136843F435
:1026580000731360F7E72268136843F4007313608C
:10266800202384F83D30002384F83E3084F83C3041
:102678005FE702275DE702275BE7012759E700BF0D
:10268800020010000000FFFF2DE9F04387B0044668
:102698000F46914698460E9EFEF76EFA054694F848
:1026A8003D00C0B2202804D00227384607B0BDE854
:1026B800F08300951923012289492046FFF742FC3F
:1026C800002840F0458194F83C30012B00F042810D
:1026D800012384F83C3023681A6812F0010F03D1F3
:1026E8001A6842F001021A602268136823F4006332
:1026F8001360222384F83D30102384F83E300023F1
:102708002364C4F82490A4F82A80638D2385754B2C
:10271800E3622B46324639462046FFF701FD07465D
:10272800002840F01981238D5BB9029323685A6908
:1027380002929A690292029A1A6842F400721A6026
:102748007AE0012B0FD0022B1FD02268136843F4C4
:10275800806313600023059323685A6905929B6977
:102768000593059B68E02268136823F4806313606F
:102778000023039323685A6903929A690392039A80
:102788001A6842F400721A6056E02268136823F44B
:10279800806313602268136843F4006313600023A6
:1027A800049323685A6904929B690493049B43E049
:1027B8002A4631462046FFF797FD002840F0CE8094
:1027C80023681A69636A1A70636A01336362238D26
:1027D800013B2385638D9BB2013B9BB263852BE054
:1027E80000953346002240492046FFF7ABFB0028FE
:1027F80040F0B6802268136843F4007313602368BE
:102808001A69636A1A70626A531C6362238D013BFA
:102818002385638D9BB2013B9BB2638523681B694B
:102828005370636A01336362238D013B2385638D93
:102838009BB2013B9BB26385218D00297FD0032980
:1028480054D80129B4D00229CAD0009533460022B1
:1028580025492046FFF776FB002840F08380226850
:10286800136823F48063136023681A69636A1A7013
:10287800636A01336362238D013B2385618D89B2CD
:10288800013989B2618500953346002216492046F0
:10289800FFF758FB002867D12268136843F40073D8
:1028A800136023681A69636A1A70626A531C636248
:1028B800238D013B2385638D9BB2013B9BB26385CE
:1028C80023681B695370636A01336362238D013B7C
:1028D8002385638D9BB2013B9BB26385ACE700BF48
:1028E800020010000000FFFF040001002A463146E4
:1028F8002046FFF7F9FC002838D123681A69636A73
:102908001A70626A531C6362238D013B2385638DB1
:102918009BB2013B9BB263852368596911F0040F90
:102928008AD01B695370636A01336362238D013B4C
:102938002385638D9BB2013B9BB263857CE7202393
:1029480084F83D30002384F83E3084F83C30ACE60F
:102958000227AAE60227A8E60127A6E60127A4E699
:102968000127A2E60127A0E601279EE601279CE6AB
:102978002DE9F8430646884617461D46FEF7FCF83B
:1029880081463468A46838EA04030CBF4FF0010C90
:102998004FF0000CBC4512D0B5F1FF3FF1D0FEF767
:1029A800EBF8A0EB0900A84201D2002DE9D10123E0
:1029B80086F84130002386F84030032000E00020EC
:1029C800BDE8F883002800F0BF8038B5044690F8C9
:1029D8004130002B51D0022284F841202168CB6974
:1029E80023F47B6323F00F03CB6123681A626369C6
:1029F800934263D0E368002B46D11025A368202BAF
:102A080000D86D00012001F03BF92369B3F5007F80
:102A18003CD0B0FBF5F000EB800043006069B3FBED
:102A2800F0F30533494AA2FB0323C3F3C002C2EB08
:102A3800D3035B0811029A1EFD2A41D822690A4372
:102A4800216813430B622168CB6923F47B6323F06D
:102A58000F036268A0680243E0680243A06902436A
:102A6800134343F40063CB61236A012B2ED000206B
:102A78006064012384F8413038BD80F84030344B1D
:102A88004363FDF737FFA6E72025B7E7E36853B1AF
:102A9800AD00B0FBF5F000EB800043006069B3FBCC
:102AA800F0F30533BEE7ED00B0FBF5F000EB800076
:102AB80043006069B3FBF0F30533B3E70021BAE7DD
:102AC800636C43F0100363640120D5E7214B636313
:102AD8002268214B9A421FD04FF04022D36923F439
:102AE8007B6323F00F03D36122681B4B9A4215D0F6
:102AF8004FF0402302221A622268174B9A4210D0E4
:102B08004FF04025EB699BB26268B2F5007F0AD0AE
:102B1800C2B94FF4807008E0104ADFE7A3F580637C
:102B2800E8E70E4DEEE74FF48070B4F808C0A189CD
:102B3800228B40EA0C0001430A43134343F4006329
:102B4800EB6194E70020F0E701207047CDCCCCCCB6
:102B58005F30000899320008003800400034004017
:102B680000295ED038B50446002A5CD094F840307D
:102B7800DBB2012B59D0012384F8403094F841503E
:102B8800EDB29D4210D1032384F8413000236364E1
:102B980061622368DB6903F00703032B09D0052B67
:102BA80007D02285628508E0002384F8403002209F
:102BB8003AE0520092B222856285A36B1C4A1A64DD
:102BC800A36B1C4ADA63A36B1B4ADA642268238D61
:102BD8009BB20C32616AA06BFEF73AF9A8B9236878
:102BE800DA6912F4806F03D1DA6942F48062DA613B
:102BF80023685A6812F0020F03D15A6842F00202A1
:102C08005A60002384F840300EE0636C43F00803F8
:102C18006364012384F84130002384F84030284657
:102C280002E001207047012038BD0220FCE700BF08
:102C3800BD2F0008FF2F00082F31000890F8403002
:102C4800DBB2012B33D0012380F8403090F84130BB
:102C5800DBB2032B19D090F84130DBB2042B1ED025
:102C680090F84130DBB2052B14D10268536823F089
:102C78000303536002680F4B9A4216D04FF040226C
:102C8800536823F00303536004E00268536823F099
:102C980002035360002380F84030184670470268EA
:102CA800536823F001035360F4E7034AE8E702207E
:102CB800704700BF003800400034004090F84030B2
:102CC800DBB2012B4DD0012380F8403090F8413021
:102CD800DBB2032B27D090F84130DBB2042B35D080
:102CE80090F84130DBB2052B22D10268536843F0DB
:102CF8000303536002681C4B9A422DD04FF04022C8
:102D0800536843F0030353600268174B9A4225D077
:102D18004FF04023DA6912F4806F09D1DA6942F47E
:102D28008062DA6104E00268536843F0020353608A
:102D38000368DA6912F4806F03D1DA6942F48062B9
:102D4800DA61002380F840301846704702685368FB
:102D580043F001035360EBE7044AD1E7A3F580632E
:102D6800D8E70220704700BF003800400034004018
:102D780070B584B004464368B3F5007F02D0002BD9
:102D880040F08280A06B48B1FEF797F8054630B155
:102D9800636C43F008036364012500E000256423A5
:102DA800012202212046FFF7E3FD30B1636C43F0B6
:102DB80001036364012584F84150642300228021C3
:102DC8002046FFF7D5FD30B1636C43F0010363641F
:102DD800012584F841502268D36923F48063D361C4
:102DE8000023009323689A680092009A5A6822F098
:102DF80002025A6094F84130DBB2052B05D001235A
:102E080084F84130284604B070BDE06B38B1FEF755
:102E180054F820B1636C43F0080363640125226809
:102E2800624B9A4220D04FF04022D36923F480634A
:102E3800D3610023019322685C4B9A4216D04FF06D
:102E48004023DA6801929A680192019A5A6822F03E
:102E580001025A60636863B9636C43F040036364BA
:102E6800012584F84150CAE7514ADEE7A3F580639B
:102E7800E7E722684D4B9A4203D04FF04023DB68C6
:102E8800BDE7A3F58063FAE7B3F5407F04D0B3F557
:102E9800807F01D00025B2E7E06B48B1FEF70DF85E
:102EA800054630B1636C43F008036364012500E014
:102EB800002594F84130DBB2052B17D02268D3697E
:102EC80023F48063D361002303932368DA680392B1
:102ED8009A680392039A5A6822F001025A6063685A
:102EE800B3F5807F5AD02368DB6888E7A06B38B1D8
:102EF800FDF7E3FF20B1636C43F008036364012529
:102F0800FDF73AFE064612E0636C43F00103636482
:102F1800012584F841500AE0A3F580639B6813F00B
:102F2800020F1ED1FDF728FE801B6428ECD822680A
:102F38001E4B9A42F0D04FF04023EFE7636C43F00A
:102F480001036364012584F841500AE0A3F5806316
:102F58009A6812F0800F0BD0FDF70EFE801B6428D4
:102F6800ECD82268114B9A42F0D04FF04023EFE79B
:102F7800DA6922F48062DA610023029322680B4B3B
:102F88009A4209D04FF0402293680293029B5368FB
:102F980023F00203536091E7054AF5E7636C43F0B9
:102FA80040036364012584F8415028E70038004055
:102FB8000034004008B5806B05F040F808BD08B53E
:102FC800426A03681288DA60436A02334362438DB7
:102FD8009BB2013B9BB24385438D9BB203B108BDB5
:102FE8000268536823F0A0035360012380F841303E
:102FF80005F018F8F3E708B50346806BDB694BB9B1
:103008000268536823F002035360002343850123B9
:1030180080F8413005F006F808BD704708B5036828
:10302800DA68C36A1A80C36A0233C362438E9BB2EA
:10303800013B9BB24386438E9BB203B108BD026835
:10304800536823F060035360012380F84130FFF791
:10305800E4FFF3E7704710B584B00446026893684C
:10306800039390F84130DBB2042B06D094F841303A
:10307800DBB2032B2CD004B010BD039B13F0010F5F
:1030880003D0536813F0400F1FD1039B13F0400F78
:10309800ECD023685A6812F0200FE7D05A6822F063
:1030A80060025A60002301932368DA6801929B68E2
:1030B8000193019B012384F84130636C43F00203C0
:1030C80063642046FFF7C6FFD0E7FFF7A7FFDCE7FA
:1030D800039B13F0020F04D023685B6813F0800F82
:1030E8001DD1039B13F0080FC5D023685A6812F04E
:1030F800200FC0D05A6822F0A0025A600023029321
:1031080023689B680293029B012384F84130636C17
:1031180043F0040363642046FFF79CFFABE72046B7
:10312800FFF74DFFDDE708B5806B0268536823F0B1
:1031380003035360002343854386012380F841300D
:10314800436C43F008034364FFF784FF08BD7047EE
:1031580008B5436A9A1C426202681B88D360438D93
:103168009BB2013B9BB24385438D9BB23BB902683E
:10317800536823F0A0035360438E9BB203B108BD8C
:10318800012380F84130FFF7E2FFF8E708B502684D
:10319800154B9A421CD04FF04023DA68C36A991C39
:1031A800C1621A80438E9BB2013B9BB24386438E19
:1031B8009BB263B902680C4B9A420CD04FF0402284
:1031C800536823F060035360438D9BB22BB108BD55
:1031D800A3F58063E1E7054AF2E7012380F841306F
:1031E800FFF7B5FFF3E700BF0038004000340040A8
:1031F80008B5436A9A1C42621A880168134B9942BF
:1032080018D04FF04023DA60438D9BB2013B9BB24C
:103218004385438D9BB263B902680C4B9A420CD02C
:103228004FF04022536823F0A0035360438E9BB2B3
:103238002BB108BDA3F58063E5E7054AF2E7012352
:1032480080F84130FFF783FFF3E700BF0038004004
:103258000034004008B50368DA68C36A991CC16283
:103268001A80438E9BB2013B9BB24386438E9BB22E
:103278003BB90268536823F060035360438D9BB2E7
:1032880003B108BD012380F84130FFF760FFF8E77C
:1032980010B586B0044603689A680592704A93424E
:1032A8006FD04FF04022916804915B680393536894
:1032B80002936368B3F5007F01D0002B70D1059BA2
:1032C80013F0020F03D0039B13F0800F5CD1049B13
:1032D80013F0010F03D0029B13F0400F58D1049B49
:1032E80013F0400F24D0029B13F0200F20D0226847
:1032F8005B4B9A4250D04FF04022536823F0600352
:1033080053602268536823F0A0035360002300939E
:103318002368DA6800929B680093009B012384F875
:103328004130636C43F0020363642046FFF792FE6A
:10333800059B13F0080F22D0039B13F0200F1ED01B
:103348002268536823F0A00353602268444B9A42D2
:1033580024D04FF04022536823F0600353600023C9
:10336800019323689B680193019B012384F84130F2
:10337800636C43F0040363642046FFF76BFE06B0FA
:1033880010BDA2F580628EE72046FFF7E1FE9EE7BA
:103398002046FFF7FBFEA2E7324AAEE7314ADAE7FA
:1033A800049B13F0020F03D0029B13F0800F4AD145
:1033B800059B13F0010F03D0039B13F0400F46D178
:1033C800059B13F0400F1CD0039B13F0200F18D05F
:1033D8002268536823F0600353602268204B9A42A6
:1033E80039D04FF04022536823F0A00353600123E3
:1033F80084F84130636C43F0020363642046FFF7AE
:1034080029FE049B13F0080FB9D0029B13F0200F7C
:10341800B5D02268124B9A421FD04FF04022536811
:1034280023F0A00353602268536823F060035360BD
:10343800012384F84130636C43F00403636420463D
:10344800FFF708FE9BE72046FFF7D2FEB0E72046CD
:10345800FFF700FFB4E7034AC5E7024ADFE700BF0A
:103468000038004000340040002800F0E08170B5CA
:1034780082B00446036813F0010F3BD09F4B9B6852
:1034880003F00C03042B2CD09C4B9B6803F00C031B
:10349800082B21D06368B3F5803F4FD0B3F5A02F38
:1034A80052D0964B1A6822F480321A601A6822F4B5
:1034B80080221A606368002B50D0FDF75DFB05463B
:1034C8008E4B1B6813F4003F14D1FDF755FB401BCE
:1034D8006428F5D90320B1E1884B5B6813F4800FA9
:1034E800D8D0864B1B6813F4003F03D06368002BC9
:1034F80000F09F81236813F0020F54D07F4B9B6824
:1035080013F00C0F3ED07D4B9B6803F00C03082B87
:1035180033D0E368002B68D0794B01221A60FDF79D
:103528002BFB0546754B1B6813F0020F54D1FDF7B2
:1035380023FB401B0228F5D903207FE16F4A13685B
:1035480043F480331360B5E76C4B1A6842F4802269
:103558001A601A6842F480321A60ABE7FDF70CFB78
:103568000546664B1B6813F4003FC3D0FDF704FB08
:10357800401B6428F5D9032060E1604B5B6813F4B5
:10358800800FC6D15D4B1B6813F0020F03D0E368B0
:10359800012B40F05081594A136823F0F803216940
:1035A80043EAC1031360236813F0080F42D063692C
:1035B8006BB3534B0122C3F8802EFDF7DDFA0546A5
:1035C8004E4B5B6F13F0020F34D1FDF7D5FA401B59
:1035D8000228F5D9032031E1484A136823F0F8039B
:1035E800216943EAC1031360DDE7454B00221A60F5
:1035F800FDF7C2FA0546414B1B6813F0020FD2D003
:10360800FDF7BAFA401B0228F5D9032016E13C4B16
:103618000022C3F8802EFDF7AFFA0546374B5B6FE3
:1036280013F0020F06D0FDF7A7FA401B0228F5D9C0
:10363800032003E1236813F0040F77D02F4B1B6C92
:1036480013F0805F33D1002301932C4B1A6C42F0A6
:1036580080521A641B6C03F080530193019B01256F
:10366800284B1B6813F4807F23D0A368012B34D028
:10367800052B38D0214B1A6F22F001021A671A6FF6
:1036880022F004021A67A368002B3DD0FDF774FAF4
:1036980006461A4B1B6F13F0020F46D1FDF76CFA62
:1036A800801B41F288339842F3D90320C6E00025F5
:1036B800D6E7144A136843F480731360FDF75CFA85
:1036C8000646104B1B6813F4807FCED1FDF754FAE1
:1036D800801B0228F5D90320B0E0084A136F43F095
:1036E80001031367CFE7054B1A6F42F004021A670C
:1036F8001A6F42F001021A67C5E700BF003802409E
:103708000000474200700040FDF736FA0646524B6B
:103718001B6F13F0020F08D0FDF72EFA801B41F241
:1037280088339842F3D9032088E0EDB9A369002BC8
:1037380000F08380484A926802F00C02082A51D0AF
:10374800022B17D0454B00221A66FDF715FA0446DE
:10375800414B1B6813F0007F42D0FDF70DFA001BA8
:103768000228F5D9032069E03B4A136C23F0805303
:103778001364DBE7394B00221A66FDF7FDF90546AD
:10378800354B1B6813F0007F06D0FDF7F5F9401B99
:103798000228F5D9032051E0E369226A1343626ADB
:1037A80043EA8213A26A5208013A43EA0243E26AF0
:1037B80043EA0263284A5360284B01221A66FDF740
:1037C800DBF90446244B1B6813F0007F06D1FDF794
:1037D800D3F9001B0228F5D903202FE000202DE0A3
:1037E80000202BE0012B2BD01B4B5B6803F48001DE
:1037F800E269914226D103F03F02216A8A4223D12D
:10380800616A47F6C0721A40B2EB811F1ED103F4F9
:103818004031A26A5208013AB1EB024F18D103F0C5
:103828007063E26AB3EB026F14D1002006E0012056
:103838007047012002E0012000E0002002B070BDC6
:103848000120FBE70120F9E70120F7E70120F5E770
:103858000120F3E70120F1E7003802400000474269
:1038680008B5314B9B6803F00C03042B57D0082B89
:1038780057D12D4B5A6802F03F025B6813F4800F52
:103888002AD0294B5968C1F3881C4FEA4C11B1EB77
:103898000C006EEB0E0E4FEA8E1343EA9063810123
:1038A800091A63EB0E03DB0043EA5173C90011EBFD
:1038B8000C0C43F10003590200234FEA4C2041EA63
:1038C800DC51FCF785FC184B5B68C3F301430133FB
:1038D8005B00B0FBF3F025E0134B5968C1F3881C7B
:1038E8004FEA4C11B1EB0C006EEB0E0E4FEA8E1343
:1038F80043EA90638101091A63EB0E03DB0043EA94
:103908005173C90011EB0C0C43F100039902002319
:103918004FEA8C2041EA9C51FCF75AFCD3E7034854
:1039280000E0034808BD00BF0038024000127A00DA
:103938000024F400002800F09B8070B50D46044672
:103948004F4B1B6803F007038B4208D2CBB24C4A9B
:103958001370136803F007038B4240F08B802368D1
:1039680013F0020F17D013F0040F04D0454A9368E0
:1039780043F4E0539360236813F0080F04D0414ADE
:10398800936843F4604393603E4A936823F0F003DE
:10399800A1680B439360236813F0010F32D063686A
:1039A800012B21D09A1E012A25D9364A126812F015
:1039B800020F61D033498A6822F0030213438B60F7
:1039C800FDF7DAF806462F4B9B6803F00C03626894
:1039D800B3EB820F16D0FDF7CFF8801B41F2883386
:1039E8009842F0D9032042E0264A126812F4003FB8
:1039F800E0D101203BE0234A126812F0007FD9D1C0
:103A0800012034E01E4B1B6803F00703AB4207D9C3
:103A1800EAB21B4B1A701B6803F00703AB422DD1A7
:103A2800236813F0040F06D0164A936823F4E05372
:103A3800E1680B439360236813F0080F07D0114A1D
:103A4800936823F46043216943EAC1039360FFF755
:103A580007FF0C4B9B68C3F303130B4AD35CD84096
:103A68000A4B18600A4B1868FDF73CF8002070BD37
:103A7800012070470120FAE70120F8E70120F6E766
:103A8800003C024000380240088500080000002081
:103A980008000020014B1868704700BF0000002094
:103AA80008B5FFF7F7FF044B9B68C3F38223034A6B
:103AB800D35CD84008BD00BF003802401885000814
:103AC80030B583B00446036813F0050F0ED12368A0
:103AD80013F0020F38D1236813F0080F00F09D800F
:103AE800227D4F4BC3F8E021002097E04D4B002288
:103AF8009A66FDF741F805464B4B1B6813F0006FBB
:103B080006D0FDF739F8431B022BF5D9032085E0D1
:103B18006368A26843EA8213E26843EA0273424A8E
:103B2800C2F884303F4B01229A66FDF725F8054616
:103B38003D4B1B6813F0006FC9D1FDF71DF8401B02
:103B48000228F5D9032069E000230193364B1A6C4B
:103B580042F080521A641B6C03F080530193019B5E
:103B6800324A136843F480731360FDF705F805467D
:103B78002E4B1B6813F4807F06D1FCF7FDFF431B17
:103B8800022BF5D9032049E0274B1B6F13F4407330
:103B980014D0226902F440729A420FD0224B1A6F55
:103BA80022F440721F490120C1F8400E0020C1F8DC
:103BB800400E1A671B6F13F0010F12D1236903F42B
:103BC8004072B2F5407F1DD0174A936823F4F8136A
:103BD800936015490B6F2269C2F30B0213430B67FD
:103BE80079E7FCF7C9FF05460F4B1B6F13F0020F6F
:103BF800E4D1FCF7C1FF401B41F288339842F3D966
:103C080003200BE008498A6822F4F81223F0704375
:103C180023F4407313438B60DBE7002003B030BD0F
:103C28000010474200004742003802400070004040
:103C380003230360114BD3F88420C2F388128260F7
:103C4800D3F88420C2F30272C260D3F8842002F051
:103C58003F024260996801F4F8111A6F02F4407249
:103C68000A430261D3F88C3013F0807F02D100231D
:103C78000375704701230375704700BF0038024081
:103C8800012801D000207047174B9B6813F40003EC
:103C980003D0012B25D115487047134B5B6813F4EB
:103CA800800F15D0104BD3F8843003F03F03104831
:103CB800B0FBF3F30C4AD2F88400C0F3881003FB7E
:103CC80000F0D2F88430C3F30273B0FBF3F070470E
:103CD800054BD3F8843003F03F030648B0FBF3F3F9
:103CE800E8E70020704700BF003802400080BB00B2
:103CF80000127A000024F40082B000230193019B93
:103D0800013301930E4A934214D80369002BF6DA63
:103D180000230193036943F001030361019B01330D
:103D28000193074A934208D8036913F0010FF5D1AC
:103D3800002000E0032002B070470320FBE700BF2B
:103D4800400D030084B010B5044603A880E80E00B7
:103D5800089B012B1FD1A36B23F48033A363E36873
:103D680023F4840323F04003E360E36823F440135F
:103D7800E3600F9B012B09D02046FFF7BDFF069B90
:103D8800012B1BD0BDE8104004B07047E36843F432
:103D98008013E360F0E7E36843F04003E360204604
:103DA800FFF7AAFF0C9B23B9A36B43F48033A363EB
:103DB800E5E7A36B23F48033A363E0E7A36843F04C
:103DC8000603A360A36843F02003A360DAE78368CF
:103DD80043F00103836000207047836823F00103E8
:103DE800836000207047000082B00023019389019E
:103DF80041F020010161019B01330193054A93427F
:103E080005D8036913F0200FF5D1002000E0032046
:103E180002B07047400D030082B0002301931023C5
:103E28000361019B01330193054A934205D8036955
:103E380013F0100FF5D1002000E0032002B0704706
:103E4800400D030010B59DF8084084B903334FEACC
:103E5800930E4FF0000C08E000EB023303F580539B
:103E680051F8044B1C600CF1010CF445F4D300200C
:103E780010BD00B583B0844608464FEA920E02F0A2
:103E88000302002305E00CF58051096840F8041B83
:103E980001337345F7D39AB10CF5805CDCF8003038
:103EA80001934FF0000C5FFA8CF3D900019BCB40D3
:103EB80000F8013B0CF1010C013A92B2002AF2D150
:103EC80003B05DF804FB426980691040704740699F
:103ED80000F00100704738B50546C36823F0C043B9
:103EE800C360012913D019BBC36843F08043C36082
:103EF80000240120FCF746FE01342846FFF7E7FFBF
:103F080008B1312CF5D9322C14D0002038BDC36843
:103F180043F00053C36000240120FCF733FE013452
:103F28002846FFF7D4FF0128EDD0312CF4D9EAE771
:103F38000120EBE70120E9E784B010B5044603A8A7
:103F480080E80E000023C4F8003EA36B43F400137E
:103F5800A363A36B23F40023A363A36B23F480233D
:103F6800A363E36B13F4807F10D0059B012B06D06D
:103F7800D4F8003423F00403C4F800340CE0D4F877
:103F8800003443F00403C4F8003405E0D4F80034E6
:103F980023F00403C4F8003410212046FFF724FF5F
:103FA8002046FFF739FF002209E004EB42134FF0E7
:103FB800FF31C3F808150021C3F80C150132049B22
:103FC8009342F2D80023A3614FF0FF336361E36BA0
:103FD80013F4807F17D04FF40073636203F180738A
:103FE800A3620D4BC4F80031069B1BB9A36943F0CB
:103FF8001003A361A269094B1343A3610020BDE824
:10400800104004B070478023636203F5C003A362C5
:10401800034BC4F80031E7E70003E000080020A3E1
:10402800E000400000F5806CD0F8003423F0030372
:10403800C0F80034D0F8003401F003021343C0F88C
:104048000034012903D0022906D0002070474BF61E
:104058008033CCF80430F8E741F27073CCF80430C0
:10406800F3E730B583B0044600250195D0F8403415
:104078000193019B23F02E030193019B43F480736A
:10408800C0F840346420FCF77DFD019B23F4807365
:10409800C4F840340A20FCF775FD284603B030BD4B
:1040A80082B000230193D0F840340193019B23F0A0
:1040B8002E030193019B13F4805F01D101290CD0D9
:1040C800019B13F4805F05D021B9019B23F4805331
:1040D800C0F84034002002B07047019B43F480537D
:1040E800C0F84034ECE782B000230193D0F84034A4
:1040F80001930198C0F3414002B0704700F5806019
:10410800806880B270472DE9F84391461C469DF8B7
:10411800245000EB411606F5A0634FF0FF329A6079
:10412800032D6AD8DFE805F0025B021840F29D42D1
:10413800DA6019F0800F09D1C26B12F4807F5ED06B
:10414800DA6842F06002DA6000270CE0DA6842F4CC
:104158008072DA60002706E040F29D62DA6019F0AA
:10416800800F36D10027D0F8183401F00F01012252
:1041780002FA01F11943C0F81814836943F0007377
:10418800836119F0800F3CD14FF00008FFF7ABFFB7
:104198009DF82030022B37D00021A30503F0FE53F1
:1041A8004FEAC92909F4F04943EA0903AC0404F4C5
:1041B80040242343BDF82820C2F30A02134343EAEC
:1041C80008030B43C6F80035032D24D03846BDE854
:1041D800F883DA6842F48072DA600027C3E740F2B5
:1041E8002522DA6019F0800F01D10027BBE7DA68D1
:1041F80042F4C072DA600027B5E70127B3E7002769
:10420800B1E74FF40048C1E7022802D04FF400316B
:10421800C3E70021C1E7D6F8003543F00053C6F8DC
:104228000035D3E700F58060406980B2704730B44C
:1042380000EB411101F5A062D1F80035C3F38143C9
:10424800D1F80045856815F0200F02D0E40F002C46
:1042580055D033B3022B24D0D1F8003543F0804336
:10426800C1F80035D0F8103413F47F034AD1D1F8DF
:10427800000520F00040C1F80005D1F8000540F025
:104288000040C1F80005D1F8000520F40040C1F84D
:1042980000050133B3F57A7F31D811680029F8DBBE
:1042A8002DE0D1F8003543F08043C1F8003583682C
:1042B80013F0200F23D1C36A13F47F0319D1D1F867
:1042C800000520F00040C1F80005D1F8000540F0D5
:1042D8000040C1F80005D1F8000520F40040C1F8FD
:1042E80000050133B3F57A7F09D811680029F8DB96
:1042F80005E0D1F8003543F00043C1F8003500204F
:1043080030BC7047D1F8003543F00043C1F80035A0
:10431800F5E7000000EB4111064AC1F81025D1F875
:10432800003523F0804343F00043C1F800350020F6
:10433800704700BF0000088030B585B04B78C46B6B
:1043480014F4807F07D00C792CB9012A16D012B941
:104358004C79012C1FD04C690CB30D8904EB050C6A
:104368000CF1FF3CBCFBF5FC1FFA8CFCBCF5807F14
:1043780017D92D020D614FF4807C12E0CC790CB175
:10438800022CE4D100EB4314D4F80C5525F0700549
:10439800C4F80C55DBE74978FFF7BCFF70E04FF035
:1043A800010CCD78002D52D00C8904FB0CF40C6163
:1043B8000C69C4F312043A4D05EACC4C44EA0C04E7
:1043C80091F80AC04FEA4C7C0CF0C04C00EB431348
:1043D80044EA0C04C3F8104512B1CC68C3F814457C
:1043E80000F5806CDCF8084014F0010F0CBF4FF0AA
:1043F800010E4FF0000ED3F8005525F00055C3F814
:104408000055D3F8004544EA4E74C3F80045D3F884
:1044180000450394039C24F080440394CC78C4B1F1
:10442800039C44F400440394039C44F00044039424
:10443800039CC3F800451ABBCB780BBB4B69FBB197
:10444800CA79032A15D8DFE802F0091E091E0C6193
:10445800AEE7039C24F400440394E5E70333C26AFF
:1044680092B2C3F38F039A4203D2836943F02003C5
:104478008361002300938B8A4A78C968FFF7E2FCBE
:10448800002005B030BD0333DCF8102092B2C3F32E
:104498008F039A42EDD2836943F080638361E8E732
:1044A8000000F81F10B50446FFF797FC10212046BE
:1044B800FFF79AFC2046FFF7AFFC00220AE004EB66
:1044C8004211D1F8003523F0802343F08043C1F82E
:1044D800003501320F2AF2D90020034600E00130EE
:1044E8000F2813D804EB401C0CF5A061DCF800255C
:1044F80022F4004242F04042CCF800250133B3F5E3
:104508007A7FECD80A68002AF8DBE8E74FF0FF3337
:10451800C4F8143463612046FFF759FC002010BD2D
:1045280010B5034C2146034803F096F9207110BDDD
:10453800B40100202885000800207047002070473B
:1045480008B50146034800F04CFB08B1002008BD3F
:104558000120FCE75406002010B590B004460093F3
:104568000B4601460D4800F074FB08B910B010BDA9
:1045780003AA2146094800F047FB9DF81930282B6B
:1045880007D03A2B07D0042B01D00120EEE70320F7
:10459800ECE70320EAE70320E8E700BF5406002021
:1045A80030B58FB00C461546032924D8DFE801F052
:1045B80002050E1808460FB030BD01AA0146124880
:1045C80000F022FBC8B9029B2B60F4E701AA014660
:1045D8000D4800F019FB90B9BDF80C302B60EAE7E4
:1045E80001AA0146084800F00FFB50B9BDF80C308D
:1045F8005B0A2B60DFE70420DDE72046DBE70120CC
:10460800D9E70120D7E700BF5406002010B590B0C5
:10461800044600930B460146104800F065FB08B9B4
:1046280010B010BD03AA21460C4800F0EDFA9DF821
:104638001930272B0CD005D9282B0BD03A2B0BD1AE
:104648000320EDE7042B01D00120E9E70320E7E789
:104658000220E5E70320E3E70120E1E75406002014
:104668000020704770B5D0F87C33DE69337B23B106
:10467800012B40F04581002070BD0446B6F8F810C3
:104688003378994280F03181342303FB016301229E
:1046980083F8912093F89030082B00F23381DFE8FB
:1046A80013F00900310144009E001500D3003101C8
:1046B80031011F01342303FB0161042381F8903089
:1046C800D0F8C433C6F8FC300120D5E7342201FB0A
:1046D80002F2983232440732C9B200F04CFD034668
:1046E80038B9B6F8F820342101FB0262022182F8B9
:1046F8009010022B03D0042B0BD00120BCE7B6F896
:10470800F830342202FB0366052386F89030012036
:10471800B2E7B6F8F830342202FB0366012086F8C7
:104728009000022386F89130A6E7C9B200F0B5FCE4
:104738000246C0B9B6F8F830342101FB036191F89C
:104748009210B1B1342101FB0361012081F8C1004D
:10475800342101FB0363032183F89010002183F8BF
:10476800911083F89210022A0AD0042A2BD0012033
:1047780082E7342101FB0361002081F8C100E7E7EB
:10478800B6F8F830342202FB036292F89220022A2B
:1047980012D0342202FB0362012182F8C1103422B4
:1047A80002FB0366052386F89030012086F8910005
:1047B800022386F892305FE7342202FB036200216D
:1047C80082F8C110EBE7B6F8F830342202FB036632
:1047D800012086F89000022386F891304CE73422B5
:1047E80001FB02F2903232440432C9B200F07CFC80
:1047F80070B9B6F8F830342202FB0362012082F85F
:104808009000002182F891100344A6F8F83033E7AD
:10481800022803D004280BD001202DE7B6F8F83081
:10482800342202FB0366052386F89030012023E733
:10483800B6F8F830342202FB0366012086F89000AF
:10484800022386F8913017E7342201FB02F29832EE
:1048580032440432C9B200F0F4FC024698B9B6F802
:10486800F830342101FB036191F89C10062910D01F
:1048780002290ED0342101FB0361012081F8900048
:104888000344A6F8F830022A14D0042A1CD00120C8
:10489800F2E6D4F8C413D6F8FC00091A42F20F70F5
:1048A8008142E7D8342202FB0363022283F8902076
:1048B8000120E1E6B6F8F830342202FB036608234B
:1048C80086F890300120D7E6B6F8F830342202FB9B
:1048D8000366012086F89000022386F89130CBE623
:1048E8000131A6F8F8100120C6E60023A6F8F83032
:1048F80001253573D0F8D433022198472846BBE602
:104908000120B9E60120B7E610B5D0F87C33DC69A0
:10491800A37B022B04D0032B25D00BB1012010BDA3
:10492800214600F06FFA032802D00028F7D101E0F1
:10493800002020702178022913D80131C9B22170D2
:1049480000238B42EBD2342202FB03424FF0020CCD
:1049580082F892C04FF0000C82F8C1C00133DBB27C
:10496800EFE70221EBE7002101F009FB18B9E37B2F
:10497800A3730120D3E70120D1E738B50446D0F866
:104988007C33DD69697969B92979A1B9D4F87C33AF
:10499800D86928B103F08CFCD4F87C330022DA61A2
:1049A800002038BD01F07DFB6979204601F091FBBC
:1049B80000236B71E8E7204601F073FB2979204654
:1049C80001F087FB00232B71E0E7F0B585B00446C2
:1049D800D0F87C1350230622097900F0B3FE012891
:1049E8007CD805460146204600F0A2FE074600286E
:1049F80078D1D4F87C634FF4807003F051FCF061F7
:104A0800D4F87C33DE69002E6ED04FF4807200211A
:104A1800304603F063FC1A2303FB054393F84E2347
:104A280093F94E33002B49DBB2711A2303FB05437C
:104A3800B3F8503333811A2303FB054393F8562305
:104A480093F95633002B41DBB2711A2000FB054560
:104A5800B5F858333381B179204601F027FB7071DE
:104A6800F179204601F022FB3071204600F0D8F998
:104A7800B2797179338902930225019594F81D332F
:104A8800009394F81C33204601F0FBFAF27931794F
:104A980073890293019594F81D33009394F81C339D
:104AA800204601F0EEFA00223179204602F0D0FFCC
:104AB80000227179204602F0CBFF10E0F2711A2330
:104AC80003FB0543B3F850337381B4E7F2711A203E
:104AD80000FB0545B5F858337381BCE70227384613
:104AE80005B0F0BD0227FAE70227F8E730B583B032
:104AF8000C46D0F87C33DD69342303FB015393F86B
:104B08009030062B06D0072B27D0052B48D0012044
:104B180003B030BD00220092134600F01EFC30B9ED
:104B2800342101FB0454012384F89030F0E7022873
:104B380003D0042809D00120EAE7342303FB0454F6
:104B4800052384F890300120E2E7342303FB045462
:104B5800082384F890300220DAE7002200921346F6
:104B680000F0B5FB30B9342101FB0454012384F86B
:104B78009030CDE7022803D0042809D00120C7E7E8
:104B8800342303FB0454052384F890300120BFE745
:104B9800342303FB0454082384F890300220B7E739
:104BA800342201FB02F298322A44043200F049FB15
:104BB8000346A0B9342202FB0452012182F8901066
:104BC800022082F89100022BA2D0042BA0D134231A
:104BD80003FB0454082384F89030022098E701204E
:104BE800F1E7D0F87C33DA690378DBB20B2B01D01C
:104BF80000207047342303FB012191F891300BB159
:104C08000020704701207047D0F87C33DB690078BA
:104C1800C0B20B2801D00220704710B5342000FB29
:104C280001F190310B4403F13004D3F800E0D3F8DC
:104C380004C09868D968C2F800E0C2F804C090605F
:104C4800D16010331032A342EFD11B6813600020EB
:104C580010BD2DE9F04182B00D46089ED0F87C13B6
:104C6800CF6990F82013C9B304460178C9B20B295B
:104C780036D1342101FB057191F89010012901D03A
:104C880002202EE006203873342101FB057181F8DB
:104C98009000A7F8FA5000962946204600F05DFBE0
:104CA800D4F8C48329462046FFF720FF012811D1F4
:104CB800D4F8C423A2EB080242F2107306FB03F3F4
:104CC8009A4203D894F82033002BEBD101233B738D
:104CD800022006E001233B73002002E0022000E0EE
:104CE800022002B0BDE8F0812DE9F04182B00D4606
:104CF800089ED0F87C13CF6990F82013C9B30446F6
:104D08000178C9B20B2936D1342101FB057191F81C
:104D18009010012901D002202EE007203873342199
:104D280001FB057181F89000A7F8FA500096294612
:104D3800204600F0CCFAD4F8C48329462046FFF771
:104D4800D5FE012811D1D4F8C423A2EB080242F2FF
:104D5800107306FB03F39A4203D894F82033002B10
:104D6800EBD101233B73022006E001233B730020B3
:104D780002E0022000E0022002B0BDE8F08100005D
:104D880010B5D0F87C33DC69217902F04FFE0D288C
:104D980001D0022010BDA26F0A4B9A4201D0022016
:104DA800F8E7E26FA36D9A4201D00120F2E794F888
:104DB80084000028EED00128ECD00228EAD0012097
:104DC800E8E700BF5553425308B5D0F87C33D9699A
:104DD8001AB1012A05D0022008BDC97901F0CFF81F
:104DE800FAE7897901F0CBF8F6E708B521220274D1
:104DF800FF224274002141828182C1820A4601F069
:104E080000F808BD08B5A1220274FE2242740022EF
:104E1800428282820122C28200F0F3FF08BD0000B4
:104E2800D0F87C33DB69054A5A65054A9A65012240
:104E380083F8502083F8522000207047555342438E
:104E48005040302070B582B00546D0F87C33DE691A
:104E580096F85040631E0A2B00F21D81DFE813F01C
:104E68000B001B0042004D0077008300B600C10014
:104E7800DD00EF00110186F86110022386F850303A
:104E88007379012200921F2206F1540101F0C0F843
:104E9800204602B070BD717902F0CEFD04460128AB
:104EA80005D0022815D0052817D00124F0E7F36DA6
:104EB8005BB196F96030002B03DB052386F8503090
:104EC800E6E7032386F85030E2E7072386F85030F8
:104ED800DEE7012486F85040DAE70A2386F85030E6
:104EE8000124D5E733797289D6F88C1001F0A6F839
:104EF800042386F850300124CAE7317902F09CFD7A
:104F08000446012803D005281CD00124C0E7F36D0E
:104F1800728993420CD9D6F88C101144C6F88C10BB
:104F28009B1AF365F36D33B9072386F85030AFE762
:104F38000023F365F6E73379D6F88C10284601F09C
:104F48007DF8A5E7092386F850300124A0E7737996
:104F58003289D6F88C100124009401F059F8062300
:104F680086F8503094E7717902F066FD044601280E
:104F780005D0022820D0052823D0012488E7F36D26
:104F8800328993420CD9D6F88C101144C6F88C108B
:104F98009B1AF365F36D33B9072386F8503077E72A
:104FA8000023F365F6E77379D6F88C10012000909A
:104FB800284601F02DF86BE7052386F850300124C8
:104FC80066E70A2386F85030012461E733790D2219
:104FD80006F1780101F032F8082386F850300124F0
:104FE80056E7317902F028FD012803D005280FD0B3
:104FF80001244DE7012386F8503086F852302846C0
:10500800FFF7BEFE044600283FF442AF02243FE704
:10501800092386F8503001243AE70022FFF7D4FE2E
:1050280020B9072386F85030012431E7042801D03D
:1050380001242DE70B2386F85030012428E70122AC
:10504800FFF7C2FE18B1042816D0012420E77179B1
:10505800284602F012FDC0F10102D2B27179284649
:1050680002F0F6FC00223179284602F0F1FC09230F
:1050780086F8503001240BE70B2386F850300124C2
:1050880006E7FFF7B2FE044600287FF401AF0123CC
:1050980086F85030FCE60124FAE608B50246D0F856
:1050A8007C33DB6993F85200012803D0022817D01B
:1050B800022008BD0022DA6583F860200A2183F8FF
:1050C8006210C3F86320C3F86720C3F86B20C3F8E5
:1050D8006F20012283F85020022283F85220E8E74B
:1050E8001046FFF7AFFEE4E738B50346D0F87C0377
:1050F800C46994F85200012804D01546022820D02B
:10510800012038BD0823E365802384F860300A2332
:1051180084F862300023C4F86330C4F86730C4F8F8
:105128006B30C4F86F30252384F86330012384F88A
:105138005030022384F8523004F11003C4F88C3044
:10514800DFE71846FFF77EFE0028DAD1D4F88C2076
:10515800D378917843EA0123517843EA01431278DE
:1051680043EA02632B60D4F88C20D379927943EA1E
:105178000223AB80C5E770B5D0F87C33DC6994F8BE
:105188005250012D05D01646022D24D0022528465E
:1051980070BD2422E265802384F860300A2384F8F5
:1051A80062300023C4F86330C4F86730A4F86B3069
:1051B800122384F86330490184F8641084F8672066
:1051C800012384F85030022384F8523004F110038C
:1051D800C4F88C30DBE7FFF735FE05460028D6D14A
:1051E80022220021304603F079F8D4F88C301B785D
:1051F80003F01F037370D4F88C301B785B0933708D
:10520800D4F88C3093F90130002B17DBD4F88C30AC
:105218009A68DB68C6F80320C6F80730D4F88C30E3
:10522800186959699A69DB69F06031617261B36123
:10523800D4F88C301B6AC6F81D30A8E70123B37078
:10524800E4E738B50346D0F87C03C46994F8520003
:10525800012804D01546022825D0022038BD0E2288
:10526800E265802384F860300A2384F862300023E2
:10527800C4F86330C4F86730C4F86B30C4F86F30D2
:10528800032384F86330490184F8641084F86720A4
:10529800012384F85030022384F8523004F11003BB
:1052A800C4F88C30DAE71846FFF7CCFD0028D5D1D2
:1052B800D4F88C309B7803F00F032B70D4F88C3023
:1052C8001B7B6B70D4F88C305B7BAB70C6E738B552
:1052D8008446D0F87C03C46994F85200012803D0AE
:1052E800022836D0022038BDB4F89810049D05FB7A
:1052F80001F1E165002184F860104FF00A0C84F890
:1053080062C0C4F86310C4F86710C4F86B10C4F81E
:105318006F102A2184F86310C2F3076184F86510BE
:10532800C2F3074184F86610C2F3072184F86710B6
:1053380084F86820C5F3072284F86A2084F86B5043
:10534800012284F85020022284F85220C4F88C30BC
:10535800C9E76046FFF776FDC5E738B58446D0F85B
:105368007C03C46994F85200012803D0022836D07F
:10537800022038BDB4F89810049D05FB01F1E165E1
:10538800802184F860100A2184F862100021C4F892
:105398006310C4F86710C4F86B10C4F86F102821A4
:1053A80084F86310C2F3076184F86510C2F30741FB
:1053B80084F86610C2F3072184F8671084F868201F
:1053C800C5F3072284F86A2084F86B50012284F818
:1053D8005020022284F85220C4F88C30C9E7604675
:1053E800FFF730FDC5E78446002306E003F1E0023D
:1053F8000CEB82020021516001330E2BF6D90023F9
:1054080005E00CEB0302002182F81C110133B3F50F
:10541800007FF6D300208CF800008CF801000123EF
:105428008CF80230CCF8C4038CF8183040228CF881
:1054380006208CF819008CF81C038CF81D338CF8A6
:105448001F038CF81E03704708B50378DBB20B2BDB
:1054580000D008BDD0F87C33002BFAD09B69984760
:10546800F7E770B584B004464578072D00F22C8123
:10547800DFE815F00800480069009A00BF00E50061
:10548800FE001701082100F0FDFC18B1032821D007
:10549800012509E194F82D33A37101256570029364
:1054A8000026019694F81D33009394F81C3380224B
:1054B8002179204600F0E5FDA3790293019694F83E
:1054C8001D33009394F81C3332466179204600F06E
:1054D800D8FDE9E094F81E330133DBB284F81E33BB
:1054E800032B03D90D2323700125DDE061792046C4
:1054F80000F0EFFD2179204600F0EBFD002323703A
:105508000125D1E0122100F0BDFC10B9022363701F
:10551800CAE0032840F0C88094F81E330133DBB298
:1055280084F81E33032B02D90D232370BCE0617964
:10553800204600F0CEFD2179204600F0CAFD002368
:1055480063702370B0E0012100F0E6FC18B1032875
:1055580024D00125A8E0022002F0A3FA012584F84E
:105568001C5303236370A37902930026019694F8D1
:105578001D3300932B4680222179204600F081FDBF
:10558800A3790293019694F81D33009394F81C3381
:1055980032466179204600F074FD85E00D232370C2
:1055A8000023637001257FE0092100F084FC18B90D
:1055B80004236370012577E0032801D0012573E0F7
:1055C80094F81E330133DBB284F81E33032B03D95E
:1055D8000D232370012567E06179204600F079FDED
:1055E8002179204600F075FD0023637023700125A2
:1055F8005AE0B0F83A1300F05EFC18B9052363705E
:10560800012551E0032801D001254DE094F81E330F
:105618000133DBB284F81E33032B03D90D23237027
:10562800012541E06179204600F053FD21792046AB
:1056380000F04FFD002363702370012534E090F8DB
:10564800341319B90623437001252DE0FF2300F513
:105658008E7200F049FC18B906236370012523E017
:10566800032801D001251FE00623637001251BE0F4
:1056780090F8351319B907234370012514E0FF2367
:1056880000F58E7200F030FC18B90723637001250D
:105698000AE0032801D0012506E0072363700125ED
:1056A80002E090F8365315B9284604B070BDFF23C0
:1056B80000F58E72294600F017FC05460028F3D045
:1056C800032803D00125EFE70125EDE70025EBE7E7
:1056D800D8B170B50E46044680F8CC230025C0F832
:1056E8007C53C0F88053FFF77EFE84F8235384F878
:1056F800205384F8215384F822530EB1C4F8D4639C
:10570800204602F059F9002070BD022070470A4671
:1057180051B1D0F880334BB9591CC0F88013DE332F
:1057280040F823200020704702207047022070476D
:1057380090F83C338B4203D980F82413002070473B
:105748000220704710B5044600200BE04FF01A0CF9
:105758000CFB0E4E9EF849C39C451CD0FF2B1AD05B
:105768000130C0B2012815D886464FF01A0C0CFB40
:10577800004C9CF847C38C4501D0FF29F0D14FF06D
:105788001A0C0CFB0E4C9CF848C39445DED0FF2A3B
:10579800E6D1DBE7FF2010BD10B5044602F08FF913
:1057A8000121204602F04EF9002010BD30B587B027
:1057B800044602238DF8173090F82133DBB2012B11
:1057C80011D02378DBB20B2B7BD8DFE813F00F0066
:1057D8002100450005017A007D00E30092009C004D
:1057E800A600B700FC0003230370EAE794F820330F
:1057F800002B66D001232370C82002F052F92046FE
:1058080002F06DF9002384F81C33C4F8C83358E05B
:1058180094F82333012B0FD0D4F8C833B3F57A7F2B
:1058280013D994F81F330133DBB284F81F33032BE9
:1058380008D90D23237044E0002384F81F33022382
:1058480023703EE0002323703BE00A33C4F8C833DA
:105858000A2002F026F934E0D4F8D43313B1042135
:1058680020469847642002F01CF9204602F0CEF842
:1058780084F81D03052323700021204600F016FC40
:1058880060718021204600F011FC01462071A37947
:1058980002930025019594F81D33009394F81C3366
:1058A8008022204600F0EDFBA3790293019594F83D
:1058B8001D33009394F81C332A466179204600F082
:1058C800E0FB002007B030BD2046FFF7CAFD8DF889
:1058D80017009DF81730002BF3D184F8243394F87F
:1058E8003733012B02D007232370EAE708232370FC
:1058F800E7E7D4F8D433002BE3D0012120469847BA
:1059080008232370DDE794F83D13204600F015FBCB
:105918000028D6D109232370D3E794F83F3313F036
:10592800200F02D10A232370CBE70121204600F083
:1059380015FB0028C5D10A232370C2E7D4F88033A9
:10594800002BBED00023C4F87C3373B1D4F87C3369
:10595800EBB19B6820469847B0B906232370D4F86A
:10596800D433032120469847ABE703F1DE0254F80D
:105978002220107994F84713884202D00133DBB211
:10598800E3E7C4F87C23E1E70D23237099E70D23AF
:10599800237096E7D4F87C3393B11B692046984767
:1059A8008DF817009DF8173013B90B23237088E77B
:1059B8009DF81730DBB2022B83D10D23237080E7CB
:1059C8000D2323707DE7D4F87C33002B3FF479AFA7
:1059D8005B692046984774E7002384F82133204602
:1059E800FFF701FDD4F87C332BB1DB6820469847DC
:1059F8000023C4F87C33D4F8D43313B105212046EE
:105A0800984794F82233DBB2012B03D0204602F0EA
:105A180056F856E7002384F822332046FFF7BCFEE9
:105A28004FE7C0F8C413704708B5D0F8C423013253
:105A3800C0F8C423FFF708FD08BD012380F823330D
:105A48007047002380F8233370470346012280F80B
:105A58002023002083F8210383F82203704738B5F8
:105A68000446012380F82133002580F8205380F86C
:105A7800235302F02CF82179204600F02AFB6179A3
:105A8800204600F026FB284638BD0B7803704B787B
:105A980043708B7891F803C043EA0C2343800B7959
:105AA80003714B7943718B798371CB79C371082A60
:105AB80016D90B7A4A7A43EA022303818B7ACA7A87
:105AC80043EA022343810B7B4A7B43EA0223838117
